{
  "_format": "hh-sol-artifact-1",
  "contractName": "DogBase",
  "sourceName": "contracts/DogBase.sol",
  "abi": [
    {
      "inputs": [],
      "stateMutability": "nonpayable",
      "type": "constructor"
    },
    {
      "inputs": [
        {
          "internalType": "address",
          "name": "sender",
          "type": "address"
        },
        {
          "internalType": "uint256",
          "name": "tokenId",
          "type": "uint256"
        },
        {
          "internalType": "address",
          "name": "owner",
          "type": "address"
        }
      ],
      "name": "ERC721IncorrectOwner",
      "type": "error"
    },
    {
      "inputs": [
        {
          "internalType": "address",
          "name": "operator",
          "type": "address"
        },
        {
          "internalType": "uint256",
          "name": "tokenId",
          "type": "uint256"
        }
      ],
      "name": "ERC721InsufficientApproval",
      "type": "error"
    },
    {
      "inputs": [
        {
          "internalType": "address",
          "name": "approver",
          "type": "address"
        }
      ],
      "name": "ERC721InvalidApprover",
      "type": "error"
    },
    {
      "inputs": [
        {
          "internalType": "address",
          "name": "operator",
          "type": "address"
        }
      ],
      "name": "ERC721InvalidOperator",
      "type": "error"
    },
    {
      "inputs": [
        {
          "internalType": "address",
          "name": "owner",
          "type": "address"
        }
      ],
      "name": "ERC721InvalidOwner",
      "type": "error"
    },
    {
      "inputs": [
        {
          "internalType": "address",
          "name": "receiver",
          "type": "address"
        }
      ],
      "name": "ERC721InvalidReceiver",
      "type": "error"
    },
    {
      "inputs": [
        {
          "internalType": "address",
          "name": "sender",
          "type": "address"
        }
      ],
      "name": "ERC721InvalidSender",
      "type": "error"
    },
    {
      "inputs": [
        {
          "internalType": "uint256",
          "name": "tokenId",
          "type": "uint256"
        }
      ],
      "name": "ERC721NonexistentToken",
      "type": "error"
    },
    {
      "inputs": [
        {
          "internalType": "address",
          "name": "owner",
          "type": "address"
        }
      ],
      "name": "OwnableInvalidOwner",
      "type": "error"
    },
    {
      "inputs": [
        {
          "internalType": "address",
          "name": "account",
          "type": "address"
        }
      ],
      "name": "OwnableUnauthorizedAccount",
      "type": "error"
    },
    {
      "anonymous": false,
      "inputs": [
        {
          "indexed": true,
          "internalType": "uint256",
          "name": "vacId",
          "type": "uint256"
        },
        {
          "indexed": true,
          "internalType": "string",
          "name": "name",
          "type": "string"
        },
        {
          "indexed": true,
          "internalType": "uint256",
          "name": "tokenId",
          "type": "uint256"
        },
        {
          "indexed": false,
          "internalType": "uint256",
          "name": "vetCentraId",
          "type": "uint256"
        },
        {
          "indexed": false,
          "internalType": "uint256",
          "name": "date",
          "type": "uint256"
        }
      ],
      "name": "AddVaccine",
      "type": "event"
    },
    {
      "anonymous": false,
      "inputs": [
        {
          "indexed": true,
          "internalType": "address",
          "name": "owner",
          "type": "address"
        },
        {
          "indexed": true,
          "internalType": "address",
          "name": "approved",
          "type": "address"
        },
        {
          "indexed": true,
          "internalType": "uint256",
          "name": "tokenId",
          "type": "uint256"
        }
      ],
      "name": "Approval",
      "type": "event"
    },
    {
      "anonymous": false,
      "inputs": [
        {
          "indexed": true,
          "internalType": "address",
          "name": "owner",
          "type": "address"
        },
        {
          "indexed": true,
          "internalType": "address",
          "name": "operator",
          "type": "address"
        },
        {
          "indexed": false,
          "internalType": "bool",
          "name": "approved",
          "type": "bool"
        }
      ],
      "name": "ApprovalForAll",
      "type": "event"
    },
    {
      "anonymous": false,
      "inputs": [
        {
          "indexed": true,
          "internalType": "uint256",
          "name": "vetCentraId",
          "type": "uint256"
        },
        {
          "indexed": true,
          "internalType": "string",
          "name": "name",
          "type": "string"
        }
      ],
      "name": "CenterVet",
      "type": "event"
    },
    {
      "anonymous": false,
      "inputs": [
        {
          "indexed": true,
          "internalType": "uint256",
          "name": "tokenId",
          "type": "uint256"
        }
      ],
      "name": "ConfirmDogFound",
      "type": "event"
    },
    {
      "anonymous": false,
      "inputs": [
        {
          "indexed": true,
          "internalType": "uint256",
          "name": "tokenId",
          "type": "uint256"
        },
        {
          "indexed": true,
          "internalType": "uint256",
          "name": "orderId",
          "type": "uint256"
        }
      ],
      "name": "ConfitmMarketPlaceOrder",
      "type": "event"
    },
    {
      "anonymous": false,
      "inputs": [
        {
          "indexed": true,
          "internalType": "uint256",
          "name": "tokenId",
          "type": "uint256"
        },
        {
          "indexed": false,
          "internalType": "string",
          "name": "addr",
          "type": "string"
        },
        {
          "indexed": false,
          "internalType": "uint256",
          "name": "date",
          "type": "uint256"
        }
      ],
      "name": "DogIsFound",
      "type": "event"
    },
    {
      "anonymous": false,
      "inputs": [
        {
          "indexed": true,
          "internalType": "uint256",
          "name": "tokenId",
          "type": "uint256"
        },
        {
          "indexed": false,
          "internalType": "string",
          "name": "addr",
          "type": "string"
        },
        {
          "indexed": false,
          "internalType": "uint256",
          "name": "date",
          "type": "uint256"
        }
      ],
      "name": "DogIsLost",
      "type": "event"
    },
    {
      "anonymous": false,
      "inputs": [
        {
          "indexed": true,
          "internalType": "uint256",
          "name": "tokenId",
          "type": "uint256"
        },
        {
          "indexed": false,
          "internalType": "uint256",
          "name": "price",
          "type": "uint256"
        },
        {
          "indexed": false,
          "internalType": "uint256",
          "name": "orderId",
          "type": "uint256"
        }
      ],
      "name": "MarketPlace",
      "type": "event"
    },
    {
      "anonymous": false,
      "inputs": [
        {
          "indexed": true,
          "internalType": "uint256",
          "name": "tokenId",
          "type": "uint256"
        },
        {
          "indexed": true,
          "internalType": "string",
          "name": "name",
          "type": "string"
        },
        {
          "indexed": false,
          "internalType": "uint256",
          "name": "birthday",
          "type": "uint256"
        },
        {
          "indexed": false,
          "internalType": "string",
          "name": "breed",
          "type": "string"
        },
        {
          "indexed": false,
          "internalType": "string",
          "name": "sex",
          "type": "string"
        },
        {
          "indexed": false,
          "internalType": "address",
          "name": "owner",
          "type": "address"
        }
      ],
      "name": "NewDoge",
      "type": "event"
    },
    {
      "anonymous": false,
      "inputs": [
        {
          "indexed": true,
          "internalType": "address",
          "name": "previousOwner",
          "type": "address"
        },
        {
          "indexed": true,
          "internalType": "address",
          "name": "newOwner",
          "type": "address"
        }
      ],
      "name": "OwnershipTransferred",
      "type": "event"
    },
    {
      "anonymous": false,
      "inputs": [
        {
          "indexed": true,
          "internalType": "address",
          "name": "from",
          "type": "address"
        },
        {
          "indexed": true,
          "internalType": "address",
          "name": "to",
          "type": "address"
        },
        {
          "indexed": true,
          "internalType": "uint256",
          "name": "tokenId",
          "type": "uint256"
        }
      ],
      "name": "Transfer",
      "type": "event"
    },
    {
      "inputs": [
        {
          "internalType": "uint256",
          "name": "_price",
          "type": "uint256"
        },
        {
          "internalType": "uint256",
          "name": "_tokenId",
          "type": "uint256"
        }
      ],
      "name": "addOrder",
      "outputs": [],
      "stateMutability": "nonpayable",
      "type": "function"
    },
    {
      "inputs": [
        {
          "internalType": "uint256",
          "name": "_tokenId",
          "type": "uint256"
        },
        {
          "components": [
            {
              "internalType": "string",
              "name": "name",
              "type": "string"
            },
            {
              "internalType": "string",
              "name": "supplier",
              "type": "string"
            },
            {
              "internalType": "string",
              "name": "code",
              "type": "string"
            },
            {
              "internalType": "uint256",
              "name": "vetCenterId",
              "type": "uint256"
            },
            {
              "internalType": "uint256",
              "name": "date",
              "type": "uint256"
            },
            {
              "internalType": "uint256",
              "name": "dueDate",
              "type": "uint256"
            }
          ],
          "internalType": "struct DogBase.Vaccine",
          "name": "_vaccine",
          "type": "tuple"
        },
        {
          "internalType": "uint256",
          "name": "_doctorId",
          "type": "uint256"
        }
      ],
      "name": "addVaccine",
      "outputs": [],
      "stateMutability": "nonpayable",
      "type": "function"
    },
    {
      "inputs": [
        {
          "internalType": "address",
          "name": "to",
          "type": "address"
        },
        {
          "internalType": "uint256",
          "name": "tokenId",
          "type": "uint256"
        }
      ],
      "name": "approve",
      "outputs": [],
      "stateMutability": "nonpayable",
      "type": "function"
    },
    {
      "inputs": [
        {
          "internalType": "address",
          "name": "owner",
          "type": "address"
        }
      ],
      "name": "balanceOf",
      "outputs": [
        {
          "internalType": "uint256",
          "name": "",
          "type": "uint256"
        }
      ],
      "stateMutability": "view",
      "type": "function"
    },
    {
      "inputs": [
        {
          "internalType": "string",
          "name": "_uri",
          "type": "string"
        }
      ],
      "name": "changeBaseURI",
      "outputs": [],
      "stateMutability": "nonpayable",
      "type": "function"
    },
    {
      "inputs": [
        {
          "internalType": "uint256",
          "name": "_tokenId",
          "type": "uint256"
        },
        {
          "components": [
            {
              "internalType": "uint256",
              "name": "tokenId",
              "type": "uint256"
            },
            {
              "internalType": "uint256",
              "name": "foundDate",
              "type": "uint256"
            },
            {
              "internalType": "address",
              "name": "foundBy",
              "type": "address"
            }
          ],
          "internalType": "struct DogBase.FoundDog",
          "name": "_foundDog",
          "type": "tuple"
        },
        {
          "components": [
            {
              "internalType": "string",
              "name": "email",
              "type": "string"
            },
            {
              "internalType": "string",
              "name": "cellPhone",
              "type": "string"
            },
            {
              "internalType": "string",
              "name": "otherPhone",
              "type": "string"
            }
          ],
          "internalType": "struct DogBase.Contact",
          "name": "_contact",
          "type": "tuple"
        }
      ],
      "name": "claimDogIsFound",
      "outputs": [],
      "stateMutability": "nonpayable",
      "type": "function"
    },
    {
      "inputs": [
        {
          "internalType": "uint256",
          "name": "_tokenId",
          "type": "uint256"
        },
        {
          "components": [
            {
              "internalType": "uint256",
              "name": "tokenId",
              "type": "uint256"
            },
            {
              "internalType": "uint256",
              "name": "missingDate",
              "type": "uint256"
            },
            {
              "internalType": "uint256",
              "name": "postalCode",
              "type": "uint256"
            },
            {
              "internalType": "string",
              "name": "country",
              "type": "string"
            },
            {
              "internalType": "string",
              "name": "region",
              "type": "string"
            },
            {
              "internalType": "string",
              "name": "city",
              "type": "string"
            },
            {
              "internalType": "string",
              "name": "addr",
              "type": "string"
            }
          ],
          "internalType": "struct DogBase.LostDog",
          "name": "_lostDog",
          "type": "tuple"
        }
      ],
      "name": "claimDogIsLost",
      "outputs": [],
      "stateMutability": "nonpayable",
      "type": "function"
    },
    {
      "inputs": [
        {
          "internalType": "address",
          "name": "",
          "type": "address"
        }
      ],
      "name": "contacts",
      "outputs": [
        {
          "internalType": "string",
          "name": "email",
          "type": "string"
        },
        {
          "internalType": "string",
          "name": "cellPhone",
          "type": "string"
        },
        {
          "internalType": "string",
          "name": "otherPhone",
          "type": "string"
        }
      ],
      "stateMutability": "view",
      "type": "function"
    },
    {
      "inputs": [
        {
          "internalType": "uint256",
          "name": "",
          "type": "uint256"
        }
      ],
      "name": "dogs",
      "outputs": [
        {
          "internalType": "string",
          "name": "name",
          "type": "string"
        },
        {
          "internalType": "string",
          "name": "species",
          "type": "string"
        },
        {
          "internalType": "string",
          "name": "breed",
          "type": "string"
        },
        {
          "internalType": "string",
          "name": "sex",
          "type": "string"
        },
        {
          "internalType": "string",
          "name": "country",
          "type": "string"
        },
        {
          "internalType": "string",
          "name": "region",
          "type": "string"
        },
        {
          "internalType": "string",
          "name": "city",
          "type": "string"
        },
        {
          "internalType": "string",
          "name": "addr",
          "type": "string"
        },
        {
          "internalType": "string",
          "name": "tatoo",
          "type": "string"
        },
        {
          "internalType": "string",
          "name": "color",
          "type": "string"
        },
        {
          "internalType": "string",
          "name": "photo",
          "type": "string"
        },
        {
          "internalType": "string",
          "name": "postalCode",
          "type": "string"
        },
        {
          "internalType": "uint256",
          "name": "birthday",
          "type": "uint256"
        }
      ],
      "stateMutability": "view",
      "type": "function"
    },
    {
      "inputs": [
        {
          "internalType": "uint256",
          "name": "",
          "type": "uint256"
        }
      ],
      "name": "foundDogs",
      "outputs": [
        {
          "internalType": "uint256",
          "name": "tokenId",
          "type": "uint256"
        },
        {
          "internalType": "uint256",
          "name": "foundDate",
          "type": "uint256"
        },
        {
          "internalType": "address",
          "name": "foundBy",
          "type": "address"
        }
      ],
      "stateMutability": "view",
      "type": "function"
    },
    {
      "inputs": [
        {
          "internalType": "uint256",
          "name": "tokenId",
          "type": "uint256"
        }
      ],
      "name": "getApproved",
      "outputs": [
        {
          "internalType": "address",
          "name": "",
          "type": "address"
        }
      ],
      "stateMutability": "view",
      "type": "function"
    },
    {
      "inputs": [],
      "name": "getMarketFee",
      "outputs": [
        {
          "internalType": "uint256",
          "name": "",
          "type": "uint256"
        }
      ],
      "stateMutability": "view",
      "type": "function"
    },
    {
      "inputs": [
        {
          "internalType": "address",
          "name": "owner",
          "type": "address"
        },
        {
          "internalType": "address",
          "name": "operator",
          "type": "address"
        }
      ],
      "name": "isApprovedForAll",
      "outputs": [
        {
          "internalType": "bool",
          "name": "",
          "type": "bool"
        }
      ],
      "stateMutability": "view",
      "type": "function"
    },
    {
      "inputs": [
        {
          "internalType": "uint256",
          "name": "",
          "type": "uint256"
        }
      ],
      "name": "lostDogs",
      "outputs": [
        {
          "internalType": "uint256",
          "name": "tokenId",
          "type": "uint256"
        },
        {
          "internalType": "uint256",
          "name": "missingDate",
          "type": "uint256"
        },
        {
          "internalType": "uint256",
          "name": "postalCode",
          "type": "uint256"
        },
        {
          "internalType": "string",
          "name": "country",
          "type": "string"
        },
        {
          "internalType": "string",
          "name": "region",
          "type": "string"
        },
        {
          "internalType": "string",
          "name": "city",
          "type": "string"
        },
        {
          "internalType": "string",
          "name": "addr",
          "type": "string"
        }
      ],
      "stateMutability": "view",
      "type": "function"
    },
    {
      "inputs": [
        {
          "internalType": "uint256",
          "name": "",
          "type": "uint256"
        }
      ],
      "name": "market",
      "outputs": [
        {
          "internalType": "uint256",
          "name": "price",
          "type": "uint256"
        },
        {
          "internalType": "uint256",
          "name": "tokenId",
          "type": "uint256"
        },
        {
          "internalType": "address",
          "name": "dogOwner",
          "type": "address"
        }
      ],
      "stateMutability": "view",
      "type": "function"
    },
    {
      "inputs": [],
      "name": "name",
      "outputs": [
        {
          "internalType": "string",
          "name": "",
          "type": "string"
        }
      ],
      "stateMutability": "view",
      "type": "function"
    },
    {
      "inputs": [],
      "name": "owner",
      "outputs": [
        {
          "internalType": "address",
          "name": "",
          "type": "address"
        }
      ],
      "stateMutability": "view",
      "type": "function"
    },
    {
      "inputs": [
        {
          "internalType": "uint256",
          "name": "tokenId",
          "type": "uint256"
        }
      ],
      "name": "ownerOf",
      "outputs": [
        {
          "internalType": "address",
          "name": "",
          "type": "address"
        }
      ],
      "stateMutability": "view",
      "type": "function"
    },
    {
      "inputs": [
        {
          "internalType": "uint256",
          "name": "_tokenId",
          "type": "uint256"
        },
        {
          "internalType": "address",
          "name": "_foundBy",
          "type": "address"
        }
      ],
      "name": "payReward",
      "outputs": [],
      "stateMutability": "payable",
      "type": "function"
    },
    {
      "inputs": [
        {
          "internalType": "uint256",
          "name": "_chip",
          "type": "uint256"
        },
        {
          "components": [
            {
              "internalType": "string",
              "name": "name",
              "type": "string"
            },
            {
              "internalType": "string",
              "name": "species",
              "type": "string"
            },
            {
              "internalType": "string",
              "name": "breed",
              "type": "string"
            },
            {
              "internalType": "string",
              "name": "sex",
              "type": "string"
            },
            {
              "internalType": "string",
              "name": "country",
              "type": "string"
            },
            {
              "internalType": "string",
              "name": "region",
              "type": "string"
            },
            {
              "internalType": "string",
              "name": "city",
              "type": "string"
            },
            {
              "internalType": "string",
              "name": "addr",
              "type": "string"
            },
            {
              "internalType": "string",
              "name": "tatoo",
              "type": "string"
            },
            {
              "internalType": "string",
              "name": "color",
              "type": "string"
            },
            {
              "internalType": "string",
              "name": "photo",
              "type": "string"
            },
            {
              "internalType": "string",
              "name": "postalCode",
              "type": "string"
            },
            {
              "internalType": "uint256",
              "name": "birthday",
              "type": "uint256"
            }
          ],
          "internalType": "struct DogBase.Dog",
          "name": "_dog",
          "type": "tuple"
        },
        {
          "components": [
            {
              "internalType": "string",
              "name": "email",
              "type": "string"
            },
            {
              "internalType": "string",
              "name": "cellPhone",
              "type": "string"
            },
            {
              "internalType": "string",
              "name": "otherPhone",
              "type": "string"
            }
          ],
          "internalType": "struct DogBase.Contact",
          "name": "_contact",
          "type": "tuple"
        }
      ],
      "name": "regDoge",
      "outputs": [],
      "stateMutability": "nonpayable",
      "type": "function"
    },
    {
      "inputs": [
        {
          "components": [
            {
              "internalType": "string",
              "name": "name",
              "type": "string"
            },
            {
              "internalType": "string",
              "name": "country",
              "type": "string"
            },
            {
              "internalType": "string",
              "name": "region",
              "type": "string"
            },
            {
              "internalType": "string",
              "name": "city",
              "type": "string"
            },
            {
              "internalType": "string",
              "name": "addr",
              "type": "string"
            },
            {
              "internalType": "string",
              "name": "email",
              "type": "string"
            },
            {
              "internalType": "string",
              "name": "phone",
              "type": "string"
            },
            {
              "internalType": "string",
              "name": "postalCode",
              "type": "string"
            }
          ],
          "internalType": "struct DogBase.VetCenter",
          "name": "_vetCenter",
          "type": "tuple"
        }
      ],
      "name": "regVetCenter",
      "outputs": [],
      "stateMutability": "nonpayable",
      "type": "function"
    },
    {
      "inputs": [
        {
          "internalType": "uint256",
          "name": "_vetCenterId",
          "type": "uint256"
        },
        {
          "internalType": "uint256",
          "name": "_doctorId",
          "type": "uint256"
        },
        {
          "internalType": "address",
          "name": "_doctor",
          "type": "address"
        }
      ],
      "name": "regVetCenterOfficial",
      "outputs": [],
      "stateMutability": "nonpayable",
      "type": "function"
    },
    {
      "inputs": [],
      "name": "renounceOwnership",
      "outputs": [],
      "stateMutability": "nonpayable",
      "type": "function"
    },
    {
      "inputs": [
        {
          "internalType": "address",
          "name": "from",
          "type": "address"
        },
        {
          "internalType": "address",
          "name": "to",
          "type": "address"
        },
        {
          "internalType": "uint256",
          "name": "tokenId",
          "type": "uint256"
        }
      ],
      "name": "safeTransferFrom",
      "outputs": [],
      "stateMutability": "nonpayable",
      "type": "function"
    },
    {
      "inputs": [
        {
          "internalType": "address",
          "name": "from",
          "type": "address"
        },
        {
          "internalType": "address",
          "name": "to",
          "type": "address"
        },
        {
          "internalType": "uint256",
          "name": "tokenId",
          "type": "uint256"
        },
        {
          "internalType": "bytes",
          "name": "data",
          "type": "bytes"
        }
      ],
      "name": "safeTransferFrom",
      "outputs": [],
      "stateMutability": "nonpayable",
      "type": "function"
    },
    {
      "inputs": [
        {
          "internalType": "uint256",
          "name": "_tokenId",
          "type": "uint256"
        },
        {
          "internalType": "address",
          "name": "_to",
          "type": "address"
        },
        {
          "internalType": "uint256",
          "name": "_orderId",
          "type": "uint256"
        }
      ],
      "name": "sellOrder",
      "outputs": [],
      "stateMutability": "payable",
      "type": "function"
    },
    {
      "inputs": [
        {
          "internalType": "address",
          "name": "operator",
          "type": "address"
        },
        {
          "internalType": "bool",
          "name": "approved",
          "type": "bool"
        }
      ],
      "name": "setApprovalForAll",
      "outputs": [],
      "stateMutability": "nonpayable",
      "type": "function"
    },
    {
      "inputs": [
        {
          "internalType": "uint256",
          "name": "_fee",
          "type": "uint256"
        }
      ],
      "name": "setLostFoundFee",
      "outputs": [],
      "stateMutability": "nonpayable",
      "type": "function"
    },
    {
      "inputs": [
        {
          "internalType": "uint256",
          "name": "_fee",
          "type": "uint256"
        }
      ],
      "name": "setMarketFee",
      "outputs": [],
      "stateMutability": "nonpayable",
      "type": "function"
    },
    {
      "inputs": [
        {
          "internalType": "bytes4",
          "name": "interfaceId",
          "type": "bytes4"
        }
      ],
      "name": "supportsInterface",
      "outputs": [
        {
          "internalType": "bool",
          "name": "",
          "type": "bool"
        }
      ],
      "stateMutability": "view",
      "type": "function"
    },
    {
      "inputs": [],
      "name": "symbol",
      "outputs": [
        {
          "internalType": "string",
          "name": "",
          "type": "string"
        }
      ],
      "stateMutability": "view",
      "type": "function"
    },
    {
      "inputs": [
        {
          "internalType": "uint256",
          "name": "tokenId",
          "type": "uint256"
        }
      ],
      "name": "tokenURI",
      "outputs": [
        {
          "internalType": "string",
          "name": "",
          "type": "string"
        }
      ],
      "stateMutability": "view",
      "type": "function"
    },
    {
      "inputs": [
        {
          "internalType": "address",
          "name": "from",
          "type": "address"
        },
        {
          "internalType": "address",
          "name": "to",
          "type": "address"
        },
        {
          "internalType": "uint256",
          "name": "tokenId",
          "type": "uint256"
        }
      ],
      "name": "transferFrom",
      "outputs": [],
      "stateMutability": "nonpayable",
      "type": "function"
    },
    {
      "inputs": [
        {
          "internalType": "address",
          "name": "newOwner",
          "type": "address"
        }
      ],
      "name": "transferOwnership",
      "outputs": [],
      "stateMutability": "nonpayable",
      "type": "function"
    },
    {
      "inputs": [
        {
          "internalType": "uint256",
          "name": "",
          "type": "uint256"
        },
        {
          "internalType": "uint256",
          "name": "",
          "type": "uint256"
        }
      ],
      "name": "vaccines",
      "outputs": [
        {
          "internalType": "string",
          "name": "name",
          "type": "string"
        },
        {
          "internalType": "string",
          "name": "supplier",
          "type": "string"
        },
        {
          "internalType": "string",
          "name": "code",
          "type": "string"
        },
        {
          "internalType": "uint256",
          "name": "vetCenterId",
          "type": "uint256"
        },
        {
          "internalType": "uint256",
          "name": "date",
          "type": "uint256"
        },
        {
          "internalType": "uint256",
          "name": "dueDate",
          "type": "uint256"
        }
      ],
      "stateMutability": "view",
      "type": "function"
    },
    {
      "inputs": [
        {
          "internalType": "uint256",
          "name": "",
          "type": "uint256"
        },
        {
          "internalType": "uint256",
          "name": "",
          "type": "uint256"
        }
      ],
      "name": "vetCenterOfficials",
      "outputs": [
        {
          "internalType": "address",
          "name": "",
          "type": "address"
        }
      ],
      "stateMutability": "view",
      "type": "function"
    },
    {
      "inputs": [
        {
          "internalType": "uint256",
          "name": "",
          "type": "uint256"
        }
      ],
      "name": "vetCenters",
      "outputs": [
        {
          "internalType": "string",
          "name": "name",
          "type": "string"
        },
        {
          "internalType": "string",
          "name": "country",
          "type": "string"
        },
        {
          "internalType": "string",
          "name": "region",
          "type": "string"
        },
        {
          "internalType": "string",
          "name": "city",
          "type": "string"
        },
        {
          "internalType": "string",
          "name": "addr",
          "type": "string"
        },
        {
          "internalType": "string",
          "name": "email",
          "type": "string"
        },
        {
          "internalType": "string",
          "name": "phone",
          "type": "string"
        },
        {
          "internalType": "string",
          "name": "postalCode",
          "type": "string"
        }
      ],
      "stateMutability": "view",
      "type": "function"
    },
    {
      "inputs": [],
      "name": "withdraw",
      "outputs": [],
      "stateMutability": "nonpayable",
      "type": "function"
    }
  ],
  "bytecode": "0x6080604052346200002d576200001462000186565b6200001e62000033565b61526f6200080c823961526f90f35b62000039565b60405190565b600080fd5b601f801991011690565b634e487b7160e01b600052604160045260246000fd5b906200006a906200003e565b810190811060018060401b038211176200008357604052565b62000048565b90620000a06200009862000033565b92836200005e565b565b60018060401b038111620000c157620000bd6020916200003e565b0190565b62000048565b90620000dd620000d783620000a2565b62000089565b918252565b60007f446f6742617365546f6b656e0000000000000000000000000000000000000000910152565b62000116600c620000c7565b906200012560208301620000e2565b565b620001316200010a565b90565b60007f4442540000000000000000000000000000000000000000000000000000000000910152565b620001686003620000c7565b90620001776020830162000134565b565b620001836200015c565b90565b620001a66200019462000127565b6200019e62000179565b3391620003bf565b565b634e487b7160e01b600052602260045260246000fd5b9060016002830492168015620001e1575b6020831014620001db57565b620001a8565b91607f1691620001cf565b600052602060002090565b601f602091010490565b1b90565b91906008620002259102916200021e6000198462000201565b9262000201565b9181191691161790565b90565b90565b6200024e6200024862000254926200022f565b62000232565b6200022f565b90565b90565b9190620002756200026f6200027e9362000235565b62000257565b90835462000205565b9055565b600090565b6200029d916200029662000282565b916200025a565b565b5b818110620002ac575050565b80620002bc600060019362000287565b01620002a0565b9190601f8111620002d4575b505050565b620002e36200030e93620001ec565b906020620002f184620001f7565b8301931062000317575b6200030690620001f7565b01906200029f565b388080620002cf565b91506200030681929050620002fb565b620003406000620003398354620001be565b83620002c3565b600080019055565b620003539062000327565b565b60001b90565b906200036a6000199162000355565b9181191691161790565b90565b620003906200038a620003969262000374565b62000232565b6200022f565b90565b90620003b3620003ad620003bb9262000377565b62000257565b82546200035b565b9055565b90620003cc929162000598565b620003d8600762000348565b620003ec66038d7ea4c68000600862000399565b6200040066038d7ea4c68000600962000399565b565b5190565b600052602060002090565b9190601f811162000422575b505050565b620004316200045c9362000406565b9060206200043f84620001f7565b8301931062000465575b6200045490620001f7565b01906200029f565b3880806200041d565b9150620004548192905062000449565b1c90565b906200048c906000199060080262000475565b191690565b816200049d9162000479565b906002021790565b90620004b18162000402565b9060018060401b0382116200058457620004d882620004d18554620001be565b8562000411565b602090601f83116001146200051257918091620005009360009262000505575b505062000491565b90555b565b90915001513880620004f8565b601f19831691620005238562000406565b9260005b8181106200056b575091600293918560019694106200054e575b5050500201905562000503565b62000560910151601f84169062000479565b905538808062000541565b9193602060018192878701518155019501920162000527565b62000048565b906200059691620004a5565b565b620005b490620005ac620005bc94620005be565b60016200058a565b60026200058a565b565b620005c990620005cb565b565b620005d690620005d8565b565b620005e390620005e5565b565b620005f090620005f2565b565b620005fd9062000672565b565b90565b60018060a01b031690565b62000626620006206200062c92620005ff565b62000232565b62000602565b90565b6200063a906200060d565b90565b620006489062000602565b90565b62000656906200063d565b9052565b919062000670906000602085019401906200064b565b565b80620006946200068d6200068760006200062f565b6200063d565b916200063d565b14620006a757620006a5906200079e565b565b620006d8620006b760006200062f565b620006c162000033565b918291631e4fbdf760e01b8352600483016200065a565b0390fd5b60001c90565b60018060a01b031690565b620006fc6200070291620006dc565b620006e2565b90565b620007119054620006ed565b90565b906200072760018060a01b039162000355565b9181191691161790565b6200074a62000744620007509262000602565b62000232565b62000602565b90565b6200075e9062000731565b90565b6200076c9062000753565b90565b90565b906200078c62000786620007949262000761565b6200076f565b825462000714565b9055565b60000190565b620007aa600062000705565b620007b782600062000772565b90620007ef620007e87f8be0079c531659141344cd1fd0a4f28419497f9722a3daafe3b4186f6b6457e09362000761565b9162000761565b91620007fa62000033565b80620008068162000798565b0390a356fe60806040526004361015610013575b6121b8565b61001e60003561027d565b806301ffc9a71461027857806306fdde0314610273578063081812fc1461026e578063095ea7b3146102695780630ae8b0c2146102645780632208ee801461025f57806323b872dd1461025a57806326b825d21461025557806328861d221461025057806329a7b04b1461024b5780632c1352cf146102465780633596771614610241578063382723561461023c57806339a0c6f9146102375780633ccfd60b1461023257806342842e0e1461022d57806348324017146102285780635e123add146102235780636352211e1461021e5780636515d6c11461021957806370a0823114610214578063715018a61461020f57806375dda0ec1461020a5780638da5cb5b146102055780638e9e3cad1461020057806395d89b41146101fb5780639da3ad1a146101f6578063a22cb465146101f1578063a8f5ddd4146101ec578063ac440570146101e7578063aed20540146101e2578063b88d4fde146101dd578063c40e21c0146101d8578063c87b56dd146101d3578063e985e9c5146101ce578063f1214058146101c9578063f28db6c4146101c45763f2fde38b0361000e57612185565b612151565b61211d565b611e49565b611de6565b611da9565b611c3e565b611b2e565b6119c4565b611955565b6118e6565b611858565b6116f3565b6116bd565b6115de565b6115aa565b611436565b611401565b6113d7565b611374565b61133f565b6112f6565b61111d565b6110ea565b6110b7565b61103c565b610e22565b610c13565b610b01565b610ac9565b610a14565b6109e0565b61096d565b610816565b61051c565b61048f565b6103da565b61030f565b60e01c90565b60405190565b600080fd5b600080fd5b600080fd5b63ffffffff60e01b1690565b6102ad81610298565b036102b457565b600080fd5b905035906102c6826102a4565b565b906020828203126102e2576102df916000016102b9565b90565b61028e565b151590565b6102f5906102e7565b9052565b919061030d906000602085019401906102ec565b565b3461033f5761033b61032a6103253660046102c8565b6121c2565b610332610283565b918291826102f9565b0390f35b610289565b600091031261034f57565b61028e565b5190565b60209181520190565b60005b838110610375575050906000910152565b806020918301518185015201610364565b601f801991011690565b6103af6103b86020936103bd936103a681610354565b93848093610358565b95869101610361565b610386565b0190565b6103d79160208201916000818403910152610390565b90565b3461040a576103ea366004610344565b6104066103f561223b565b6103fd610283565b918291826103c1565b0390f35b610289565b90565b61041b8161040f565b0361042257565b600080fd5b9050359061043482610412565b565b906020828203126104505761044d91600001610427565b90565b61028e565b60018060a01b031690565b61046990610455565b90565b61047590610460565b9052565b919061048d9060006020850194019061046c565b565b346104bf576104bb6104aa6104a5366004610436565b612256565b6104b2610283565b91829182610479565b0390f35b610289565b6104cd81610460565b036104d457565b600080fd5b905035906104e6826104c4565b565b9190604083820312610511578061050561050e92600086016104d9565b93602001610427565b90565b61028e565b60000190565b3461054b5761053561052f3660046104e8565b90612275565b61053d610283565b8061054781610516565b0390f35b610289565b634e487b7160e01b600052603260045260246000fd5b5490565b600052602060002090565b61057e81610566565b8210156105995761059060089161056a565b91020190600090565b610550565b634e487b7160e01b600052602260045260246000fd5b90600160028304921680156105d4575b60208310146105cf57565b61059e565b91607f16916105c4565b60209181520190565b600052602060002090565b906000929180549061060d610606836105b4565b80946105de565b916001811690816000146106665750600114610629575b505050565b61063691929394506105e7565b916000925b81841061064e5750500190388080610624565b6001816020929593955484860152019101929061063b565b92949550505060ff1916825215156020020190388080610624565b9061068b916105f2565b90565b634e487b7160e01b600052604160045260246000fd5b906106ae90610386565b810190811067ffffffffffffffff8211176106c857604052565b61068e565b906106ed6106e6926106dd610283565b93848092610681565b03836106a4565b565b600a906106fb82610566565b8110156107765761070b91610575565b5090610719600083016106cd565b91610726600182016106cd565b91610733600283016106cd565b91610740600382016106cd565b9161074d600483016106cd565b9161075a600582016106cd565b91610773600761076c600685016106cd565b93016106cd565b90565b600080fd5b9693946107db610805966107cd6107f7966107be8c6108139e9c986107b06107e9996101008401908482036000860152610390565b916020818403910152610390565b908c6040818403910152610390565b908a820360608c0152610390565b9088820360808a0152610390565b9086820360a0880152610390565b9084820360c0860152610390565b9160e0818403910152610390565b90565b346108505761084c61083161082c366004610436565b6106ef565b94610843989698949194939293610283565b9889988961077b565b0390f35b610289565b5490565b600052602060002090565b61086d81610855565b8210156108885761087f600391610859565b91020190600090565b610550565b60001c90565b90565b6108a26108a79161088d565b610893565b90565b6108b49054610896565b90565b60018060a01b031690565b6108ce6108d39161088d565b6108b7565b90565b6108e090546108c2565b90565b600d906108ef82610855565b811015610928576108ff91610864565b5061090c600082016108aa565b91610925600261091e600185016108aa565b93016108d6565b90565b600080fd5b6109369061040f565b9052565b60409061096461096b949695939661095a6060840198600085019061092d565b602083019061092d565b019061046c565b565b346109a05761099c610988610983366004610436565b6108e3565b610993939193610283565b9384938461093a565b0390f35b610289565b90916060828403126109db576109d86109c184600085016104d9565b936109cf81602086016104d9565b93604001610427565b90565b61028e565b34610a0f576109f96109f33660046109a5565b916122e9565b610a01610283565b80610a0b81610516565b0390f35b610289565b34610a4257610a2c610a27366004610436565b612468565b610a34610283565b80610a3e81610516565b0390f35b610289565b5490565b600052602060002090565b610a5f81610a47565b821015610a7a57610a71600391610a4b565b91020190600090565b610550565b600b90610a8b82610a47565b811015610ac457610a9b91610a56565b50610aa8600082016108aa565b91610ac16002610aba600185016108aa565b93016108d6565b90565b600080fd5b34610afc57610af8610ae4610adf366004610436565b610a7f565b610aef939193610283565b9384938461093a565b0390f35b610289565b34610b2f57610b19610b14366004610436565b612493565b610b21610283565b80610b2b81610516565b0390f35b610289565b90602082820312610b4e57610b4b916000016104d9565b90565b61028e565b90565b610b6a610b65610b6f92610455565b610b53565b610455565b90565b610b7b90610b56565b90565b610b8790610b72565b90565b90610b9490610b7e565b600052602052604060002090565b610bad906011610b8a565b610bb9600082016106cd565b91610bd26002610bcb600185016106cd565b93016106cd565b90565b91610c0290610bf4610c10959360608601908682036000880152610390565b908482036020860152610390565b916040818403910152610390565b90565b34610c4657610c42610c2e610c29366004610b34565b610ba2565b610c39939193610283565b93849384610bd5565b0390f35b610289565b600080fd5b90610c63610c5c610283565b92836106a4565b565b600080fd5b600080fd5b600080fd5b67ffffffffffffffff8111610c9257610c8e602091610386565b0190565b61068e565b90826000939282370152565b90929192610cb8610cb382610c74565b610c50565b93818552602085019082840111610cd457610cd292610c97565b565b610c6f565b9080601f83011215610cf757816020610cf493359101610ca3565b90565b610c6a565b91909160c081840312610dc957610d1360c0610c50565b92600082013567ffffffffffffffff8111610dc45781610d34918401610cd9565b6000850152602082013567ffffffffffffffff8111610dbf5781610d59918401610cd9565b602085015260408201359167ffffffffffffffff8311610dba57610d8282610db3948301610cd9565b6040860152610d948260608301610427565b6060860152610da68260808301610427565b608086015260a001610427565b60a0830152565b610c65565b610c65565b610c65565b610c4b565b9091606082840312610e1d57610de78360008401610427565b9260208301359067ffffffffffffffff8211610e1857610e0c81610e15938601610cfc565b93604001610427565b90565b610293565b61028e565b34610e5157610e3b610e35366004610dce565b91612adb565b610e43610283565b80610e4d81610516565b0390f35b610289565b610e6a610e65610e6f9261040f565b610b53565b61040f565b90565b90610e7c90610e56565b600052602052604060002090565b610e9590600e610e72565b610ea1600082016106cd565b91610eae600183016106cd565b91610ebb600282016106cd565b91610ec8600383016106cd565b91610ed5600482016106cd565b91610ee2600583016106cd565b91610eef600682016106cd565b91610efc600783016106cd565b91610f09600882016106cd565b91610f16600983016106cd565b91610f23600a82016106cd565b91610f3c600c610f35600b85016106cd565b93016108aa565b90565b61103a9c98819f9e9c9761102399610fd9610fe7926101809f996110329f989b610fbd610fcb92610faf6110149f9d610fa06110059f8d90610ff59f610f92906101a08401908482036000860152610390565b916020818403910152610390565b908c6040818403910152610390565b908a820360608c0152610390565b9088820360808a0152610390565b9086820360a0880152610390565b9084820360c0860152610390565b9160e0818403910152610390565b908d610100818403910152610390565b908b82036101208d0152610390565b908982036101408b0152610390565b90878203610160890152610390565b94019061092d565b565b3461107c57611078611057611052366004610436565b610e8a565b9961106f9d9b9d999199989298979397969496610283565b9d8e9d8e610f3f565b0390f35b610289565b906020828203126110b257600082013567ffffffffffffffff81116110ad576110aa9201610cd9565b90565b610293565b61028e565b346110e5576110cf6110ca366004611081565b612b08565b6110d7610283565b806110e181610516565b0390f35b610289565b34611118576110fa366004610344565b611102612bac565b61110a610283565b8061111481610516565b0390f35b610289565b3461114c576111366111303660046109a5565b91612bce565b61113e610283565b8061114881610516565b0390f35b610289565b919091610100818403126112bb5761116a610100610c50565b92600082013567ffffffffffffffff81116112b6578161118b918401610cd9565b6000850152602082013567ffffffffffffffff81116112b157816111b0918401610cd9565b6020850152604082013567ffffffffffffffff81116112ac57816111d5918401610cd9565b6040850152606082013567ffffffffffffffff81116112a757816111fa918401610cd9565b6060850152608082013567ffffffffffffffff81116112a2578161121f918401610cd9565b608085015260a082013567ffffffffffffffff811161129d5781611244918401610cd9565b60a085015260c082013567ffffffffffffffff81116112985781611269918401610cd9565b60c085015260e082013567ffffffffffffffff81116112935761128c9201610cd9565b60e0830152565b610c65565b610c65565b610c65565b610c65565b610c65565b610c65565b610c65565b610c65565b610c4b565b906020828203126112f157600082013567ffffffffffffffff81116112ec576112e99201611151565b90565b610293565b61028e565b346113245761130e6113093660046112c0565b612e57565b611316610283565b8061132081610516565b0390f35b610289565b919061133d9060006020850194019061092d565b565b3461136f5761134f366004610344565b61136b61135a612f01565b611362610283565b91829182611329565b0390f35b610289565b346113a4576113a061138f61138a366004610436565b612f17565b611397610283565b91829182610479565b0390f35b610289565b91906040838203126113d257806113c66113cf9260008601610427565b936020016104d9565b90565b61028e565b6113eb6113e53660046113a9565b9061307c565b6113f3610283565b806113fd81610516565b0390f35b346114315761142d61141c611417366004610b34565b6130a0565b611424610283565b91829182611329565b0390f35b610289565b3461146457611446366004610344565b61144e613135565b611456610283565b8061146081610516565b0390f35b610289565b91909160e08184031261155f5761148060e0610c50565b9261148e8160008401610427565b60008501526114a08160208401610427565b60208501526114b28160408401610427565b6040850152606082013567ffffffffffffffff811161155a57816114d7918401610cd9565b6060850152608082013567ffffffffffffffff811161155557816114fc918401610cd9565b608085015260a082013567ffffffffffffffff81116115505781611521918401610cd9565b60a085015260c082013567ffffffffffffffff811161154b576115449201610cd9565b60c0830152565b610c65565b610c65565b610c65565b610c65565b610c4b565b9190916040818403126115a55761157e8360008301610427565b92602082013567ffffffffffffffff81116115a05761159d9201611469565b90565b610293565b61028e565b346115d9576115c36115bd366004611564565b906134df565b6115cb610283565b806115d581610516565b0390f35b610289565b3461160e576115ee366004610344565b61160a6115f96134eb565b611601610283565b91829182610479565b0390f35b610289565b919060408382031261163c57806116306116399260008601610427565b93602001610427565b90565b61028e565b9061164b90610e56565b600052602052604060002090565b9061166390610e56565b600052602052604060002090565b1c90565b61168590600861168a9302611671565b6108b7565b90565b906116989154611675565b90565b6116b56116ba926116b0601093600094611641565b611659565b61168d565b90565b346116ee576116ea6116d96116d3366004611613565b9061169b565b6116e1610283565b91829182610479565b0390f35b610289565b3461172357611703366004610344565b61171f61170e613501565b611716610283565b918291826103c1565b0390f35b610289565b5490565b600052602060002090565b61174081611728565b82101561175b5761175260079161172c565b91020190600090565b610550565b600c9061176c82611728565b8110156117d95761177c91611737565b50611789600082016108aa565b91611796600183016108aa565b916117a3600282016108aa565b916117b0600383016106cd565b916117bd600482016106cd565b916117d660066117cf600585016106cd565b93016106cd565b90565b600080fd5b9592866118479561181e61182b936118146118399761180a6118559e9c98600060e0890198019061092d565b60208d019061092d565b60408b019061092d565b88820360608a0152610390565b908682036080880152610390565b9084820360a0860152610390565b9160c0818403910152610390565b90565b3461188f5761188b61187361186e366004610436565b611760565b93611882979597939193610283565b978897886117de565b0390f35b610289565b61189d816102e7565b036118a457565b600080fd5b905035906118b682611894565b565b91906040838203126118e157806118d56118de92600086016104d9565b936020016118a9565b90565b61028e565b34611915576118ff6118f93660046118b8565b90613517565b611907610283565b8061191181610516565b0390f35b610289565b90916060828403126119505761194d6119368460008501610427565b936119448160208601610427565b936040016104d9565b90565b61028e565b346119845761196e61196836600461191a565b916135b1565b611976610283565b8061198081610516565b0390f35b610289565b90916060828403126119bf576119bc6119a58460008501610427565b936119b381602086016104d9565b93604001610427565b90565b61028e565b6119d86119d2366004611989565b91613738565b6119e0610283565b806119ea81610516565b0390f35b9190606083820312611a3c57611a3590611a086060610c50565b93611a168260008301610427565b6000860152611a288260208301610427565b60208601526040016104d9565b6040830152565b610c4b565b919091606081840312611ad757611a586060610c50565b92600082013567ffffffffffffffff8111611ad25781611a79918401610cd9565b6000850152602082013567ffffffffffffffff8111611acd5781611a9e918401610cd9565b6020850152604082013567ffffffffffffffff8111611ac857611ac19201610cd9565b6040830152565b610c65565b610c65565b610c65565b610c4b565b9160a083830312611b2957611af48260008501610427565b92611b0283602083016119ee565b92608082013567ffffffffffffffff8111611b2457611b219201611a41565b90565b610293565b61028e565b34611b5d57611b47611b41366004611adc565b91613940565b611b4f610283565b80611b5981610516565b0390f35b610289565b67ffffffffffffffff8111611b8057611b7c602091610386565b0190565b61068e565b90929192611b9a611b9582611b62565b610c50565b93818552602085019082840111611bb657611bb492610c97565b565b610c6f565b9080601f83011215611bd957816020611bd693359101611b85565b90565b610c6a565b90608082820312611c3957611bf681600084016104d9565b92611c0482602085016104d9565b92611c128360408301610427565b92606082013567ffffffffffffffff8111611c3457611c319201611bbb565b90565b610293565b61028e565b34611c7057611c5a611c51366004611bde565b92919091613a1c565b611c62610283565b80611c6c81610516565b0390f35b610289565b90611c7f90610e56565b600052602052604060002090565b5490565b600052602060002090565b611ca581611c8d565b821015611cc057611cb7600691611c91565b91020190600090565b610550565b611cd090600f611c75565b90611cda82611c8d565b811015611d3b57611cea91611c9c565b5090611cf8600083016106cd565b91611d05600182016106cd565b91611d12600283016106cd565b91611d1f600382016108aa565b91611d386005611d31600485016108aa565b93016108aa565b90565b600080fd5b9194611d96611d8b60a095611d7d611da799611d6f611da0979d9c9a9d60c08a01908a820360008c0152610390565b9088820360208a0152610390565b908682036040880152610390565b98606085019061092d565b608083019061092d565b019061092d565b565b34611de157611ddd611dc5611dbf366004611613565b90611cc5565b92611dd4969496929192610283565b96879687611d40565b0390f35b610289565b34611e1657611e12611e01611dfc366004610436565b613a90565b611e09610283565b918291826103c1565b0390f35b610289565b9190604083820312611e445780611e38611e4192600086016104d9565b936020016104d9565b90565b61028e565b34611e7a57611e76611e65611e5f366004611e1b565b90613b55565b611e6d610283565b918291826102f9565b0390f35b610289565b9190916101a0818403126120ae57611e986101a0610c50565b92600082013567ffffffffffffffff81116120a95781611eb9918401610cd9565b6000850152602082013567ffffffffffffffff81116120a45781611ede918401610cd9565b6020850152604082013567ffffffffffffffff811161209f5781611f03918401610cd9565b6040850152606082013567ffffffffffffffff811161209a5781611f28918401610cd9565b6060850152608082013567ffffffffffffffff81116120955781611f4d918401610cd9565b608085015260a082013567ffffffffffffffff81116120905781611f72918401610cd9565b60a085015260c082013567ffffffffffffffff811161208b5781611f97918401610cd9565b60c085015260e082013567ffffffffffffffff81116120865781611fbc918401610cd9565b60e085015261010082013567ffffffffffffffff81116120815781611fe2918401610cd9565b61010085015261012082013567ffffffffffffffff811161207c5781612009918401610cd9565b61012085015261014082013567ffffffffffffffff81116120775781612030918401610cd9565b6101408501526101608201359167ffffffffffffffff83116120725761205b8261206a948301610cd9565b61016086015261018001610427565b610180830152565b610c65565b610c65565b610c65565b610c65565b610c65565b610c65565b610c65565b610c65565b610c65565b610c65565b610c65565b610c65565b610c4b565b91606083830312612118576120cb8260008501610427565b92602081013567ffffffffffffffff811161211357836120ec918301611e7f565b92604082013567ffffffffffffffff811161210e5761210b9201611a41565b90565b610293565b610293565b61028e565b3461214c576121366121303660046120b3565b91613cab565b61213e610283565b8061214881610516565b0390f35b610289565b346121805761216a612164366004611613565b90613f09565b612172610283565b8061217c81610516565b0390f35b610289565b346121b35761219d612198366004610b34565b613f83565b6121a5610283565b806121af81610516565b0390f35b610289565b600080fd5b600090565b6121ca6121bd565b50806121e56121df6380ac58cd60e01b610298565b91610298565b148015612209575b9081156121f9575b5090565b6122039150613f8e565b386121f5565b508061222461221e635b5e139f60e01b610298565b91610298565b146121ed565b606090565b612238906106cd565b90565b61224361222a565b5061224e600161222f565b90565b600090565b61227290612262612251565b5061226c81613fb4565b50614012565b90565b906122899190612283614031565b9161403e565b565b90565b6122a261229d6122a79261228b565b610b53565b610455565b90565b6122b39061228e565b90565b6040906122e06122e794969593966122d66060840198600085019061046c565b602083019061092d565b019061046c565b565b9190806123076123016122fc60006122aa565b610460565b91610460565b146123655761231f9082612319614031565b9161406a565b918261233361232d83610460565b91610460565b0361233d57505050565b61236190919261234b610283565b9384936364283d7b60e01b8552600485016122b6565b0390fd5b61239061237260006122aa565b61237a610283565b918291633250574960e11b835260048301610479565b0390fd5b6123a5906123a06141f1565b61244a565b565b906123b96123b483610c74565b610c50565b918252565b60007f7365744d61726b65744665653a20000000000000000000000000000000000000910152565b6123f0600e6123a7565b906123fd602083016123be565b565b6124076123e6565b90565b60001b90565b9061241d6000199161240a565b9181191691161790565b90565b9061243f61243a61244692610e56565b612427565b8254612410565b9055565b6124669061245f8161245a6123ff565b61426d565b600961242a565b565b61247190612394565b565b6124849061247f6141f1565b612486565b565b61249190600861242a565b565b61249c90612473565b565b60007f4e6f7420746865206f776e6572206f66207468697320746f6b656e0000000000910152565b6124d3601b602092610358565b6124dc8161249e565b0190565b6124f690602081019060008183039101526124c6565b90565b1561250057565b612508610283565b62461bcd60e51b81528061251e600482016124e0565b0390fd5b90612551929161254c61253482612f17565b61254661254033610460565b91610460565b146124f9565b6129db565b565b61255d905161040f565b90565b60007f556e617574686f72697a65642076657400000000000000000000000000000000910152565b6125956010602092610358565b61259e81612560565b0190565b6125b89060208101906000818303910152612588565b90565b156125c257565b6125ca610283565b62461bcd60e51b8152806125e0600482016125a2565b0390fd5b90565b600052602060002090565b5490565b6125ff816125f2565b82101561261a576126116006916125e7565b91020190600090565b610550565b634e487b7160e01b600052600060045260246000fd5b5190565b601f602091010490565b1b90565b9190600861266391029161265d60001984612643565b92612643565b9181191691161790565b919061268361267e61268b93610e56565b612427565b908354612647565b9055565b600090565b6126a6916126a061268f565b9161266d565b565b5b8181106126b4575050565b806126c26000600193612694565b016126a9565b9190601f81116126d8575b505050565b6126e4612709936105e7565b9060206126f084612639565b83019310612711575b61270290612639565b01906126a8565b3880806126d3565b9150612702819290506126f9565b906127309060001990600802611671565b191690565b8161273f9161271f565b906002021790565b9061275181610354565b9067ffffffffffffffff8211612813576127758261276f85546105b4565b856126c8565b602090601f83116001146127aa579180916127999360009261279e575b5050612735565b90555b565b90915001513880612792565b601f198316916127b9856105e7565b9260005b8181106127fb575091600293918560019694106127e1575b5050500201905561279c565b6127f1910151601f84169061271f565b90553880806127d5565b919360206001819287870151815501950192016127bd565b61068e565b9061282291612747565b565b906128b560a060056128bb946128496000820161284360008801612635565b90612818565b6128626001820161285c60208801612635565b90612818565b61287b6002820161287560408801612635565b90612818565b6128946003820161288e60608801612553565b9061242a565b6128ad600482016128a760808801612553565b9061242a565b019201612553565b9061242a565b565b91906128ce576128cc91612824565b565b61261f565b908154916801000000000000000083101561290357826128fb916001612901950181556125f6565b906128bd565b565b61068e565b90565b61291f61291a61292492612908565b610b53565b61040f565b90565b634e487b7160e01b600052601160045260246000fd5b61294c6129529193929361040f565b9261040f565b820391821161295d57565b612927565b905090565b61298c6129839260209261297a81610354565b94858093612962565b93849101610361565b0190565b61299991612967565b90565b6129b1906129a8610283565b91829182612990565b03902090565b9160206129d99294936129d26040820196600083019061092d565b019061092d565b565b9091612a08612a03612a20926129fe60106129f860608901612553565b90611641565b611659565b6108d6565b612a1a612a1433610460565b91610460565b146125bb565b612a3e612a37612a32600f8490611c75565b6125e4565b83906128d3565b612a65612a55612a50600f8490611c75565b611c8d565b612a5f600161290b565b9061293d565b9060008301519091612a856080612a7e60608701612553565b9501612553565b612ac1612abb612ab57fe4cea47a678377b49d581236eb00ac6bee6b4ff3c0ed2cd665aa3cb6cd2f31e194610e56565b9461299c565b94610e56565b94612ad6612acd610283565b928392836129b7565b0390a4565b90612ae69291612522565b565b612af990612af46141f1565b612afb565b565b612b06906007612818565b565b612b1190612ae8565b565b612b1b6141f1565b612b23612b66565b565b612b2e90610b56565b90565b612b3a90612b25565b90565b612b4690610b72565b90565b612b5290610b72565b90565b612b5d610283565b3d6000823e3d90fd5b6000808080612b83612b7e612b796134eb565b612b31565b612b3d565b612b8c30612b49565b3190828215612ba3575bf115612b9e57565b612b55565b506108fc612b96565b612bb4612b13565b565b612bc060006123a7565b90565b612bcb612bb6565b90565b91612be29291612bdc612bc3565b92613a1c565b565b90565b600052602060002090565b5490565b612bff81612bf2565b821015612c1a57612c11600891612be7565b91020190600090565b610550565b90612ce260e06007612ce894612c4460008201612c3e60008801612635565b90612818565b612c5d60018201612c5760208801612635565b90612818565b612c7660028201612c7060408801612635565b90612818565b612c8f60038201612c8960608801612635565b90612818565b612ca860048201612ca260808801612635565b90612818565b612cc160058201612cbb60a08801612635565b90612818565b612cda60068201612cd460c08801612635565b90612818565b019201612635565b90612818565b565b9190612cfb57612cf991612c1f565b565b61261f565b9081549168010000000000000000831015612d305782612d28916001612d2e95018155612bf6565b90612cea565b565b61068e565b612d49612d44612d4e9261228b565b610b53565b61040f565b90565b90612d5b90612d35565b600052602052604060002090565b90612d7a60018060a01b039161240a565b9181191691161790565b90565b90612d9c612d97612da392610b7e565b612d84565b8254612d69565b9055565b9060009291805490612dc2612dbb836105b4565b8094612962565b91600181169081600014612e165750600114612dde575b505050565b612deb91929394506105e7565b6000905b838210612e025750500190388080612dd9565b600181602092548486015201910190612def565b92949550505060ff19168252801515020190388080612dd9565b612e3991612da7565b90565b612e5190612e48610283565b91829182612e30565b03902090565b612e6a90612e65600a612be4565b612d00565b612e87612e77600a610566565b612e81600161290b565b9061293d565b612ea733612ea2612e9a60108590611641565b600090612d51565b612d87565b6000612eb482600a610575565b5001612ee9612ee37f2a108dbe541c8a4a4194af13d4a0019ecaf28c7a5114dd9d41ef22f5a23d1c2e93610e56565b91612e3c565b91612ef2610283565b80612efc81610516565b0390a3565b612f0961268f565b50612f1460096108aa565b90565b612f2990612f23612251565b50613fb4565b90565b90612f5a91612f55612f3d82612f17565b612f4f612f4933610460565b91610460565b146124f9565b612fe0565b565b60007f496e636f72726563742072657761726420616d6f756e74000000000000000000910152565b612f916017602092610358565b612f9a81612f5c565b0190565b612fb49060208101906000818303910152612f84565b90565b15612fbe57565b612fc6610283565b62461bcd60e51b815280612fdc60048201612f9e565b0390fd5b906000808061301c61301782956130123461300c61300661300160086108aa565b61040f565b9161040f565b14612fb7565b612b31565b612b3d565b3490828215613073575bf11561306e576130567f75113e6368d83e83090e246c37475dd7e86920d39b18392d5346cc27f9d57ac591610e56565b9061305f610283565b8061306981610516565b0390a2565b612b55565b506108fc613026565b9061308691612f2c565b565b9061309290610b7e565b600052602052604060002090565b6130a861268f565b50806130c56130bf6130ba60006122aa565b610460565b91610460565b146130e0576130d86130dd916004613088565b6108aa565b90565b61310b6130ed60006122aa565b6130f5610283565b9182916322718ad960e21b835260048301610479565b0390fd5b6131176141f1565b61311f613121565b565b61313361312e60006122aa565b6142af565b565b61313d61310f565b565b9061316d9161316861315082612f17565b61316261315c33610460565b91610460565b146124f9565b613425565b565b90565b61317c90546105b4565b90565b60207f6572656400000000000000000000000000000000000000000000000000000000917f5468697320646f6720686173206e6f7420796574206265656e2072656769737460008201520152565b6131da6024604092610358565b6131e38161317f565b0190565b6131fd90602081019060008183039101526131cd565b90565b1561320757565b61320f610283565b62461bcd60e51b815280613225600482016131e7565b0390fd5b906132339061040f565b9052565b90565b600052602060002090565b5490565b61325281613245565b82101561326d5761326460079161323a565b91020190600090565b610550565b9061331c60c06006613322946132976000820161329160008801612553565b9061242a565b6132b0600182016132aa60208801612553565b9061242a565b6132c9600282016132c360408801612553565b9061242a565b6132e2600382016132dc60608801612635565b90612818565b6132fb600482016132f560808801612635565b90612818565b6133146005820161330e60a08801612635565b90612818565b019201612635565b90612818565b565b91906133355761333391613272565b565b61261f565b908154916801000000000000000083101561336a578261336291600161336895018155613249565b90613324565b565b61068e565b906000929180549061338a613383836105b4565b8094610358565b916001811690816000146133e357506001146133a6575b505050565b6133b391929394506105e7565b916000925b8184106133cb57505001903880806133a1565b600181602092959395548486015201910192906133b8565b92949550505060ff19168252151560200201903880806133a1565b9291602061341b613423936040870190878203600089015261336f565b94019061092d565b565b613460613447613442600061343c600e8690610e72565b0161316f565b613172565b61345a6134546000612d35565b9161040f565b11613200565b61346d4260208401613229565b61348161347a600c613237565b839061333a565b61349b6020600761349384600e610e72565b019301612553565b6134c57f3dca6ab7ec8e5fed14c169c64acc6776072631d2935019bbd0b00626bc5b8e0d92610e56565b926134da6134d1610283565b928392836133fe565b0390a2565b906134e99161313f565b565b6134f3612251565b506134fe60006108d6565b90565b61350961222a565b50613514600261222f565b90565b61352b91613523614031565b919091614355565b565b60007f556e617574686f72697a65640000000000000000000000000000000000000000910152565b613562600c602092610358565b61356b8161352d565b0190565b6135859060208101906000818303910152613555565b90565b1561358f57565b613597610283565b62461bcd60e51b8152806135ad6004820161356f565b0390fd5b90613604906135ff613609946135f76135df6135da6135d260108990611641565b600090612d51565b6108d6565b6135f16135eb33610460565b91610460565b14613588565b936010611641565b611659565b612d87565b565b60007f53656c6c65722063616e6e6f7420627579206f776e20646f6700000000000000910152565b6136406019602092610358565b6136498161360b565b0190565b6136639060208101906000818303910152613633565b90565b1561366d57565b613675610283565b62461bcd60e51b81528061368b6004820161364d565b0390fd5b61369e6136a49193929361040f565b9261040f565b82018092116136af57565b612927565b60007f496e636f7272656374207061796d656e7420616d6f756e740000000000000000910152565b6136e96018602092610358565b6136f2816136b4565b0190565b61370c90602081019060008183039101526136dc565b90565b1561371657565b61371e610283565b62461bcd60e51b815280613734600482016136f6565b0390fd5b906137b99061376261374984612f17565b61375b61375533610460565b91610460565b1415613666565b6137a8346137a261379c61379761377960096108aa565b613791600061378a600b8d90610a56565b50016108aa565b9061368f565b61040f565b9161040f565b1461370f565b6137b183612f17565b908391612bce565b906137ed6137e77ffb1e11a64683772b793e2a2c21dcd7a0d223e665fee037f06867b1c4d0afd09993610e56565b91610e56565b916137f6610283565b8061380081610516565b0390a3565b61380f9051610460565b90565b906138586040600261385e946138376000820161383160008801612635565b90612818565b6138506001820161384a60208801612635565b90612818565b019201612635565b90612818565b565b9061386a91613812565b565b90565b600052602060002090565b5490565b6138878161387a565b8210156138a25761389960039161386f565b91020190600090565b610550565b906138ed604060026138f3946138cc600082016138c660008801612553565b9061242a565b6138e5600182016138df60208801612553565b9061242a565b019201613805565b90612d87565b565b919061390657613904916138a7565b565b61261f565b908154916801000000000000000083101561393b57826139339160016139399501815561387e565b906138f5565b565b61068e565b90916139aa90613981613968613963600061395d600e8890610e72565b0161316f565b613172565b61397b6139756000612d35565b9161040f565b11613200565b61398e4260208601613229565b6139a5601161399f60408701613805565b90610b8a565b613860565b6139be6139b7600d61386c565b839061390b565b6139d8602060076139d084600e610e72565b019301612553565b613a027f4303979ba80a1d68ca0f34324236214a8d0746aea2ce23843d006a6aee7affa192610e56565b92613a17613a0e610283565b928392836133fe565b0390a2565b91613a38939192613a2f818584916122e9565b9290919261452b565b565b90565b5190565b613a49612bb6565b90565b613a5a90613a609392612967565b90612967565b90565b613a829291613a8e91613a74610283565b948592602084019283613a4c565b908103825203836106a4565b565b613a9861222a565b50613aa281613fb4565b50613aab61469a565b90613abd613ab883613a3a565b613a3d565b613ad0613aca6000612d35565b9161040f565b11600014613aef57613ae5613aeb9291614742565b90613a63565b5b90565b5050613af9613a41565b613aec565b90613b0890610b7e565b600052602052604060002090565b90613b2090610b7e565b600052602052604060002090565b60ff1690565b613b40613b459161088d565b613b2e565b90565b613b529054613b34565b90565b613b7a91613b70613b7592613b686121bd565b506006613afe565b613b16565b613b48565b90565b60007f446f67206e616d65206973207265717569726564000000000000000000000000910152565b613bb26014602092610358565b613bbb81613b7d565b0190565b613bd59060208101906000818303910152613ba5565b90565b15613bdf57565b613be7610283565b62461bcd60e51b815280613bfd60048201613bbf565b0390fd5b60207f7265676973746572656400000000000000000000000000000000000000000000917f54686973206d6963726f636869702068617320616c7265616479206265656e2060008201520152565b613c5c602a604092610358565b613c6581613c01565b0190565b613c7f9060208101906000818303910152613c4f565b90565b15613c8957565b613c91610283565b62461bcd60e51b815280613ca760048201613c69565b0390fd5b90613d4092613d29613d3a92613ce8613ccf613cca6000840151613a3a565b613a3d565b613ce2613cdc6000612d35565b9161040f565b11613bd8565b613d23613d0a613d056000613cff600e8a90610e72565b0161316f565b613172565b613d1d613d176000612d35565b9161040f565b14613c82565b8461498d565b613d3560113390610b8a565b613860565b33614a38565b565b90613d7091613d6b613d5383612f17565b613d65613d5f33610460565b91610460565b146124f9565b613e61565b565b90565b613d7f6060610c50565b90565b90613d8c90610460565b9052565b600052602060002090565b5490565b613da881613d9b565b821015613dc357613dba600391613d90565b91020190600090565b610550565b90613e0e60406002613e1494613ded60008201613de760008801612553565b9061242a565b613e0660018201613e0060208801612553565b9061242a565b019201613805565b90612d87565b565b9190613e2757613e2591613dc8565b565b61261f565b9081549168010000000000000000831015613e5c5782613e54916001613e5a95018155613d9f565b90613e16565b565b61068e565b613ea5613e6e600b613d72565b8290613ea085613e973391613e8e613e84613d75565b9660008801613229565b60208601613229565b60408401613d82565b613e2c565b613ec2613eb2600b610a47565b613ebc600161290b565b9061293d565b919091613eef7f8744215d919ec809b68a179db99d10e8ead212b998f09139bca742d2bf2bb00292610e56565b92613f04613efb610283565b928392836129b7565b0390a2565b90613f1391613d42565b565b613f2690613f216141f1565b613f28565b565b80613f44613f3e613f3960006122aa565b610460565b91610460565b14613f5457613f52906142af565b565b613f7f613f6160006122aa565b613f69610283565b918291631e4fbdf760e01b835260048301610479565b0390fd5b613f8c90613f15565b565b613f966121bd565b50613fb0613faa6301ffc9a760e01b610298565b91610298565b1490565b613fbc612251565b50613fc681614a4e565b9081613fe3613fdd613fd860006122aa565b610460565b91610460565b14613fec575090565b61400e90613ff8610283565b918291637e27328960e01b835260048301611329565b0390fd5b61402961402e91614021612251565b506005611659565b6108d6565b90565b614039612251565b503390565b9161404c9291600192614a6d565b565b90614059910361040f565b90565b90614067910161040f565b90565b90614073612251565b5061407d81614a4e565b928061409a61409461408f60006122aa565b610460565b91610460565b036141de575b50826140bd6140b76140b260006122aa565b610460565b91610460565b03614187575b816140df6140d96140d460006122aa565b610460565b91610460565b03614151575b6140fa826140f560038490611659565b612d87565b829161413861413261412c7fddf252ad1be2c89b69c2b068fc378daa952ba7f163c4a11628f55a4df523b3ef95610b7e565b92610b7e565b92610e56565b92614141610283565b8061414b81610516565b0390a490565b61418261415e600161290b565b61417c61416d60048690613088565b91614177836108aa565b61405c565b9061242a565b6140e5565b6141a861419460006122aa565b8261419f60006122aa565b90600092614a6d565b6141d96141b5600161290b565b6141d36141c460048790613088565b916141ce836108aa565b61404e565b9061242a565b6140c3565b6141eb9084908391614be4565b386140a0565b6141f96134eb565b61421261420c614207614031565b610460565b91610460565b0361421957565b614242614224614031565b61422c610283565b91829163118cdaa760e01b835260048301610479565b0390fd5b9291602061426361426b9360408701908782036000890152610390565b94019061092d565b565b906142a86142ad92614299614280610283565b938492600460208501632d839cb360e21b815201614246565b602082018103825203826106a4565b614c70565b565b6142b960006108d6565b6142c4826000612d87565b906142f86142f27f8be0079c531659141344cd1fd0a4f28419497f9722a3daafe3b4186f6b6457e093610b7e565b91610b7e565b91614301610283565b8061430b81610516565b0390a3565b9061431c60ff9161240a565b9181191691161790565b61432f906102e7565b90565b90565b9061434a61434561435192614326565b614332565b8254614310565b9055565b9190918261437461436e61436960006122aa565b610460565b91610460565b146143e8576143988261439361438c60068590613afe565b8690613b16565b614335565b9190916143e36143d16143cb7f17307eab39ab6107e8899845ad3d59bd9653f200f220920489ca2b5937696c3193610b7e565b93610b7e565b936143da610283565b918291826102f9565b0390a3565b61440a836143f4610283565b918291630b61174360e31b835260048301610479565b0390fd5b61441790610b56565b90565b6144239061440e565b90565b61442f90610b72565b90565b60e01b90565b90505190614445826102a4565b565b906020828203126144615761445e91600001614438565b90565b61028e565b60209181520190565b61448e61449760209361449c9361448581613a3d565b93848093614466565b95869101610361565b610386565b0190565b90926144d4906144ca6144e196946144c06080860197600087019061046c565b602085019061046c565b604083019061092d565b606081840391015261446f565b90565b906144f66144f183611b62565b610c50565b918252565b606090565b3d60001461451d576145113d6144e4565b903d6000602084013e5b565b6145256144fb565b9061451b565b929092833b61454361453d6000612d35565b9161040f565b1161454f575b50505050565b60209161459060006145686145638861441a565b614426565b9261459b63150b7a029161457a614031565b9698614584610283565b998a9889978896614432565b8652600486016144a0565b03925af1809160009261466a575b5015600014614620575060016145c457505b38808080614549565b6145cc614500565b906145d682613a3d565b6145e96145e36000612d35565b9161040f565b1460001461461757614613906145fd610283565b918291633250574960e11b835260048301610479565b0390fd5b50805190602001fd5b614639614633630a85bd0160e11b610298565b91610298565b0361464457506145bb565b61466690614650610283565b918291633250574960e11b835260048301610479565b0390fd5b61468c91925060203d8111614693575b61468481836106a4565b810190614447565b90386145a9565b503d61467a565b6146a261222a565b506146ad600761222f565b90565b369037565b906146da6146c2836123a7565b926020806146d08693610c74565b92019103906146b0565b565b60016146e8910361040f565b90565b90565b6147026146fd614707926146eb565b610b53565b61040f565b90565b634e487b7160e01b600052601260045260246000fd5b61472c6147329161040f565b9161040f565b90811561473d570490565b61470a565b61474a61222a565b5061476761475782614df9565b614761600161290b565b9061405c565b90614771826146b5565b9161477a61268f565b5060200182015b6001156147e5576147946147c0916146dc565b916f181899199a1a9b1b9c1cb0b131b232b360811b600a82061a83536147ba600a6146ee565b90614720565b806147d46147ce6000612d35565b9161040f565b146147df5790614781565b50505b90565b50506147e2565b90614931610180600c614937946148126000820161480c60008801612635565b90612818565b61482b6001820161482560208801612635565b90612818565b6148446002820161483e60408801612635565b90612818565b61485d6003820161485760608801612635565b90612818565b6148766004820161487060808801612635565b90612818565b61488f6005820161488960a08801612635565b90612818565b6148a8600682016148a260c08801612635565b90612818565b6148c1600782016148bb60e08801612635565b90612818565b6148db600882016148d56101008801612635565b90612818565b6148f5600982016148ef6101208801612635565b90612818565b61490f600a82016149096101408801612635565b90612818565b614929600b82016149236101608801612635565b90612818565b019201612553565b9061242a565b565b90614943916147ec565b565b94939161498b936149756060936149839361496860808b019260008c019061092d565b89820360208b015261336f565b90878203604089015261336f565b94019061046c565b565b906149a39061499e600e8490610e72565b614939565b8060006149b2600e8490610e72565b01906149cb600c6149c5600e8690610e72565b016108aa565b9260036149e860026149df600e8590610e72565b0192600e610e72565b0193614a3333614a21614a1b7f04d5e19a526c1e7385c0e1ee9cc1c49578c1981c2c4d15f10fdccf6c12dc30f096610e56565b96612e3c565b96614a2a610283565b94859485614945565b0390a3565b90614a4c9190614a46612bc3565b9161505b565b565b614a65614a6a91614a5d612251565b506003611659565b6108d6565b90565b919092808015614b9c575b614a96575b505090614a8f614a9492916005611659565b612d87565b565b614a9f84613fb4565b9180614abc614ab6614ab160006122aa565b610460565b91610460565b141580614b81575b80614b67575b614b41575091614a8f91614a949493614ae6575b509192614a7d565b818490614b25614b1f614b197f8c5be1e5ebec7d5bd14f71427d1e84f3dd0314c0f7b2291e5b200ac8c7c3b92595610b7e565b92610b7e565b92610e56565b92614b2e610283565b80614b3881610516565b0390a438614ade565b614b6390614b4d610283565b91829163a9fbf51f60e01b835260048301610479565b0390fd5b50614b7c614b76848390613b55565b156102e7565b614aca565b5082614b95614b8f83610460565b91610460565b1415614ac4565b5081614bb9614bb3614bae60006122aa565b610460565b91610460565b1415614a78565b916020614be2929493614bdb6040820196600083019061046c565b019061092d565b565b614bf9614bf382848691615081565b156102e7565b614c0257505050565b614c1d614c17614c1260006122aa565b610460565b91610460565b14600014614c4b57614c4782614c31610283565b918291637e27328960e01b835260048301611329565b0390fd5b614c6c614c56610283565b92839263177e802f60e01b845260048401614bc0565b0390fd5b614c8390614c7e600161514e565b615227565b565b90565b614c9c614c97614ca192614c85565b610b53565b61040f565b90565b90565b614cbb614cb6614cc092614ca4565b610b53565b61040f565b90565b90565b614cda614cd5614cdf92614cc3565b610b53565b61040f565b90565b90565b614cf9614cf4614cfe92614ce2565b610b53565b61040f565b90565b90565b614d18614d13614d1d92614d01565b610b53565b61040f565b90565b90565b614d37614d32614d3c92614d20565b610b53565b61040f565b90565b90565b614d56614d51614d5b92614d3f565b610b53565b61040f565b90565b90565b614d75614d70614d7a92614d5e565b610b53565b61040f565b90565b90565b614d94614d8f614d9992614d7d565b610b53565b61040f565b90565b90565b614db3614dae614db892614d9c565b610b53565b61040f565b90565b90565b614dd2614dcd614dd792614dbb565b610b53565b61040f565b90565b90565b614df1614dec614df692614dda565b610b53565b61040f565b90565b614e0161268f565b50614e0c6000612d35565b9080614e3b614e357a184f03e93ff9f4daa797ed6e38ed64bf6a1f010000000000000000614c88565b9161040f565b1015615013575b80614e63614e5d6d04ee2d6d415b85acef8100000000614cc6565b9161040f565b1015614fd8575b80614e84614e7e662386f26fc10000614d04565b9161040f565b1015614fa4575b80614ea2614e9c6305f5e100614d42565b9161040f565b1015614f73575b80614ebe614eb8612710614d80565b9161040f565b1015614f44575b80614ed9614ed36064614dbe565b9161040f565b1015614f16575b614ef3614eed600a6146ee565b9161040f565b1015614efd575b90565b614f1190614f0b600161290b565b9061405c565b614efa565b614f2d614f3e91614f276064614dbe565b90614720565b91614f386002614ddd565b9061405c565b90614ee0565b614f5c614f6d91614f56612710614d80565b90614720565b91614f676004614d9f565b9061405c565b90614ec5565b614f8d614f9e91614f876305f5e100614d42565b90614720565b91614f986008614d61565b9061405c565b90614ea9565b614fc1614fd291614fbb662386f26fc10000614d04565b90614720565b91614fcc6010614d23565b9061405c565b90614e8b565b614ffc61500d91614ff66d04ee2d6d415b85acef8100000000614cc6565b90614720565b916150076020614ce5565b9061405c565b90614e6a565b6150446150559161503e7a184f03e93ff9f4daa797ed6e38ed64bf6a1f010000000000000000614c88565b90614720565b9161504f6040614ca7565b9061405c565b90614e42565b909161507f9261506c83829061515a565b61507660006122aa565b9290919261452b565b565b919061508b6121bd565b50806150a86150a261509d60006122aa565b610460565b91610460565b141592836150b7575b50505090565b80919293506150ce6150c884610460565b91610460565b14908115615110575b509182156150ea575b50503880806150b1565b6151089192506150fc61510291614012565b92610460565b91610460565b1438806150e0565b61511c91508290613b55565b386150d7565b6a636f6e736f6c652e6c6f6790565b6000809161513d615122565b602082519201905afa50565b600090565b615156615149565b5090565b908161517761517161516c60006122aa565b610460565b91610460565b146151e257615191919061518b60006122aa565b9161406a565b6151ac6151a66151a160006122aa565b610460565b91610460565b036151b357565b6151de6151c060006122aa565b6151c8610283565b9182916339e3563760e11b835260048301610479565b0390fd5b61520d6151ef60006122aa565b6151f7610283565b918291633250574960e11b835260048301610479565b0390fd5b634e487b7160e01b600052605160045260246000fd5b6001036152115761523790615131565b56fea2646970667358221220150e770798fb9e58f9d2eae300fbd8939837e31e4108d94fcca94913906e3bac64736f6c63430008180033",
  "linkReferences": {},
  "deployedLinkReferences": {}
}