{
  "_format": "hh-sol-artifact-1",
  "contractName": "DogBase",
  "sourceName": "contracts/DogBase.sol",
  "abi": [
    {
      "inputs": [],
      "stateMutability": "nonpayable",
      "type": "constructor"
    },
    {
      "inputs": [
        {
          "internalType": "address",
          "name": "sender",
          "type": "address"
        },
        {
          "internalType": "uint256",
          "name": "tokenId",
          "type": "uint256"
        },
        {
          "internalType": "address",
          "name": "owner",
          "type": "address"
        }
      ],
      "name": "ERC721IncorrectOwner",
      "type": "error"
    },
    {
      "inputs": [
        {
          "internalType": "address",
          "name": "operator",
          "type": "address"
        },
        {
          "internalType": "uint256",
          "name": "tokenId",
          "type": "uint256"
        }
      ],
      "name": "ERC721InsufficientApproval",
      "type": "error"
    },
    {
      "inputs": [
        {
          "internalType": "address",
          "name": "approver",
          "type": "address"
        }
      ],
      "name": "ERC721InvalidApprover",
      "type": "error"
    },
    {
      "inputs": [
        {
          "internalType": "address",
          "name": "operator",
          "type": "address"
        }
      ],
      "name": "ERC721InvalidOperator",
      "type": "error"
    },
    {
      "inputs": [
        {
          "internalType": "address",
          "name": "owner",
          "type": "address"
        }
      ],
      "name": "ERC721InvalidOwner",
      "type": "error"
    },
    {
      "inputs": [
        {
          "internalType": "address",
          "name": "receiver",
          "type": "address"
        }
      ],
      "name": "ERC721InvalidReceiver",
      "type": "error"
    },
    {
      "inputs": [
        {
          "internalType": "address",
          "name": "sender",
          "type": "address"
        }
      ],
      "name": "ERC721InvalidSender",
      "type": "error"
    },
    {
      "inputs": [
        {
          "internalType": "uint256",
          "name": "tokenId",
          "type": "uint256"
        }
      ],
      "name": "ERC721NonexistentToken",
      "type": "error"
    },
    {
      "inputs": [
        {
          "internalType": "address",
          "name": "owner",
          "type": "address"
        }
      ],
      "name": "OwnableInvalidOwner",
      "type": "error"
    },
    {
      "inputs": [
        {
          "internalType": "address",
          "name": "account",
          "type": "address"
        }
      ],
      "name": "OwnableUnauthorizedAccount",
      "type": "error"
    },
    {
      "anonymous": false,
      "inputs": [
        {
          "indexed": true,
          "internalType": "uint256",
          "name": "vacId",
          "type": "uint256"
        },
        {
          "indexed": true,
          "internalType": "string",
          "name": "name",
          "type": "string"
        },
        {
          "indexed": true,
          "internalType": "uint256",
          "name": "tokenId",
          "type": "uint256"
        }
      ],
      "name": "AddVaccine",
      "type": "event"
    },
    {
      "anonymous": false,
      "inputs": [
        {
          "indexed": true,
          "internalType": "address",
          "name": "owner",
          "type": "address"
        },
        {
          "indexed": true,
          "internalType": "address",
          "name": "approved",
          "type": "address"
        },
        {
          "indexed": true,
          "internalType": "uint256",
          "name": "tokenId",
          "type": "uint256"
        }
      ],
      "name": "Approval",
      "type": "event"
    },
    {
      "anonymous": false,
      "inputs": [
        {
          "indexed": true,
          "internalType": "address",
          "name": "owner",
          "type": "address"
        },
        {
          "indexed": true,
          "internalType": "address",
          "name": "operator",
          "type": "address"
        },
        {
          "indexed": false,
          "internalType": "bool",
          "name": "approved",
          "type": "bool"
        }
      ],
      "name": "ApprovalForAll",
      "type": "event"
    },
    {
      "anonymous": false,
      "inputs": [
        {
          "indexed": true,
          "internalType": "uint256",
          "name": "tokenId",
          "type": "uint256"
        },
        {
          "indexed": true,
          "internalType": "string",
          "name": "name",
          "type": "string"
        }
      ],
      "name": "DogIsFound",
      "type": "event"
    },
    {
      "anonymous": false,
      "inputs": [
        {
          "indexed": true,
          "internalType": "uint256",
          "name": "tokenId",
          "type": "uint256"
        },
        {
          "indexed": true,
          "internalType": "string",
          "name": "name",
          "type": "string"
        }
      ],
      "name": "DogIsLost",
      "type": "event"
    },
    {
      "anonymous": false,
      "inputs": [
        {
          "indexed": true,
          "internalType": "uint256",
          "name": "tokenId",
          "type": "uint256"
        },
        {
          "indexed": true,
          "internalType": "string",
          "name": "name",
          "type": "string"
        }
      ],
      "name": "NewDoge",
      "type": "event"
    },
    {
      "anonymous": false,
      "inputs": [
        {
          "indexed": true,
          "internalType": "address",
          "name": "previousOwner",
          "type": "address"
        },
        {
          "indexed": true,
          "internalType": "address",
          "name": "newOwner",
          "type": "address"
        }
      ],
      "name": "OwnershipTransferred",
      "type": "event"
    },
    {
      "anonymous": false,
      "inputs": [
        {
          "indexed": true,
          "internalType": "address",
          "name": "from",
          "type": "address"
        },
        {
          "indexed": true,
          "internalType": "address",
          "name": "to",
          "type": "address"
        },
        {
          "indexed": true,
          "internalType": "uint256",
          "name": "tokenId",
          "type": "uint256"
        }
      ],
      "name": "Transfer",
      "type": "event"
    },
    {
      "inputs": [
        {
          "internalType": "uint256",
          "name": "_price",
          "type": "uint256"
        },
        {
          "internalType": "uint256",
          "name": "_tokenId",
          "type": "uint256"
        },
        {
          "internalType": "address",
          "name": "_dogOwner",
          "type": "address"
        }
      ],
      "name": "addOrder",
      "outputs": [],
      "stateMutability": "nonpayable",
      "type": "function"
    },
    {
      "inputs": [
        {
          "internalType": "uint256",
          "name": "_tokenId",
          "type": "uint256"
        },
        {
          "components": [
            {
              "internalType": "string",
              "name": "name",
              "type": "string"
            },
            {
              "internalType": "string",
              "name": "supplier",
              "type": "string"
            },
            {
              "internalType": "string",
              "name": "code",
              "type": "string"
            },
            {
              "internalType": "uint256",
              "name": "vetCenterId",
              "type": "uint256"
            },
            {
              "internalType": "uint256",
              "name": "date",
              "type": "uint256"
            },
            {
              "internalType": "uint256",
              "name": "dueDate",
              "type": "uint256"
            }
          ],
          "internalType": "struct DogBase.Vaccine",
          "name": "_vaccine",
          "type": "tuple"
        },
        {
          "internalType": "uint256",
          "name": "_doctorId",
          "type": "uint256"
        }
      ],
      "name": "addVaccine",
      "outputs": [],
      "stateMutability": "nonpayable",
      "type": "function"
    },
    {
      "inputs": [
        {
          "internalType": "address",
          "name": "to",
          "type": "address"
        },
        {
          "internalType": "uint256",
          "name": "tokenId",
          "type": "uint256"
        }
      ],
      "name": "approve",
      "outputs": [],
      "stateMutability": "nonpayable",
      "type": "function"
    },
    {
      "inputs": [
        {
          "internalType": "address",
          "name": "owner",
          "type": "address"
        }
      ],
      "name": "balanceOf",
      "outputs": [
        {
          "internalType": "uint256",
          "name": "",
          "type": "uint256"
        }
      ],
      "stateMutability": "view",
      "type": "function"
    },
    {
      "inputs": [
        {
          "internalType": "string",
          "name": "_uri",
          "type": "string"
        }
      ],
      "name": "changeBaseURI",
      "outputs": [],
      "stateMutability": "nonpayable",
      "type": "function"
    },
    {
      "inputs": [
        {
          "internalType": "uint256",
          "name": "_tokenId",
          "type": "uint256"
        },
        {
          "components": [
            {
              "internalType": "uint256",
              "name": "foundDate",
              "type": "uint256"
            },
            {
              "internalType": "address",
              "name": "foundBy",
              "type": "address"
            }
          ],
          "internalType": "struct DogBase.FoundDog",
          "name": "_foundDog",
          "type": "tuple"
        },
        {
          "components": [
            {
              "internalType": "string",
              "name": "email",
              "type": "string"
            },
            {
              "internalType": "string",
              "name": "cellPhone",
              "type": "string"
            },
            {
              "internalType": "string",
              "name": "otherPhone",
              "type": "string"
            }
          ],
          "internalType": "struct DogBase.Contact",
          "name": "_contact",
          "type": "tuple"
        }
      ],
      "name": "claimDogIsFound",
      "outputs": [],
      "stateMutability": "nonpayable",
      "type": "function"
    },
    {
      "inputs": [
        {
          "internalType": "uint256",
          "name": "_tokenId",
          "type": "uint256"
        },
        {
          "components": [
            {
              "internalType": "uint256",
              "name": "missingDate",
              "type": "uint256"
            },
            {
              "internalType": "uint256",
              "name": "postalCode",
              "type": "uint256"
            },
            {
              "internalType": "string",
              "name": "country",
              "type": "string"
            },
            {
              "internalType": "string",
              "name": "region",
              "type": "string"
            },
            {
              "internalType": "string",
              "name": "city",
              "type": "string"
            },
            {
              "internalType": "string",
              "name": "addr",
              "type": "string"
            }
          ],
          "internalType": "struct DogBase.LostDog",
          "name": "_lostDog",
          "type": "tuple"
        }
      ],
      "name": "claimDogIsLost",
      "outputs": [],
      "stateMutability": "nonpayable",
      "type": "function"
    },
    {
      "inputs": [
        {
          "internalType": "address",
          "name": "",
          "type": "address"
        }
      ],
      "name": "contacts",
      "outputs": [
        {
          "internalType": "string",
          "name": "email",
          "type": "string"
        },
        {
          "internalType": "string",
          "name": "cellPhone",
          "type": "string"
        },
        {
          "internalType": "string",
          "name": "otherPhone",
          "type": "string"
        }
      ],
      "stateMutability": "view",
      "type": "function"
    },
    {
      "inputs": [
        {
          "internalType": "uint256",
          "name": "",
          "type": "uint256"
        }
      ],
      "name": "dogs",
      "outputs": [
        {
          "internalType": "string",
          "name": "name",
          "type": "string"
        },
        {
          "internalType": "string",
          "name": "species",
          "type": "string"
        },
        {
          "internalType": "string",
          "name": "breed",
          "type": "string"
        },
        {
          "internalType": "string",
          "name": "sex",
          "type": "string"
        },
        {
          "internalType": "string",
          "name": "country",
          "type": "string"
        },
        {
          "internalType": "string",
          "name": "region",
          "type": "string"
        },
        {
          "internalType": "string",
          "name": "city",
          "type": "string"
        },
        {
          "internalType": "string",
          "name": "addr",
          "type": "string"
        },
        {
          "internalType": "string",
          "name": "tatoo",
          "type": "string"
        },
        {
          "internalType": "string",
          "name": "color",
          "type": "string"
        },
        {
          "internalType": "string",
          "name": "photo",
          "type": "string"
        },
        {
          "internalType": "string",
          "name": "postalCode",
          "type": "string"
        },
        {
          "internalType": "uint256",
          "name": "birthday",
          "type": "uint256"
        }
      ],
      "stateMutability": "view",
      "type": "function"
    },
    {
      "inputs": [
        {
          "internalType": "uint256",
          "name": "",
          "type": "uint256"
        },
        {
          "internalType": "uint256",
          "name": "",
          "type": "uint256"
        }
      ],
      "name": "foundDogs",
      "outputs": [
        {
          "internalType": "uint256",
          "name": "foundDate",
          "type": "uint256"
        },
        {
          "internalType": "address",
          "name": "foundBy",
          "type": "address"
        }
      ],
      "stateMutability": "view",
      "type": "function"
    },
    {
      "inputs": [
        {
          "internalType": "uint256",
          "name": "tokenId",
          "type": "uint256"
        }
      ],
      "name": "getApproved",
      "outputs": [
        {
          "internalType": "address",
          "name": "",
          "type": "address"
        }
      ],
      "stateMutability": "view",
      "type": "function"
    },
    {
      "inputs": [],
      "name": "getMarketFee",
      "outputs": [
        {
          "internalType": "uint256",
          "name": "",
          "type": "uint256"
        }
      ],
      "stateMutability": "view",
      "type": "function"
    },
    {
      "inputs": [
        {
          "internalType": "address",
          "name": "owner",
          "type": "address"
        },
        {
          "internalType": "address",
          "name": "operator",
          "type": "address"
        }
      ],
      "name": "isApprovedForAll",
      "outputs": [
        {
          "internalType": "bool",
          "name": "",
          "type": "bool"
        }
      ],
      "stateMutability": "view",
      "type": "function"
    },
    {
      "inputs": [
        {
          "internalType": "uint256",
          "name": "",
          "type": "uint256"
        },
        {
          "internalType": "uint256",
          "name": "",
          "type": "uint256"
        }
      ],
      "name": "lostDogs",
      "outputs": [
        {
          "internalType": "uint256",
          "name": "missingDate",
          "type": "uint256"
        },
        {
          "internalType": "uint256",
          "name": "postalCode",
          "type": "uint256"
        },
        {
          "internalType": "string",
          "name": "country",
          "type": "string"
        },
        {
          "internalType": "string",
          "name": "region",
          "type": "string"
        },
        {
          "internalType": "string",
          "name": "city",
          "type": "string"
        },
        {
          "internalType": "string",
          "name": "addr",
          "type": "string"
        }
      ],
      "stateMutability": "view",
      "type": "function"
    },
    {
      "inputs": [
        {
          "internalType": "uint256",
          "name": "",
          "type": "uint256"
        }
      ],
      "name": "market",
      "outputs": [
        {
          "internalType": "uint256",
          "name": "price",
          "type": "uint256"
        },
        {
          "internalType": "uint256",
          "name": "tokenId",
          "type": "uint256"
        },
        {
          "internalType": "address",
          "name": "dogOwner",
          "type": "address"
        }
      ],
      "stateMutability": "view",
      "type": "function"
    },
    {
      "inputs": [],
      "name": "name",
      "outputs": [
        {
          "internalType": "string",
          "name": "",
          "type": "string"
        }
      ],
      "stateMutability": "view",
      "type": "function"
    },
    {
      "inputs": [],
      "name": "owner",
      "outputs": [
        {
          "internalType": "address",
          "name": "",
          "type": "address"
        }
      ],
      "stateMutability": "view",
      "type": "function"
    },
    {
      "inputs": [
        {
          "internalType": "uint256",
          "name": "tokenId",
          "type": "uint256"
        }
      ],
      "name": "ownerOf",
      "outputs": [
        {
          "internalType": "address",
          "name": "",
          "type": "address"
        }
      ],
      "stateMutability": "view",
      "type": "function"
    },
    {
      "inputs": [
        {
          "internalType": "uint256",
          "name": "_tokenId",
          "type": "uint256"
        },
        {
          "internalType": "address",
          "name": "_foundBy",
          "type": "address"
        }
      ],
      "name": "payReward",
      "outputs": [],
      "stateMutability": "payable",
      "type": "function"
    },
    {
      "inputs": [
        {
          "internalType": "uint256",
          "name": "_chip",
          "type": "uint256"
        },
        {
          "components": [
            {
              "internalType": "string",
              "name": "name",
              "type": "string"
            },
            {
              "internalType": "string",
              "name": "species",
              "type": "string"
            },
            {
              "internalType": "string",
              "name": "breed",
              "type": "string"
            },
            {
              "internalType": "string",
              "name": "sex",
              "type": "string"
            },
            {
              "internalType": "string",
              "name": "country",
              "type": "string"
            },
            {
              "internalType": "string",
              "name": "region",
              "type": "string"
            },
            {
              "internalType": "string",
              "name": "city",
              "type": "string"
            },
            {
              "internalType": "string",
              "name": "addr",
              "type": "string"
            },
            {
              "internalType": "string",
              "name": "tatoo",
              "type": "string"
            },
            {
              "internalType": "string",
              "name": "color",
              "type": "string"
            },
            {
              "internalType": "string",
              "name": "photo",
              "type": "string"
            },
            {
              "internalType": "string",
              "name": "postalCode",
              "type": "string"
            },
            {
              "internalType": "uint256",
              "name": "birthday",
              "type": "uint256"
            }
          ],
          "internalType": "struct DogBase.Dog",
          "name": "_dog",
          "type": "tuple"
        },
        {
          "components": [
            {
              "internalType": "string",
              "name": "email",
              "type": "string"
            },
            {
              "internalType": "string",
              "name": "cellPhone",
              "type": "string"
            },
            {
              "internalType": "string",
              "name": "otherPhone",
              "type": "string"
            }
          ],
          "internalType": "struct DogBase.Contact",
          "name": "_contact",
          "type": "tuple"
        }
      ],
      "name": "regDoge",
      "outputs": [],
      "stateMutability": "nonpayable",
      "type": "function"
    },
    {
      "inputs": [
        {
          "components": [
            {
              "internalType": "string",
              "name": "name",
              "type": "string"
            },
            {
              "internalType": "string",
              "name": "country",
              "type": "string"
            },
            {
              "internalType": "string",
              "name": "region",
              "type": "string"
            },
            {
              "internalType": "string",
              "name": "city",
              "type": "string"
            },
            {
              "internalType": "string",
              "name": "addr",
              "type": "string"
            },
            {
              "internalType": "string",
              "name": "email",
              "type": "string"
            },
            {
              "internalType": "string",
              "name": "phone",
              "type": "string"
            },
            {
              "internalType": "string",
              "name": "postalCode",
              "type": "string"
            }
          ],
          "internalType": "struct DogBase.VetCenter",
          "name": "_vetCenter",
          "type": "tuple"
        }
      ],
      "name": "regVetCenter",
      "outputs": [],
      "stateMutability": "nonpayable",
      "type": "function"
    },
    {
      "inputs": [
        {
          "internalType": "uint256",
          "name": "_vetCenterId",
          "type": "uint256"
        },
        {
          "internalType": "uint256",
          "name": "_doctorId",
          "type": "uint256"
        },
        {
          "internalType": "address",
          "name": "_doctor",
          "type": "address"
        }
      ],
      "name": "regVetCenterOfficial",
      "outputs": [],
      "stateMutability": "nonpayable",
      "type": "function"
    },
    {
      "inputs": [],
      "name": "renounceOwnership",
      "outputs": [],
      "stateMutability": "nonpayable",
      "type": "function"
    },
    {
      "inputs": [
        {
          "internalType": "address",
          "name": "from",
          "type": "address"
        },
        {
          "internalType": "address",
          "name": "to",
          "type": "address"
        },
        {
          "internalType": "uint256",
          "name": "tokenId",
          "type": "uint256"
        }
      ],
      "name": "safeTransferFrom",
      "outputs": [],
      "stateMutability": "nonpayable",
      "type": "function"
    },
    {
      "inputs": [
        {
          "internalType": "address",
          "name": "from",
          "type": "address"
        },
        {
          "internalType": "address",
          "name": "to",
          "type": "address"
        },
        {
          "internalType": "uint256",
          "name": "tokenId",
          "type": "uint256"
        },
        {
          "internalType": "bytes",
          "name": "data",
          "type": "bytes"
        }
      ],
      "name": "safeTransferFrom",
      "outputs": [],
      "stateMutability": "nonpayable",
      "type": "function"
    },
    {
      "inputs": [
        {
          "internalType": "address",
          "name": "operator",
          "type": "address"
        },
        {
          "internalType": "bool",
          "name": "approved",
          "type": "bool"
        }
      ],
      "name": "setApprovalForAll",
      "outputs": [],
      "stateMutability": "nonpayable",
      "type": "function"
    },
    {
      "inputs": [
        {
          "internalType": "uint256",
          "name": "_fee",
          "type": "uint256"
        }
      ],
      "name": "setLostFoundFee",
      "outputs": [],
      "stateMutability": "nonpayable",
      "type": "function"
    },
    {
      "inputs": [
        {
          "internalType": "uint256",
          "name": "_fee",
          "type": "uint256"
        }
      ],
      "name": "setMarketFee",
      "outputs": [],
      "stateMutability": "nonpayable",
      "type": "function"
    },
    {
      "inputs": [
        {
          "internalType": "bytes4",
          "name": "interfaceId",
          "type": "bytes4"
        }
      ],
      "name": "supportsInterface",
      "outputs": [
        {
          "internalType": "bool",
          "name": "",
          "type": "bool"
        }
      ],
      "stateMutability": "view",
      "type": "function"
    },
    {
      "inputs": [],
      "name": "symbol",
      "outputs": [
        {
          "internalType": "string",
          "name": "",
          "type": "string"
        }
      ],
      "stateMutability": "view",
      "type": "function"
    },
    {
      "inputs": [
        {
          "internalType": "uint256",
          "name": "tokenId",
          "type": "uint256"
        }
      ],
      "name": "tokenURI",
      "outputs": [
        {
          "internalType": "string",
          "name": "",
          "type": "string"
        }
      ],
      "stateMutability": "view",
      "type": "function"
    },
    {
      "inputs": [
        {
          "internalType": "address",
          "name": "from",
          "type": "address"
        },
        {
          "internalType": "address",
          "name": "to",
          "type": "address"
        },
        {
          "internalType": "uint256",
          "name": "tokenId",
          "type": "uint256"
        }
      ],
      "name": "transferFrom",
      "outputs": [],
      "stateMutability": "nonpayable",
      "type": "function"
    },
    {
      "inputs": [
        {
          "internalType": "address",
          "name": "newOwner",
          "type": "address"
        }
      ],
      "name": "transferOwnership",
      "outputs": [],
      "stateMutability": "nonpayable",
      "type": "function"
    },
    {
      "inputs": [
        {
          "internalType": "uint256",
          "name": "",
          "type": "uint256"
        },
        {
          "internalType": "uint256",
          "name": "",
          "type": "uint256"
        }
      ],
      "name": "vaccines",
      "outputs": [
        {
          "internalType": "string",
          "name": "name",
          "type": "string"
        },
        {
          "internalType": "string",
          "name": "supplier",
          "type": "string"
        },
        {
          "internalType": "string",
          "name": "code",
          "type": "string"
        },
        {
          "internalType": "uint256",
          "name": "vetCenterId",
          "type": "uint256"
        },
        {
          "internalType": "uint256",
          "name": "date",
          "type": "uint256"
        },
        {
          "internalType": "uint256",
          "name": "dueDate",
          "type": "uint256"
        }
      ],
      "stateMutability": "view",
      "type": "function"
    },
    {
      "inputs": [
        {
          "internalType": "uint256",
          "name": "",
          "type": "uint256"
        },
        {
          "internalType": "uint256",
          "name": "",
          "type": "uint256"
        }
      ],
      "name": "vetCenterOfficials",
      "outputs": [
        {
          "internalType": "address",
          "name": "",
          "type": "address"
        }
      ],
      "stateMutability": "view",
      "type": "function"
    },
    {
      "inputs": [
        {
          "internalType": "uint256",
          "name": "",
          "type": "uint256"
        }
      ],
      "name": "vetCenters",
      "outputs": [
        {
          "internalType": "string",
          "name": "name",
          "type": "string"
        },
        {
          "internalType": "string",
          "name": "country",
          "type": "string"
        },
        {
          "internalType": "string",
          "name": "region",
          "type": "string"
        },
        {
          "internalType": "string",
          "name": "city",
          "type": "string"
        },
        {
          "internalType": "string",
          "name": "addr",
          "type": "string"
        },
        {
          "internalType": "string",
          "name": "email",
          "type": "string"
        },
        {
          "internalType": "string",
          "name": "phone",
          "type": "string"
        },
        {
          "internalType": "string",
          "name": "postalCode",
          "type": "string"
        }
      ],
      "stateMutability": "view",
      "type": "function"
    },
    {
      "inputs": [],
      "name": "withdraw",
      "outputs": [],
      "stateMutability": "nonpayable",
      "type": "function"
    }
  ],
  "bytecode": "0x6080604052346200002d576200001462000186565b6200001e62000033565b614cea6200080c8239614cea90f35b62000039565b60405190565b600080fd5b601f801991011690565b634e487b7160e01b600052604160045260246000fd5b906200006a906200003e565b810190811060018060401b038211176200008357604052565b62000048565b90620000a06200009862000033565b92836200005e565b565b60018060401b038111620000c157620000bd6020916200003e565b0190565b62000048565b90620000dd620000d783620000a2565b62000089565b918252565b60007f446f6742617365546f6b656e0000000000000000000000000000000000000000910152565b62000116600c620000c7565b906200012560208301620000e2565b565b620001316200010a565b90565b60007f4442540000000000000000000000000000000000000000000000000000000000910152565b620001686003620000c7565b90620001776020830162000134565b565b620001836200015c565b90565b620001a66200019462000127565b6200019e62000179565b3391620003bf565b565b634e487b7160e01b600052602260045260246000fd5b9060016002830492168015620001e1575b6020831014620001db57565b620001a8565b91607f1691620001cf565b600052602060002090565b601f602091010490565b1b90565b91906008620002259102916200021e6000198462000201565b9262000201565b9181191691161790565b90565b90565b6200024e6200024862000254926200022f565b62000232565b6200022f565b90565b90565b9190620002756200026f6200027e9362000235565b62000257565b90835462000205565b9055565b600090565b6200029d916200029662000282565b916200025a565b565b5b818110620002ac575050565b80620002bc600060019362000287565b01620002a0565b9190601f8111620002d4575b505050565b620002e36200030e93620001ec565b906020620002f184620001f7565b8301931062000317575b6200030690620001f7565b01906200029f565b388080620002cf565b91506200030681929050620002fb565b620003406000620003398354620001be565b83620002c3565b600080019055565b620003539062000327565b565b60001b90565b906200036a6000199162000355565b9181191691161790565b90565b620003906200038a620003969262000374565b62000232565b6200022f565b90565b90620003b3620003ad620003bb9262000377565b62000257565b82546200035b565b9055565b90620003cc929162000598565b620003d8600762000348565b620003ec66038d7ea4c68000600862000399565b6200040066038d7ea4c68000600962000399565b565b5190565b600052602060002090565b9190601f811162000422575b505050565b620004316200045c9362000406565b9060206200043f84620001f7565b8301931062000465575b6200045490620001f7565b01906200029f565b3880806200041d565b9150620004548192905062000449565b1c90565b906200048c906000199060080262000475565b191690565b816200049d9162000479565b906002021790565b90620004b18162000402565b9060018060401b0382116200058457620004d882620004d18554620001be565b8562000411565b602090601f83116001146200051257918091620005009360009262000505575b505062000491565b90555b565b90915001513880620004f8565b601f19831691620005238562000406565b9260005b8181106200056b575091600293918560019694106200054e575b5050500201905562000503565b62000560910151601f84169062000479565b905538808062000541565b9193602060018192878701518155019501920162000527565b62000048565b906200059691620004a5565b565b620005b490620005ac620005bc94620005be565b60016200058a565b60026200058a565b565b620005c990620005cb565b565b620005d690620005d8565b565b620005e390620005e5565b565b620005f090620005f2565b565b620005fd9062000672565b565b90565b60018060a01b031690565b62000626620006206200062c92620005ff565b62000232565b62000602565b90565b6200063a906200060d565b90565b620006489062000602565b90565b62000656906200063d565b9052565b919062000670906000602085019401906200064b565b565b80620006946200068d6200068760006200062f565b6200063d565b916200063d565b14620006a757620006a5906200079e565b565b620006d8620006b760006200062f565b620006c162000033565b918291631e4fbdf760e01b8352600483016200065a565b0390fd5b60001c90565b60018060a01b031690565b620006fc6200070291620006dc565b620006e2565b90565b620007119054620006ed565b90565b906200072760018060a01b039162000355565b9181191691161790565b6200074a62000744620007509262000602565b62000232565b62000602565b90565b6200075e9062000731565b90565b6200076c9062000753565b90565b90565b906200078c62000786620007949262000761565b6200076f565b825462000714565b9055565b60000190565b620007aa600062000705565b620007b782600062000772565b90620007ef620007e87f8be0079c531659141344cd1fd0a4f28419497f9722a3daafe3b4186f6b6457e09362000761565b9162000761565b91620007fa62000033565b80620008068162000798565b0390a356fe60806040526004361015610013575b61215f565b61001e60003561026d565b806301ffc9a71461026857806306fdde0314610263578063081812fc1461025e578063095ea7b3146102595780630ae8b0c2146102545780631e17d17f1461024f57806323b872dd1461024a57806326b825d21461024557806328861d221461024057806329a7b04b1461023b5780632c1352cf146102365780633596771614610231578063382723561461022c57806339a0c6f9146102275780633ccfd60b1461022257806342842e0e1461021d57806348324017146102185780635e123add146102135780636352211e1461020e5780636515d6c11461020957806370a0823114610204578063715018a6146101ff5780637557ef44146101fa5780638da5cb5b146101f55780638e9e3cad146101f057806395d89b41146101eb578063a076310c146101e6578063a22cb465146101e1578063a8f5ddd4146101dc578063b88d4fde146101d7578063bb9b506e146101d2578063c40e21c0146101cd578063c87b56dd146101c8578063d5d44330146101c3578063e985e9c5146101be578063f1214058146101b95763f2fde38b0361000e5761212c565b6120f8565b611e24565b611dc2565b611d8d565b611d50565b611be8565b611a82565b611972565b611903565b611874565b611708565b6116d2565b611621565b6115ed565b61148c565b611457565b61142d565b6113ca565b611395565b61134c565b611173565b611140565b61110d565b611092565b610e94565b610c85565b610b76565b610b3e565b610a56565b610a22565b6109b0565b610806565b61050c565b61047f565b6103ca565b6102ff565b60e01c90565b60405190565b600080fd5b600080fd5b600080fd5b63ffffffff60e01b1690565b61029d81610288565b036102a457565b600080fd5b905035906102b682610294565b565b906020828203126102d2576102cf916000016102a9565b90565b61027e565b151590565b6102e5906102d7565b9052565b91906102fd906000602085019401906102dc565b565b3461032f5761032b61031a6103153660046102b8565b612169565b610322610273565b918291826102e9565b0390f35b610279565b600091031261033f57565b61027e565b5190565b60209181520190565b60005b838110610365575050906000910152565b806020918301518185015201610354565b601f801991011690565b61039f6103a86020936103ad9361039681610344565b93848093610348565b95869101610351565b610376565b0190565b6103c79160208201916000818403910152610380565b90565b346103fa576103da366004610334565b6103f66103e56121e2565b6103ed610273565b918291826103b1565b0390f35b610279565b90565b61040b816103ff565b0361041257565b600080fd5b9050359061042482610402565b565b906020828203126104405761043d91600001610417565b90565b61027e565b60018060a01b031690565b61045990610445565b90565b61046590610450565b9052565b919061047d9060006020850194019061045c565b565b346104af576104ab61049a610495366004610426565b6121fd565b6104a2610273565b91829182610469565b0390f35b610279565b6104bd81610450565b036104c457565b600080fd5b905035906104d6826104b4565b565b919060408382031261050157806104f56104fe92600086016104c9565b93602001610417565b90565b61027e565b60000190565b3461053b5761052561051f3660046104d8565b9061221c565b61052d610273565b8061053781610506565b0390f35b610279565b634e487b7160e01b600052603260045260246000fd5b5490565b600052602060002090565b61056e81610556565b8210156105895761058060089161055a565b91020190600090565b610540565b634e487b7160e01b600052602260045260246000fd5b90600160028304921680156105c4575b60208310146105bf57565b61058e565b91607f16916105b4565b60209181520190565b600052602060002090565b90600092918054906105fd6105f6836105a4565b80946105ce565b916001811690816000146106565750600114610619575b505050565b61062691929394506105d7565b916000925b81841061063e5750500190388080610614565b6001816020929593955484860152019101929061062b565b92949550505060ff1916825215156020020190388080610614565b9061067b916105e2565b90565b634e487b7160e01b600052604160045260246000fd5b9061069e90610376565b810190811067ffffffffffffffff8211176106b857604052565b61067e565b906106dd6106d6926106cd610273565b93848092610671565b0383610694565b565b600a906106eb82610556565b811015610766576106fb91610565565b5090610709600083016106bd565b91610716600182016106bd565b91610723600283016106bd565b91610730600382016106bd565b9161073d600483016106bd565b9161074a600582016106bd565b91610763600761075c600685016106bd565b93016106bd565b90565b600080fd5b9693946107cb6107f5966107bd6107e7966107ae8c6108039e9c986107a06107d9996101008401908482036000860152610380565b916020818403910152610380565b908c6040818403910152610380565b908a820360608c0152610380565b9088820360808a0152610380565b9086820360a0880152610380565b9084820360c0860152610380565b9160e0818403910152610380565b90565b346108405761083c61082161081c366004610426565b6106df565b94610833989698949194939293610273565b9889988961076b565b0390f35b610279565b919060408382031261086e578061086261086b9260008601610417565b93602001610417565b90565b61027e565b90565b61088a61088561088f926103ff565b610873565b6103ff565b90565b9061089c90610876565b600052602052604060002090565b5490565b600052602060002090565b6108c2816108aa565b8210156108dd576108d46002916108ae565b91020190600090565b610540565b60001c90565b90565b6108f76108fc916108e2565b6108e8565b90565b61090990546108eb565b90565b60018060a01b031690565b610923610928916108e2565b61090c565b90565b6109359054610917565b90565b61094390600e610892565b9061094d826108aa565b81101561097a5761095d916108b9565b50906109776001610970600085016108ff565b930161092b565b90565b600080fd5b610988906103ff565b9052565b9160206109ae9294936109a76040820196600083019061097f565b019061045c565b565b346109e2576109c96109c3366004610845565b90610938565b906109de6109d5610273565b9283928361098c565b0390f35b610279565b9091606082840312610a1d57610a1a610a0384600085016104c9565b93610a1181602086016104c9565b93604001610417565b90565b61027e565b34610a5157610a3b610a353660046109e7565b91612290565b610a43610273565b80610a4d81610506565b0390f35b610279565b34610a8457610a6e610a69366004610426565b61240f565b610a76610273565b80610a8081610506565b0390f35b610279565b5490565b600052602060002090565b610aa181610a89565b821015610abc57610ab3600391610a8d565b91020190600090565b610540565b600b90610acd82610a89565b811015610b0657610add91610a98565b50610aea600082016108ff565b91610b036002610afc600185016108ff565b930161092b565b90565b600080fd5b604090610b35610b3c9496959396610b2b6060840198600085019061097f565b602083019061097f565b019061045c565b565b34610b7157610b6d610b59610b54366004610426565b610ac1565b610b64939193610273565b93849384610b0b565b0390f35b610279565b34610ba457610b8e610b89366004610426565b61243a565b610b96610273565b80610ba081610506565b0390f35b610279565b90602082820312610bc357610bc0916000016104c9565b90565b61027e565b610bdc610bd7610be192610445565b610873565b610445565b90565b610bed90610bc8565b90565b610bf990610be4565b90565b90610c0690610bf0565b600052602052604060002090565b610c1f906011610bfc565b610c2b600082016106bd565b91610c446002610c3d600185016106bd565b93016106bd565b90565b91610c7490610c66610c82959360608601908682036000880152610380565b908482036020860152610380565b916040818403910152610380565b90565b34610cb857610cb4610ca0610c9b366004610ba9565b610c14565b610cab939193610273565b93849384610c47565b0390f35b610279565b600080fd5b90610cd5610cce610273565b9283610694565b565b600080fd5b600080fd5b600080fd5b67ffffffffffffffff8111610d0457610d00602091610376565b0190565b61067e565b90826000939282370152565b90929192610d2a610d2582610ce6565b610cc2565b93818552602085019082840111610d4657610d4492610d09565b565b610ce1565b9080601f83011215610d6957816020610d6693359101610d15565b90565b610cdc565b91909160c081840312610e3b57610d8560c0610cc2565b92600082013567ffffffffffffffff8111610e365781610da6918401610d4b565b6000850152602082013567ffffffffffffffff8111610e315781610dcb918401610d4b565b602085015260408201359167ffffffffffffffff8311610e2c57610df482610e25948301610d4b565b6040860152610e068260608301610417565b6060860152610e188260808301610417565b608086015260a001610417565b60a0830152565b610cd7565b610cd7565b610cd7565b610cbd565b9091606082840312610e8f57610e598360008401610417565b9260208301359067ffffffffffffffff8211610e8a57610e7e81610e87938601610d6e565b93604001610417565b90565b610283565b61027e565b34610ec357610ead610ea7366004610e40565b9161292b565b610eb5610273565b80610ebf81610506565b0390f35b610279565b90610ed290610876565b600052602052604060002090565b610eeb90600c610ec8565b610ef7600082016106bd565b91610f04600183016106bd565b91610f11600282016106bd565b91610f1e600383016106bd565b91610f2b600482016106bd565b91610f38600583016106bd565b91610f45600682016106bd565b91610f52600783016106bd565b91610f5f600882016106bd565b91610f6c600983016106bd565b91610f79600a82016106bd565b91610f92600c610f8b600b85016106bd565b93016108ff565b90565b6110909c98819f9e9c976110799961102f61103d926101809f996110889f989b6110136110219261100561106a9f9d610ff661105b9f8d9061104b9f610fe8906101a08401908482036000860152610380565b916020818403910152610380565b908c6040818403910152610380565b908a820360608c0152610380565b9088820360808a0152610380565b9086820360a0880152610380565b9084820360c0860152610380565b9160e0818403910152610380565b908d610100818403910152610380565b908b82036101208d0152610380565b908982036101408b0152610380565b90878203610160890152610380565b94019061097f565b565b346110d2576110ce6110ad6110a8366004610426565b610ee0565b996110c59d9b9d999199989298979397969496610273565b9d8e9d8e610f95565b0390f35b610279565b9060208282031261110857600082013567ffffffffffffffff8111611103576111009201610d4b565b90565b610283565b61027e565b3461113b576111256111203660046110d7565b612958565b61112d610273565b8061113781610506565b0390f35b610279565b3461116e57611150366004610334565b6111586129fc565b611160610273565b8061116a81610506565b0390f35b610279565b346111a25761118c6111863660046109e7565b91612a1e565b611194610273565b8061119e81610506565b0390f35b610279565b91909161010081840312611311576111c0610100610cc2565b92600082013567ffffffffffffffff811161130c57816111e1918401610d4b565b6000850152602082013567ffffffffffffffff81116113075781611206918401610d4b565b6020850152604082013567ffffffffffffffff8111611302578161122b918401610d4b565b6040850152606082013567ffffffffffffffff81116112fd5781611250918401610d4b565b6060850152608082013567ffffffffffffffff81116112f85781611275918401610d4b565b608085015260a082013567ffffffffffffffff81116112f3578161129a918401610d4b565b60a085015260c082013567ffffffffffffffff81116112ee57816112bf918401610d4b565b60c085015260e082013567ffffffffffffffff81116112e9576112e29201610d4b565b60e0830152565b610cd7565b610cd7565b610cd7565b610cd7565b610cd7565b610cd7565b610cd7565b610cd7565b610cbd565b9060208282031261134757600082013567ffffffffffffffff81116113425761133f92016111a7565b90565b610283565b61027e565b3461137a5761136461135f366004611316565b612c43565b61136c610273565b8061137681610506565b0390f35b610279565b91906113939060006020850194019061097f565b565b346113c5576113a5366004610334565b6113c16113b0612cc3565b6113b8610273565b9182918261137f565b0390f35b610279565b346113fa576113f66113e56113e0366004610426565b612cd9565b6113ed610273565b91829182610469565b0390f35b610279565b9190604083820312611428578061141c6114259260008601610417565b936020016104c9565b90565b61027e565b61144161143b3660046113ff565b90612d60565b611449610273565b8061145381610506565b0390f35b346114875761148361147261146d366004610ba9565b612d84565b61147a610273565b9182918261137f565b0390f35b610279565b346114ba5761149c366004610334565b6114a4612e19565b6114ac610273565b806114b681610506565b0390f35b610279565b91906040838203126114fb576114f4906114d96040610cc2565b936114e78260008301610417565b60008601526020016104c9565b6020830152565b610cbd565b919091606081840312611596576115176060610cc2565b92600082013567ffffffffffffffff81116115915781611538918401610d4b565b6000850152602082013567ffffffffffffffff811161158c578161155d918401610d4b565b6020850152604082013567ffffffffffffffff8111611587576115809201610d4b565b6040830152565b610cd7565b610cd7565b610cd7565b610cbd565b916080838303126115e8576115b38260008501610417565b926115c183602083016114bf565b92606082013567ffffffffffffffff81116115e3576115e09201611500565b90565b610283565b61027e565b3461161c5761160661160036600461159b565b916130bd565b61160e610273565b8061161881610506565b0390f35b610279565b3461165157611631366004610334565b61164d61163c61319c565b611644610273565b91829182610469565b0390f35b610279565b9061166090610876565b600052602052604060002090565b9061167890610876565b600052602052604060002090565b1c90565b61169a90600861169f9302611686565b61090c565b90565b906116ad915461168a565b90565b6116ca6116cf926116c5601093600094611656565b61166e565b6116a2565b90565b34611703576116ff6116ee6116e8366004610845565b906116b0565b6116f6610273565b91829182610469565b0390f35b610279565b3461173857611718366004610334565b6117346117236131b2565b61172b610273565b918291826103b1565b0390f35b610279565b9061174790610876565b600052602052604060002090565b5490565b600052602060002090565b61176d81611755565b8210156117885761177f600691611759565b91020190600090565b610540565b61179890600d61173d565b906117a282611755565b811015611803576117b291611764565b50906117c0600083016108ff565b916117cd600182016108ff565b916117da600283016106bd565b916117e7600382016106bd565b9161180060056117f9600485016106bd565b93016106bd565b90565b600080fd5b949193611847611855926118639561183a6118719a9861183060c08c019460008d019061097f565b60208b019061097f565b88820360408a0152610380565b908682036060880152610380565b908482036080860152610380565b9160a0818403910152610380565b90565b346118ac576118a861189061188a366004610845565b9061178d565b9261189f969496929192610273565b96879687611808565b0390f35b610279565b6118ba816102d7565b036118c157565b600080fd5b905035906118d3826118b1565b565b91906040838203126118fe57806118f26118fb92600086016104c9565b936020016118c6565b90565b61027e565b346119325761191c6119163660046118d5565b906131c8565b611924610273565b8061192e81610506565b0390f35b610279565b909160608284031261196d5761196a6119538460008501610417565b936119618160208601610417565b936040016104c9565b90565b61027e565b346119a15761198b611985366004611937565b916131de565b611993610273565b8061199d81610506565b0390f35b610279565b67ffffffffffffffff81116119c4576119c0602091610376565b0190565b61067e565b909291926119de6119d9826119a6565b610cc2565b938185526020850190828401116119fa576119f892610d09565b565b610ce1565b9080601f83011215611a1d57816020611a1a933591016119c9565b90565b610cdc565b90608082820312611a7d57611a3a81600084016104c9565b92611a4882602085016104c9565b92611a568360408301610417565b92606082013567ffffffffffffffff8111611a7857611a7592016119ff565b90565b610283565b61027e565b34611ab457611a9e611a95366004611a22565b92919091613238565b611aa6610273565b80611ab081610506565b0390f35b610279565b91909160c081840312611b9d57611ad060c0610cc2565b92611ade8160008401610417565b6000850152611af08160208401610417565b6020850152604082013567ffffffffffffffff8111611b985781611b15918401610d4b565b6040850152606082013567ffffffffffffffff8111611b935781611b3a918401610d4b565b6060850152608082013567ffffffffffffffff8111611b8e5781611b5f918401610d4b565b608085015260a082013567ffffffffffffffff8111611b8957611b829201610d4b565b60a0830152565b610cd7565b610cd7565b610cd7565b610cd7565b610cbd565b919091604081840312611be357611bbc8360008301610417565b92602082013567ffffffffffffffff8111611bde57611bdb9201611ab9565b90565b610283565b61027e565b34611c1757611c01611bfb366004611ba2565b906134a6565b611c09610273565b80611c1381610506565b0390f35b610279565b90611c2690610876565b600052602052604060002090565b5490565b600052602060002090565b611c4c81611c34565b821015611c6757611c5e600691611c38565b91020190600090565b610540565b611c7790600f611c1c565b90611c8182611c34565b811015611ce257611c9191611c43565b5090611c9f600083016106bd565b91611cac600182016106bd565b91611cb9600283016106bd565b91611cc6600382016108ff565b91611cdf6005611cd8600485016108ff565b93016108ff565b90565b600080fd5b9194611d3d611d3260a095611d24611d4e99611d16611d47979d9c9a9d60c08a01908a820360008c0152610380565b9088820360208a0152610380565b908682036040880152610380565b98606085019061097f565b608083019061097f565b019061097f565b565b34611d8857611d84611d6c611d66366004610845565b90611c6c565b92611d7b969496929192610273565b96879687611ce7565b0390f35b610279565b34611dbd57611db9611da8611da3366004610426565b613508565b611db0610273565b918291826103b1565b0390f35b610279565b34611df157611ddb611dd5366004611937565b916136c0565b611de3610273565b80611ded81610506565b0390f35b610279565b9190604083820312611e1f5780611e13611e1c92600086016104c9565b936020016104c9565b90565b61027e565b34611e5557611e51611e40611e3a366004611df6565b90613724565b611e48610273565b918291826102e9565b0390f35b610279565b9190916101a08184031261208957611e736101a0610cc2565b92600082013567ffffffffffffffff81116120845781611e94918401610d4b565b6000850152602082013567ffffffffffffffff811161207f5781611eb9918401610d4b565b6020850152604082013567ffffffffffffffff811161207a5781611ede918401610d4b565b6040850152606082013567ffffffffffffffff81116120755781611f03918401610d4b565b6060850152608082013567ffffffffffffffff81116120705781611f28918401610d4b565b608085015260a082013567ffffffffffffffff811161206b5781611f4d918401610d4b565b60a085015260c082013567ffffffffffffffff81116120665781611f72918401610d4b565b60c085015260e082013567ffffffffffffffff81116120615781611f97918401610d4b565b60e085015261010082013567ffffffffffffffff811161205c5781611fbd918401610d4b565b61010085015261012082013567ffffffffffffffff81116120575781611fe4918401610d4b565b61012085015261014082013567ffffffffffffffff8111612052578161200b918401610d4b565b6101408501526101608201359167ffffffffffffffff831161204d5761203682612045948301610d4b565b61016086015261018001610417565b610180830152565b610cd7565b610cd7565b610cd7565b610cd7565b610cd7565b610cd7565b610cd7565b610cd7565b610cd7565b610cd7565b610cd7565b610cd7565b610cbd565b916060838303126120f3576120a68260008501610417565b92602081013567ffffffffffffffff81116120ee57836120c7918301611e5a565b92604082013567ffffffffffffffff81116120e9576120e69201611500565b90565b610283565b610283565b61027e565b346121275761211161210b36600461208e565b916138c6565b612119610273565b8061212381610506565b0390f35b610279565b3461215a5761214461213f366004610ba9565b6139dc565b61214c610273565b8061215681610506565b0390f35b610279565b600080fd5b600090565b612171612164565b508061218c6121866380ac58cd60e01b610288565b91610288565b1480156121b0575b9081156121a0575b5090565b6121aa91506139e7565b3861219c565b50806121cb6121c5635b5e139f60e01b610288565b91610288565b14612194565b606090565b6121df906106bd565b90565b6121ea6121d1565b506121f560016121d6565b90565b600090565b612219906122096121f8565b5061221381613a0d565b50613a6b565b90565b90612230919061222a613a8a565b91613a97565b565b90565b61224961224461224e92612232565b610873565b610445565b90565b61225a90612235565b90565b60409061228761228e949695939661227d6060840198600085019061045c565b602083019061097f565b019061045c565b565b9190806122ae6122a86122a36000612251565b610450565b91610450565b1461230c576122c690826122c0613a8a565b91613ac3565b91826122da6122d483610450565b91610450565b036122e457505050565b6123089091926122f2610273565b9384936364283d7b60e01b85526004850161225d565b0390fd5b6123376123196000612251565b612321610273565b918291633250574960e11b835260048301610469565b0390fd5b61234c90612347613c4a565b6123f1565b565b9061236061235b83610ce6565b610cc2565b918252565b60007f7365744d61726b65744665653a20000000000000000000000000000000000000910152565b612397600e61234e565b906123a460208301612365565b565b6123ae61238d565b90565b60001b90565b906123c4600019916123b1565b9181191691161790565b90565b906123e66123e16123ed92610876565b6123ce565b82546123b7565b9055565b61240d90612406816124016123a6565b613cc6565b60096123d1565b565b6124189061233b565b565b61242b90612426613c4a565b61242d565b565b6124389060086123d1565b565b6124439061241a565b565b9061245a929161245481612cd9565b50612848565b565b61246690516103ff565b90565b1561247057565b600080fd5b90565b600052602060002090565b5490565b61249081612483565b8210156124ab576124a2600691612478565b91020190600090565b610540565b634e487b7160e01b600052600060045260246000fd5b5190565b601f602091010490565b1b90565b919060086124f49102916124ee600019846124d4565b926124d4565b9181191691161790565b919061251461250f61251c93610876565b6123ce565b9083546124d8565b9055565b600090565b61253791612531612520565b916124fe565b565b5b818110612545575050565b806125536000600193612525565b0161253a565b9190601f8111612569575b505050565b61257561259a936105d7565b906020612581846124ca565b830193106125a2575b612593906124ca565b0190612539565b388080612564565b91506125938192905061258a565b906125c19060001990600802611686565b191690565b816125d0916125b0565b906002021790565b906125e281610344565b9067ffffffffffffffff82116126a4576126068261260085546105a4565b85612559565b602090601f831160011461263b5791809161262a9360009261262f575b50506125c6565b90555b565b90915001513880612623565b601f1983169161264a856105d7565b9260005b81811061268c57509160029391856001969410612672575b5050500201905561262d565b612682910151601f8416906125b0565b9055388080612666565b9193602060018192878701518155019501920161264e565b61067e565b906126b3916125d8565b565b9061274660a0600561274c946126da600082016126d4600088016124c6565b906126a9565b6126f3600182016126ed602088016124c6565b906126a9565b61270c60028201612706604088016124c6565b906126a9565b6127256003820161271f6060880161245c565b906123d1565b61273e600482016127386080880161245c565b906123d1565b01920161245c565b906123d1565b565b919061275f5761275d916126b5565b565b6124b0565b9081549168010000000000000000831015612794578261278c91600161279295018155612487565b9061274e565b565b61067e565b90565b6127b06127ab6127b592612799565b610873565b6103ff565b90565b634e487b7160e01b600052601160045260246000fd5b6127dd6127e3919392936103ff565b926103ff565b82039182116127ee57565b6127b8565b905090565b61281d6128149260209261280b81610344565b948580936127f3565b93849101610351565b0190565b61282a916127f8565b90565b61284290612839610273565b91829182612821565b03902090565b909161287561287061288d9261286b60106128656060890161245c565b90611656565b61166e565b61092b565b61288761288133610450565b91610450565b14612469565b6128ab6128a461289f600f8490611c1c565b612475565b8390612764565b60006128d46128c46128bf600f8590611c1c565b611c34565b6128ce600161279c565b906127ce565b92015161291361290d6129077fef2666bf5355fe8727fd186d56fccc6011a9b0d8ffd81522a0498c4f5aa487f095610876565b9261282d565b92610876565b9261291c610273565b8061292681610506565b0390a4565b906129369291612445565b565b61294990612944613c4a565b61294b565b565b6129569060076126a9565b565b61296190612938565b565b61296b613c4a565b6129736129b6565b565b61297e90610bc8565b90565b61298a90612975565b90565b61299690610be4565b90565b6129a290610be4565b90565b6129ad610273565b3d6000823e3d90fd5b60008080806129d36129ce6129c961319c565b612981565b61298d565b6129dc30612999565b31908282156129f3575bf1156129ee57565b6129a5565b506108fc6129e6565b612a04612963565b565b612a10600061234e565b90565b612a1b612a06565b90565b91612a329291612a2c612a13565b92613238565b565b60007f72656756657443656e7465720000000000000000000000000000000000000000910152565b612a66600c61234e565b90612a7360208301612a34565b565b612a7d612a5c565b90565b90565b600052602060002090565b5490565b612a9b81612a8e565b821015612ab657612aad600891612a83565b91020190600090565b610540565b90612b7e60e06007612b8494612ae060008201612ada600088016124c6565b906126a9565b612af960018201612af3602088016124c6565b906126a9565b612b1260028201612b0c604088016124c6565b906126a9565b612b2b60038201612b25606088016124c6565b906126a9565b612b4460048201612b3e608088016124c6565b906126a9565b612b5d60058201612b5760a088016124c6565b906126a9565b612b7660068201612b7060c088016124c6565b906126a9565b0192016124c6565b906126a9565b565b9190612b9757612b9591612abb565b565b6124b0565b9081549168010000000000000000831015612bcc5782612bc4916001612bca95018155612a92565b90612b86565b565b61067e565b612be5612be0612bea92612232565b610873565b6103ff565b90565b90612bf790612bd1565b600052602052604060002090565b90612c1660018060a01b03916123b1565b9181191691161790565b90565b90612c38612c33612c3f92610bf0565b612c20565b8254612c05565b9055565b612c6b90612c5c6000820151612c57612a75565b613d34565b612c66600a612a80565b612b9c565b612c85612c78600a610556565b612c80612a75565b613cc6565b612cc133612cbc612cb46010612cae612c9e600a610556565b612ca8600161279c565b906127ce565b90611656565b600090612bed565b612c23565b565b612ccb612520565b50612cd660096108ff565b90565b612ceb90612ce56121f8565b50613a0d565b90565b90612d0291612cfc81612cd9565b50612d04565b565b5060008080612d40612d3b8295612d3634612d30612d2a612d2560086108ff565b6103ff565b916103ff565b14612469565b612981565b61298d565b3490828215612d57575bf115612d5257565b6129a5565b506108fc612d4a565b90612d6a91612cee565b565b90612d7690610bf0565b600052602052604060002090565b612d8c612520565b5080612da9612da3612d9e6000612251565b610450565b91610450565b14612dc457612dbc612dc1916004612d6c565b6108ff565b90565b612def612dd16000612251565b612dd9610273565b9182916322718ad960e21b835260048301610469565b0390fd5b612dfb613c4a565b612e03612e05565b565b612e17612e126000612251565b613d76565b565b612e21612df3565b565b90565b612e3090546105a4565b90565b60207f657265642e000000000000000000000000000000000000000000000000000000917f5468697320646f6720686173206e6f7420796574206265656e2072656765737460008201520152565b612e8e6025604092610348565b612e9781612e33565b0190565b612eb19060208101906000818303910152612e81565b90565b15612ebb57565b612ec3610273565b62461bcd60e51b815280612ed960048201612e9b565b0390fd5b90612ee7906103ff565b9052565b612ef59051610450565b90565b90612f3e60406002612f4494612f1d60008201612f17600088016124c6565b906126a9565b612f3660018201612f30602088016124c6565b906126a9565b0192016124c6565b906126a9565b565b90612f5091612ef8565b565b90565b600052602060002090565b5490565b612f6d81612f60565b821015612f8857612f7f600291612f55565b91020190600090565b610540565b90612fba60206001612fc094612fb260008201612fac6000880161245c565b906123d1565b019201612eeb565b90612c23565b565b9190612fd357612fd191612f8d565b565b6124b0565b9081549168010000000000000000831015613008578261300091600161300695018155612f64565b90612fc2565b565b61067e565b9060009291805490613028613021836105a4565b80946127f3565b9160018116908160001461307c5750600114613044575b505050565b61305191929394506105d7565b6000905b838210613068575050019038808061303f565b600181602092548486015201910190613055565b92949550505060ff1916825280151502019038808061303f565b61309f9161300d565b90565b6130b7906130ae610273565b91829182613096565b03902090565b919061312a613143926131016130e86130e360006130dd600c8a90610ec8565b01612e23565b612e26565b6130fb6130f56000612bd1565b916103ff565b11612eb4565b61310e4260008501612edd565b613125601161311f60208601612eeb565b90610bfc565b612f46565b61313e613139600e8590610892565b612f52565b612fd8565b600061315082600c610ec8565b0161318461317e7fddc9c814a9c27060d5fee9927b458884b37685b496bd955c02e8e988fabfa30993610876565b916130a2565b9161318d610273565b8061319781610506565b0390a3565b6131a46121f8565b506131af600061092b565b90565b6131ba6121d1565b506131c560026121d6565b90565b6131dc916131d4613a8a565b919091613e1c565b565b906132319061322c6132369461322461320c6132076131ff60108990611656565b600090612bed565b61092b565b61321e61321833610450565b91610450565b14612469565b936010611656565b61166e565b612c23565b565b9161325493919261324b81858491612290565b92909192613ff2565b565b9061326a9161326481612cd9565b506133d7565b565b60007f636c61696d446f6749734c6f7374000000000000000000000000000000000000910152565b61329e600e61234e565b906132ab6020830161326c565b565b6132b5613294565b90565b90565b600052602060002090565b5490565b6132d3816132c6565b8210156132ee576132e56006916132bb565b91020190600090565b610540565b9061338460a0600561338a94613318600082016133126000880161245c565b906123d1565b6133316001820161332b6020880161245c565b906123d1565b61334a60028201613344604088016124c6565b906126a9565b6133636003820161335d606088016124c6565b906126a9565b61337c60048201613376608088016124c6565b906126a9565b0192016124c6565b906126a9565b565b919061339d5761339b916132f3565b565b6124b0565b90815491680100000000000000008310156133d257826133ca9160016133d0950181556132ca565b9061338c565b565b61067e565b9061344d906133ec6133e76132ad565b614161565b61342761340e6134096000613403600c8890610ec8565b01612e23565b612e26565b61342161341b6000612bd1565b916103ff565b11612eb4565b6134344260008301612edd565b613448613443600d859061173d565b6132b8565b6133a2565b600061345a82600c610ec8565b0161348e6134887fb18e88590e353f374a800b514e566675288dfc966063b4f48d0e201a7269cc5093610876565b916130a2565b91613497610273565b806134a181610506565b0390a3565b906134b091613256565b565b90565b5190565b6134c1612a06565b90565b6134d2906134d893926127f8565b906127f8565b90565b6134fa9291613506916134ec610273565b9485926020840192836134c4565b90810382520383610694565b565b6135106121d1565b5061351a81613a0d565b506135236141a2565b90613535613530836134b2565b6134b5565b6135486135426000612bd1565b916103ff565b116000146135675761355d613563929161424a565b906134db565b5b90565b50506135716134b9565b613564565b9061358b929161358582612cd9565b5061367c565b565b90565b61359a6060610cc2565b90565b906135a790610450565b9052565b600052602060002090565b5490565b6135c3816135b6565b8210156135de576135d56003916135ab565b91020190600090565b610540565b906136296040600261362f94613608600082016136026000880161245c565b906123d1565b6136216001820161361b6020880161245c565b906123d1565b019201612eeb565b90612c23565b565b919061364257613640916135e3565b565b6124b0565b9081549168010000000000000000831015613677578261366f916001613675950181556135ba565b90613631565b565b61067e565b6136b96136be936136b0613690600b61358d565b93946136a761369d613590565b9660008801612edd565b60208601612edd565b6040840161359d565b613647565b565b906136cb9291613576565b565b906136d790610bf0565b600052602052604060002090565b906136ef90610bf0565b600052602052604060002090565b60ff1690565b61370f613714916108e2565b6136fd565b90565b6137219054613703565b90565b6137499161373f61374492613737612164565b5060066136cd565b6136e5565b613717565b90565b60007f726567446f676500000000000000000000000000000000000000000000000000910152565b61377e600761234e565b9061378b6020830161374c565b565b613795613774565b90565b60007f446f67206e616d65206973207265717569726564000000000000000000000000910152565b6137cd6014602092610348565b6137d681613798565b0190565b6137f090602081019060008183039101526137c0565b90565b156137fa57565b613802610273565b62461bcd60e51b815280613818600482016137da565b0390fd5b60207f7265676573746572656400000000000000000000000000000000000000000000917f54686973206d6963726f636869702068617320616c7265616479206265656e2060008201520152565b613877602a604092610348565b6138808161381c565b0190565b61389a906020810190600081830391015261386a565b90565b156138a457565b6138ac610273565b62461bcd60e51b8152806138c260048201613884565b0390fd5b9061396c92613955613966926138e3856138de61378d565b613cc6565b6139146138fb6138f660008401516134b2565b6134b5565b61390e6139086000612bd1565b916103ff565b116137f3565b61394f613936613931600061392b600c8a90610ec8565b01612e23565b612e26565b6139496139436000612bd1565b916103ff565b1461389d565b8461444d565b61396160113390610bfc565b612f46565b336144b3565b565b61397f9061397a613c4a565b613981565b565b8061399d6139976139926000612251565b610450565b91610450565b146139ad576139ab90613d76565b565b6139d86139ba6000612251565b6139c2610273565b918291631e4fbdf760e01b835260048301610469565b0390fd5b6139e59061396e565b565b6139ef612164565b50613a09613a036301ffc9a760e01b610288565b91610288565b1490565b613a156121f8565b50613a1f816144c9565b9081613a3c613a36613a316000612251565b610450565b91610450565b14613a45575090565b613a6790613a51610273565b918291637e27328960e01b83526004830161137f565b0390fd5b613a82613a8791613a7a6121f8565b50600561166e565b61092b565b90565b613a926121f8565b503390565b91613aa592916001926144e8565b565b90613ab291036103ff565b90565b90613ac091016103ff565b90565b90613acc6121f8565b50613ad6816144c9565b9280613af3613aed613ae86000612251565b610450565b91610450565b03613c37575b5082613b16613b10613b0b6000612251565b610450565b91610450565b03613be0575b81613b38613b32613b2d6000612251565b610450565b91610450565b03613baa575b613b5382613b4e6003849061166e565b612c23565b8291613b91613b8b613b857fddf252ad1be2c89b69c2b068fc378daa952ba7f163c4a11628f55a4df523b3ef95610bf0565b92610bf0565b92610876565b92613b9a610273565b80613ba481610506565b0390a490565b613bdb613bb7600161279c565b613bd5613bc660048690612d6c565b91613bd0836108ff565b613ab5565b906123d1565b613b3e565b613c01613bed6000612251565b82613bf86000612251565b906000926144e8565b613c32613c0e600161279c565b613c2c613c1d60048790612d6c565b91613c27836108ff565b613aa7565b906123d1565b613b1c565b613c44908490839161465f565b38613af9565b613c5261319c565b613c6b613c65613c60613a8a565b610450565b91610450565b03613c7257565b613c9b613c7d613a8a565b613c85610273565b91829163118cdaa760e01b835260048301610469565b0390fd5b92916020613cbc613cc49360408701908782036000890152610380565b94019061097f565b565b90613d01613d0692613cf2613cd9610273565b938492600460208501632d839cb360e21b815201613c9f565b60208201810382520382610694565b6146eb565b565b9091613d23613d319360408401908482036000860152610380565b916020818403910152610380565b90565b90613d6f613d7492613d60613d47610273565b938492600460208501634b5c427760e01b815201613d08565b60208201810382520382610694565b6146eb565b565b613d80600061092b565b613d8b826000612c23565b90613dbf613db97f8be0079c531659141344cd1fd0a4f28419497f9722a3daafe3b4186f6b6457e093610bf0565b91610bf0565b91613dc8610273565b80613dd281610506565b0390a3565b90613de360ff916123b1565b9181191691161790565b613df6906102d7565b90565b90565b90613e11613e0c613e1892613ded565b613df9565b8254613dd7565b9055565b91909182613e3b613e35613e306000612251565b610450565b91610450565b14613eaf57613e5f82613e5a613e53600685906136cd565b86906136e5565b613dfc565b919091613eaa613e98613e927f17307eab39ab6107e8899845ad3d59bd9653f200f220920489ca2b5937696c3193610bf0565b93610bf0565b93613ea1610273565b918291826102e9565b0390a3565b613ed183613ebb610273565b918291630b61174360e31b835260048301610469565b0390fd5b613ede90610bc8565b90565b613eea90613ed5565b90565b613ef690610be4565b90565b60e01b90565b90505190613f0c82610294565b565b90602082820312613f2857613f2591600001613eff565b90565b61027e565b60209181520190565b613f55613f5e602093613f6393613f4c816134b5565b93848093613f2d565b95869101610351565b610376565b0190565b9092613f9b90613f91613fa89694613f876080860197600087019061045c565b602085019061045c565b604083019061097f565b6060818403910152613f36565b90565b90613fbd613fb8836119a6565b610cc2565b918252565b606090565b3d600014613fe457613fd83d613fab565b903d6000602084013e5b565b613fec613fc2565b90613fe2565b929092833b61400a6140046000612bd1565b916103ff565b11614016575b50505050565b602091614057600061402f61402a88613ee1565b613eed565b9261406263150b7a0291614041613a8a565b969861404b610273565b998a9889978896613ef9565b865260048601613f67565b03925af18091600092614131575b50156000146140e75750600161408b57505b38808080614010565b614093613fc7565b9061409d826134b5565b6140b06140aa6000612bd1565b916103ff565b146000146140de576140da906140c4610273565b918291633250574960e11b835260048301610469565b0390fd5b50805190602001fd5b6141006140fa630a85bd0160e11b610288565b91610288565b0361410b5750614082565b61412d90614117610273565b918291633250574960e11b835260048301610469565b0390fd5b61415391925060203d811161415a575b61414b8183610694565b810190613f0e565b9038614070565b503d614141565b61418c61419b6141a092614173610273565b92839160046020840163104c13eb60e21b8152016103b1565b60208201810382520382610694565b6146eb565b565b6141aa6121d1565b506141b560076121d6565b90565b369037565b906141e26141ca8361234e565b926020806141d88693610ce6565b92019103906141b8565b565b60016141f091036103ff565b90565b90565b61420a61420561420f926141f3565b610873565b6103ff565b90565b634e487b7160e01b600052601260045260246000fd5b61423461423a916103ff565b916103ff565b908115614245570490565b614212565b6142526121d1565b5061426f61425f82614874565b614269600161279c565b90613ab5565b90614279826141bd565b91614282612520565b5060200182015b6001156142ed5761429c6142c8916141e4565b916f181899199a1a9b1b9c1cb0b131b232b360811b600a82061a83536142c2600a6141f6565b90614228565b806142dc6142d66000612bd1565b916103ff565b146142e75790614289565b50505b90565b50506142ea565b90614439610180600c61443f9461431a60008201614314600088016124c6565b906126a9565b6143336001820161432d602088016124c6565b906126a9565b61434c60028201614346604088016124c6565b906126a9565b6143656003820161435f606088016124c6565b906126a9565b61437e60048201614378608088016124c6565b906126a9565b6143976005820161439160a088016124c6565b906126a9565b6143b0600682016143aa60c088016124c6565b906126a9565b6143c9600782016143c360e088016124c6565b906126a9565b6143e3600882016143dd61010088016124c6565b906126a9565b6143fd600982016143f761012088016124c6565b906126a9565b614417600a820161441161014088016124c6565b906126a9565b614431600b820161442b61016088016124c6565b906126a9565b01920161245c565b906123d1565b565b9061444b916142f4565b565b60009061446583614460600c8490610ec8565b614441565b91015161449b6144957fc14a20e8513e6c95e34c051ec0a5bb2d8301e642dec0c99e5de51088789c1ede93610876565b9161282d565b916144a4610273565b806144ae81610506565b0390a3565b906144c791906144c1612a13565b91614ad6565b565b6144e06144e5916144d86121f8565b50600361166e565b61092b565b90565b919092808015614617575b614511575b50509061450a61450f9291600561166e565b612c23565b565b61451a84613a0d565b918061453761453161452c6000612251565b610450565b91610450565b1415806145fc575b806145e2575b6145bc57509161450a9161450f9493614561575b5091926144f8565b8184906145a061459a6145947f8c5be1e5ebec7d5bd14f71427d1e84f3dd0314c0f7b2291e5b200ac8c7c3b92595610bf0565b92610bf0565b92610876565b926145a9610273565b806145b381610506565b0390a438614559565b6145de906145c8610273565b91829163a9fbf51f60e01b835260048301610469565b0390fd5b506145f76145f1848390613724565b156102d7565b614545565b508261461061460a83610450565b91610450565b141561453f565b508161463461462e6146296000612251565b610450565b91610450565b14156144f3565b91602061465d9294936146566040820196600083019061045c565b019061097f565b565b61467461466e82848691614afc565b156102d7565b61467d57505050565b61469861469261468d6000612251565b610450565b91610450565b146000146146c6576146c2826146ac610273565b918291637e27328960e01b83526004830161137f565b0390fd5b6146e76146d1610273565b92839263177e802f60e01b84526004840161463b565b0390fd5b6146fe906146f96001614bc9565b614ca2565b565b90565b61471761471261471c92614700565b610873565b6103ff565b90565b90565b61473661473161473b9261471f565b610873565b6103ff565b90565b90565b61475561475061475a9261473e565b610873565b6103ff565b90565b90565b61477461476f6147799261475d565b610873565b6103ff565b90565b90565b61479361478e6147989261477c565b610873565b6103ff565b90565b90565b6147b26147ad6147b79261479b565b610873565b6103ff565b90565b90565b6147d16147cc6147d6926147ba565b610873565b6103ff565b90565b90565b6147f06147eb6147f5926147d9565b610873565b6103ff565b90565b90565b61480f61480a614814926147f8565b610873565b6103ff565b90565b90565b61482e61482961483392614817565b610873565b6103ff565b90565b90565b61484d61484861485292614836565b610873565b6103ff565b90565b90565b61486c61486761487192614855565b610873565b6103ff565b90565b61487c612520565b506148876000612bd1565b90806148b66148b07a184f03e93ff9f4daa797ed6e38ed64bf6a1f010000000000000000614703565b916103ff565b1015614a8e575b806148de6148d86d04ee2d6d415b85acef8100000000614741565b916103ff565b1015614a53575b806148ff6148f9662386f26fc1000061477f565b916103ff565b1015614a1f575b8061491d6149176305f5e1006147bd565b916103ff565b10156149ee575b806149396149336127106147fb565b916103ff565b10156149bf575b8061495461494e6064614839565b916103ff565b1015614991575b61496e614968600a6141f6565b916103ff565b1015614978575b90565b61498c90614986600161279c565b90613ab5565b614975565b6149a86149b9916149a26064614839565b90614228565b916149b36002614858565b90613ab5565b9061495b565b6149d76149e8916149d16127106147fb565b90614228565b916149e2600461481a565b90613ab5565b90614940565b614a08614a1991614a026305f5e1006147bd565b90614228565b91614a1360086147dc565b90613ab5565b90614924565b614a3c614a4d91614a36662386f26fc1000061477f565b90614228565b91614a47601061479e565b90613ab5565b90614906565b614a77614a8891614a716d04ee2d6d415b85acef8100000000614741565b90614228565b91614a826020614760565b90613ab5565b906148e5565b614abf614ad091614ab97a184f03e93ff9f4daa797ed6e38ed64bf6a1f010000000000000000614703565b90614228565b91614aca6040614722565b90613ab5565b906148bd565b9091614afa92614ae7838290614bd5565b614af16000612251565b92909192613ff2565b565b9190614b06612164565b5080614b23614b1d614b186000612251565b610450565b91610450565b14159283614b32575b50505090565b8091929350614b49614b4384610450565b91610450565b14908115614b8b575b50918215614b65575b5050388080614b2c565b614b83919250614b77614b7d91613a6b565b92610450565b91610450565b143880614b5b565b614b9791508290613724565b38614b52565b6a636f6e736f6c652e6c6f6790565b60008091614bb8614b9d565b602082519201905afa50565b600090565b614bd1614bc4565b5090565b9081614bf2614bec614be76000612251565b610450565b91610450565b14614c5d57614c0c9190614c066000612251565b91613ac3565b614c27614c21614c1c6000612251565b610450565b91610450565b03614c2e57565b614c59614c3b6000612251565b614c43610273565b9182916339e3563760e11b835260048301610469565b0390fd5b614c88614c6a6000612251565b614c72610273565b918291633250574960e11b835260048301610469565b0390fd5b634e487b7160e01b600052605160045260246000fd5b600103614c8c57614cb290614bac565b56fea2646970667358221220fc59624aaad05bb2f8cacbd00b3cd8e14adb46cde42ecff8cfb5d34bdca43d9c64736f6c63430008180033",
  "linkReferences": {},
  "deployedLinkReferences": {}
}