{
  "_format": "hh-sol-artifact-1",
  "contractName": "DogBase",
  "sourceName": "contracts/DogBase.sol",
  "abi": [
    {
      "inputs": [],
      "stateMutability": "nonpayable",
      "type": "constructor"
    },
    {
      "inputs": [
        {
          "internalType": "address",
          "name": "sender",
          "type": "address"
        },
        {
          "internalType": "uint256",
          "name": "tokenId",
          "type": "uint256"
        },
        {
          "internalType": "address",
          "name": "owner",
          "type": "address"
        }
      ],
      "name": "ERC721IncorrectOwner",
      "type": "error"
    },
    {
      "inputs": [
        {
          "internalType": "address",
          "name": "operator",
          "type": "address"
        },
        {
          "internalType": "uint256",
          "name": "tokenId",
          "type": "uint256"
        }
      ],
      "name": "ERC721InsufficientApproval",
      "type": "error"
    },
    {
      "inputs": [
        {
          "internalType": "address",
          "name": "approver",
          "type": "address"
        }
      ],
      "name": "ERC721InvalidApprover",
      "type": "error"
    },
    {
      "inputs": [
        {
          "internalType": "address",
          "name": "operator",
          "type": "address"
        }
      ],
      "name": "ERC721InvalidOperator",
      "type": "error"
    },
    {
      "inputs": [
        {
          "internalType": "address",
          "name": "owner",
          "type": "address"
        }
      ],
      "name": "ERC721InvalidOwner",
      "type": "error"
    },
    {
      "inputs": [
        {
          "internalType": "address",
          "name": "receiver",
          "type": "address"
        }
      ],
      "name": "ERC721InvalidReceiver",
      "type": "error"
    },
    {
      "inputs": [
        {
          "internalType": "address",
          "name": "sender",
          "type": "address"
        }
      ],
      "name": "ERC721InvalidSender",
      "type": "error"
    },
    {
      "inputs": [
        {
          "internalType": "uint256",
          "name": "tokenId",
          "type": "uint256"
        }
      ],
      "name": "ERC721NonexistentToken",
      "type": "error"
    },
    {
      "inputs": [
        {
          "internalType": "address",
          "name": "owner",
          "type": "address"
        }
      ],
      "name": "OwnableInvalidOwner",
      "type": "error"
    },
    {
      "inputs": [
        {
          "internalType": "address",
          "name": "account",
          "type": "address"
        }
      ],
      "name": "OwnableUnauthorizedAccount",
      "type": "error"
    },
    {
      "anonymous": false,
      "inputs": [
        {
          "indexed": true,
          "internalType": "uint256",
          "name": "vacId",
          "type": "uint256"
        },
        {
          "indexed": true,
          "internalType": "string",
          "name": "name",
          "type": "string"
        },
        {
          "indexed": true,
          "internalType": "uint256",
          "name": "tokenId",
          "type": "uint256"
        },
        {
          "indexed": false,
          "internalType": "uint256",
          "name": "vetCentraId",
          "type": "uint256"
        },
        {
          "indexed": false,
          "internalType": "uint256",
          "name": "date",
          "type": "uint256"
        }
      ],
      "name": "AddVaccine",
      "type": "event"
    },
    {
      "anonymous": false,
      "inputs": [
        {
          "indexed": true,
          "internalType": "address",
          "name": "owner",
          "type": "address"
        },
        {
          "indexed": true,
          "internalType": "address",
          "name": "approved",
          "type": "address"
        },
        {
          "indexed": true,
          "internalType": "uint256",
          "name": "tokenId",
          "type": "uint256"
        }
      ],
      "name": "Approval",
      "type": "event"
    },
    {
      "anonymous": false,
      "inputs": [
        {
          "indexed": true,
          "internalType": "address",
          "name": "owner",
          "type": "address"
        },
        {
          "indexed": true,
          "internalType": "address",
          "name": "operator",
          "type": "address"
        },
        {
          "indexed": false,
          "internalType": "bool",
          "name": "approved",
          "type": "bool"
        }
      ],
      "name": "ApprovalForAll",
      "type": "event"
    },
    {
      "anonymous": false,
      "inputs": [
        {
          "indexed": true,
          "internalType": "uint256",
          "name": "vetCentraId",
          "type": "uint256"
        },
        {
          "indexed": true,
          "internalType": "string",
          "name": "name",
          "type": "string"
        }
      ],
      "name": "CenterVet",
      "type": "event"
    },
    {
      "anonymous": false,
      "inputs": [
        {
          "indexed": true,
          "internalType": "uint256",
          "name": "tokenId",
          "type": "uint256"
        },
        {
          "indexed": false,
          "internalType": "string",
          "name": "addr",
          "type": "string"
        },
        {
          "indexed": false,
          "internalType": "uint256",
          "name": "date",
          "type": "uint256"
        }
      ],
      "name": "DogIsFound",
      "type": "event"
    },
    {
      "anonymous": false,
      "inputs": [
        {
          "indexed": true,
          "internalType": "uint256",
          "name": "tokenId",
          "type": "uint256"
        },
        {
          "indexed": false,
          "internalType": "string",
          "name": "addr",
          "type": "string"
        },
        {
          "indexed": false,
          "internalType": "uint256",
          "name": "date",
          "type": "uint256"
        }
      ],
      "name": "DogIsLost",
      "type": "event"
    },
    {
      "anonymous": false,
      "inputs": [
        {
          "indexed": true,
          "internalType": "uint256",
          "name": "tokenId",
          "type": "uint256"
        },
        {
          "indexed": false,
          "internalType": "uint256",
          "name": "price",
          "type": "uint256"
        }
      ],
      "name": "MarketPlace",
      "type": "event"
    },
    {
      "anonymous": false,
      "inputs": [
        {
          "indexed": true,
          "internalType": "uint256",
          "name": "tokenId",
          "type": "uint256"
        },
        {
          "indexed": true,
          "internalType": "string",
          "name": "name",
          "type": "string"
        },
        {
          "indexed": false,
          "internalType": "uint256",
          "name": "birthday",
          "type": "uint256"
        },
        {
          "indexed": false,
          "internalType": "string",
          "name": "breed",
          "type": "string"
        },
        {
          "indexed": false,
          "internalType": "string",
          "name": "sex",
          "type": "string"
        }
      ],
      "name": "NewDoge",
      "type": "event"
    },
    {
      "anonymous": false,
      "inputs": [
        {
          "indexed": true,
          "internalType": "address",
          "name": "previousOwner",
          "type": "address"
        },
        {
          "indexed": true,
          "internalType": "address",
          "name": "newOwner",
          "type": "address"
        }
      ],
      "name": "OwnershipTransferred",
      "type": "event"
    },
    {
      "anonymous": false,
      "inputs": [
        {
          "indexed": true,
          "internalType": "address",
          "name": "from",
          "type": "address"
        },
        {
          "indexed": true,
          "internalType": "address",
          "name": "to",
          "type": "address"
        },
        {
          "indexed": true,
          "internalType": "uint256",
          "name": "tokenId",
          "type": "uint256"
        }
      ],
      "name": "Transfer",
      "type": "event"
    },
    {
      "inputs": [
        {
          "internalType": "uint256",
          "name": "_price",
          "type": "uint256"
        },
        {
          "internalType": "uint256",
          "name": "_tokenId",
          "type": "uint256"
        }
      ],
      "name": "addOrder",
      "outputs": [],
      "stateMutability": "nonpayable",
      "type": "function"
    },
    {
      "inputs": [
        {
          "internalType": "uint256",
          "name": "_tokenId",
          "type": "uint256"
        },
        {
          "components": [
            {
              "internalType": "string",
              "name": "name",
              "type": "string"
            },
            {
              "internalType": "string",
              "name": "supplier",
              "type": "string"
            },
            {
              "internalType": "string",
              "name": "code",
              "type": "string"
            },
            {
              "internalType": "uint256",
              "name": "vetCenterId",
              "type": "uint256"
            },
            {
              "internalType": "uint256",
              "name": "date",
              "type": "uint256"
            },
            {
              "internalType": "uint256",
              "name": "dueDate",
              "type": "uint256"
            }
          ],
          "internalType": "struct DogBase.Vaccine",
          "name": "_vaccine",
          "type": "tuple"
        },
        {
          "internalType": "uint256",
          "name": "_doctorId",
          "type": "uint256"
        }
      ],
      "name": "addVaccine",
      "outputs": [],
      "stateMutability": "nonpayable",
      "type": "function"
    },
    {
      "inputs": [
        {
          "internalType": "address",
          "name": "to",
          "type": "address"
        },
        {
          "internalType": "uint256",
          "name": "tokenId",
          "type": "uint256"
        }
      ],
      "name": "approve",
      "outputs": [],
      "stateMutability": "nonpayable",
      "type": "function"
    },
    {
      "inputs": [
        {
          "internalType": "address",
          "name": "owner",
          "type": "address"
        }
      ],
      "name": "balanceOf",
      "outputs": [
        {
          "internalType": "uint256",
          "name": "",
          "type": "uint256"
        }
      ],
      "stateMutability": "view",
      "type": "function"
    },
    {
      "inputs": [
        {
          "internalType": "string",
          "name": "_uri",
          "type": "string"
        }
      ],
      "name": "changeBaseURI",
      "outputs": [],
      "stateMutability": "nonpayable",
      "type": "function"
    },
    {
      "inputs": [
        {
          "internalType": "uint256",
          "name": "_tokenId",
          "type": "uint256"
        },
        {
          "components": [
            {
              "internalType": "uint256",
              "name": "tokenId",
              "type": "uint256"
            },
            {
              "internalType": "uint256",
              "name": "foundDate",
              "type": "uint256"
            },
            {
              "internalType": "address",
              "name": "foundBy",
              "type": "address"
            }
          ],
          "internalType": "struct DogBase.FoundDog",
          "name": "_foundDog",
          "type": "tuple"
        },
        {
          "components": [
            {
              "internalType": "string",
              "name": "email",
              "type": "string"
            },
            {
              "internalType": "string",
              "name": "cellPhone",
              "type": "string"
            },
            {
              "internalType": "string",
              "name": "otherPhone",
              "type": "string"
            }
          ],
          "internalType": "struct DogBase.Contact",
          "name": "_contact",
          "type": "tuple"
        }
      ],
      "name": "claimDogIsFound",
      "outputs": [],
      "stateMutability": "nonpayable",
      "type": "function"
    },
    {
      "inputs": [
        {
          "internalType": "uint256",
          "name": "_tokenId",
          "type": "uint256"
        },
        {
          "components": [
            {
              "internalType": "uint256",
              "name": "tokenId",
              "type": "uint256"
            },
            {
              "internalType": "uint256",
              "name": "missingDate",
              "type": "uint256"
            },
            {
              "internalType": "uint256",
              "name": "postalCode",
              "type": "uint256"
            },
            {
              "internalType": "string",
              "name": "country",
              "type": "string"
            },
            {
              "internalType": "string",
              "name": "region",
              "type": "string"
            },
            {
              "internalType": "string",
              "name": "city",
              "type": "string"
            },
            {
              "internalType": "string",
              "name": "addr",
              "type": "string"
            }
          ],
          "internalType": "struct DogBase.LostDog",
          "name": "_lostDog",
          "type": "tuple"
        }
      ],
      "name": "claimDogIsLost",
      "outputs": [],
      "stateMutability": "nonpayable",
      "type": "function"
    },
    {
      "inputs": [
        {
          "internalType": "address",
          "name": "",
          "type": "address"
        }
      ],
      "name": "contacts",
      "outputs": [
        {
          "internalType": "string",
          "name": "email",
          "type": "string"
        },
        {
          "internalType": "string",
          "name": "cellPhone",
          "type": "string"
        },
        {
          "internalType": "string",
          "name": "otherPhone",
          "type": "string"
        }
      ],
      "stateMutability": "view",
      "type": "function"
    },
    {
      "inputs": [
        {
          "internalType": "uint256",
          "name": "",
          "type": "uint256"
        }
      ],
      "name": "dogs",
      "outputs": [
        {
          "internalType": "string",
          "name": "name",
          "type": "string"
        },
        {
          "internalType": "string",
          "name": "species",
          "type": "string"
        },
        {
          "internalType": "string",
          "name": "breed",
          "type": "string"
        },
        {
          "internalType": "string",
          "name": "sex",
          "type": "string"
        },
        {
          "internalType": "string",
          "name": "country",
          "type": "string"
        },
        {
          "internalType": "string",
          "name": "region",
          "type": "string"
        },
        {
          "internalType": "string",
          "name": "city",
          "type": "string"
        },
        {
          "internalType": "string",
          "name": "addr",
          "type": "string"
        },
        {
          "internalType": "string",
          "name": "tatoo",
          "type": "string"
        },
        {
          "internalType": "string",
          "name": "color",
          "type": "string"
        },
        {
          "internalType": "string",
          "name": "photo",
          "type": "string"
        },
        {
          "internalType": "string",
          "name": "postalCode",
          "type": "string"
        },
        {
          "internalType": "uint256",
          "name": "birthday",
          "type": "uint256"
        }
      ],
      "stateMutability": "view",
      "type": "function"
    },
    {
      "inputs": [
        {
          "internalType": "uint256",
          "name": "",
          "type": "uint256"
        }
      ],
      "name": "foundDogs",
      "outputs": [
        {
          "internalType": "uint256",
          "name": "tokenId",
          "type": "uint256"
        },
        {
          "internalType": "uint256",
          "name": "foundDate",
          "type": "uint256"
        },
        {
          "internalType": "address",
          "name": "foundBy",
          "type": "address"
        }
      ],
      "stateMutability": "view",
      "type": "function"
    },
    {
      "inputs": [
        {
          "internalType": "uint256",
          "name": "tokenId",
          "type": "uint256"
        }
      ],
      "name": "getApproved",
      "outputs": [
        {
          "internalType": "address",
          "name": "",
          "type": "address"
        }
      ],
      "stateMutability": "view",
      "type": "function"
    },
    {
      "inputs": [],
      "name": "getMarketFee",
      "outputs": [
        {
          "internalType": "uint256",
          "name": "",
          "type": "uint256"
        }
      ],
      "stateMutability": "view",
      "type": "function"
    },
    {
      "inputs": [
        {
          "internalType": "address",
          "name": "owner",
          "type": "address"
        },
        {
          "internalType": "address",
          "name": "operator",
          "type": "address"
        }
      ],
      "name": "isApprovedForAll",
      "outputs": [
        {
          "internalType": "bool",
          "name": "",
          "type": "bool"
        }
      ],
      "stateMutability": "view",
      "type": "function"
    },
    {
      "inputs": [
        {
          "internalType": "uint256",
          "name": "",
          "type": "uint256"
        }
      ],
      "name": "lostDogs",
      "outputs": [
        {
          "internalType": "uint256",
          "name": "tokenId",
          "type": "uint256"
        },
        {
          "internalType": "uint256",
          "name": "missingDate",
          "type": "uint256"
        },
        {
          "internalType": "uint256",
          "name": "postalCode",
          "type": "uint256"
        },
        {
          "internalType": "string",
          "name": "country",
          "type": "string"
        },
        {
          "internalType": "string",
          "name": "region",
          "type": "string"
        },
        {
          "internalType": "string",
          "name": "city",
          "type": "string"
        },
        {
          "internalType": "string",
          "name": "addr",
          "type": "string"
        }
      ],
      "stateMutability": "view",
      "type": "function"
    },
    {
      "inputs": [
        {
          "internalType": "uint256",
          "name": "",
          "type": "uint256"
        }
      ],
      "name": "market",
      "outputs": [
        {
          "internalType": "uint256",
          "name": "price",
          "type": "uint256"
        },
        {
          "internalType": "uint256",
          "name": "tokenId",
          "type": "uint256"
        },
        {
          "internalType": "address",
          "name": "dogOwner",
          "type": "address"
        }
      ],
      "stateMutability": "view",
      "type": "function"
    },
    {
      "inputs": [],
      "name": "name",
      "outputs": [
        {
          "internalType": "string",
          "name": "",
          "type": "string"
        }
      ],
      "stateMutability": "view",
      "type": "function"
    },
    {
      "inputs": [],
      "name": "owner",
      "outputs": [
        {
          "internalType": "address",
          "name": "",
          "type": "address"
        }
      ],
      "stateMutability": "view",
      "type": "function"
    },
    {
      "inputs": [
        {
          "internalType": "uint256",
          "name": "tokenId",
          "type": "uint256"
        }
      ],
      "name": "ownerOf",
      "outputs": [
        {
          "internalType": "address",
          "name": "",
          "type": "address"
        }
      ],
      "stateMutability": "view",
      "type": "function"
    },
    {
      "inputs": [
        {
          "internalType": "uint256",
          "name": "_tokenId",
          "type": "uint256"
        },
        {
          "internalType": "address",
          "name": "_foundBy",
          "type": "address"
        }
      ],
      "name": "payReward",
      "outputs": [],
      "stateMutability": "payable",
      "type": "function"
    },
    {
      "inputs": [
        {
          "internalType": "uint256",
          "name": "_chip",
          "type": "uint256"
        },
        {
          "components": [
            {
              "internalType": "string",
              "name": "name",
              "type": "string"
            },
            {
              "internalType": "string",
              "name": "species",
              "type": "string"
            },
            {
              "internalType": "string",
              "name": "breed",
              "type": "string"
            },
            {
              "internalType": "string",
              "name": "sex",
              "type": "string"
            },
            {
              "internalType": "string",
              "name": "country",
              "type": "string"
            },
            {
              "internalType": "string",
              "name": "region",
              "type": "string"
            },
            {
              "internalType": "string",
              "name": "city",
              "type": "string"
            },
            {
              "internalType": "string",
              "name": "addr",
              "type": "string"
            },
            {
              "internalType": "string",
              "name": "tatoo",
              "type": "string"
            },
            {
              "internalType": "string",
              "name": "color",
              "type": "string"
            },
            {
              "internalType": "string",
              "name": "photo",
              "type": "string"
            },
            {
              "internalType": "string",
              "name": "postalCode",
              "type": "string"
            },
            {
              "internalType": "uint256",
              "name": "birthday",
              "type": "uint256"
            }
          ],
          "internalType": "struct DogBase.Dog",
          "name": "_dog",
          "type": "tuple"
        },
        {
          "components": [
            {
              "internalType": "string",
              "name": "email",
              "type": "string"
            },
            {
              "internalType": "string",
              "name": "cellPhone",
              "type": "string"
            },
            {
              "internalType": "string",
              "name": "otherPhone",
              "type": "string"
            }
          ],
          "internalType": "struct DogBase.Contact",
          "name": "_contact",
          "type": "tuple"
        }
      ],
      "name": "regDoge",
      "outputs": [],
      "stateMutability": "nonpayable",
      "type": "function"
    },
    {
      "inputs": [
        {
          "components": [
            {
              "internalType": "string",
              "name": "name",
              "type": "string"
            },
            {
              "internalType": "string",
              "name": "country",
              "type": "string"
            },
            {
              "internalType": "string",
              "name": "region",
              "type": "string"
            },
            {
              "internalType": "string",
              "name": "city",
              "type": "string"
            },
            {
              "internalType": "string",
              "name": "addr",
              "type": "string"
            },
            {
              "internalType": "string",
              "name": "email",
              "type": "string"
            },
            {
              "internalType": "string",
              "name": "phone",
              "type": "string"
            },
            {
              "internalType": "string",
              "name": "postalCode",
              "type": "string"
            }
          ],
          "internalType": "struct DogBase.VetCenter",
          "name": "_vetCenter",
          "type": "tuple"
        }
      ],
      "name": "regVetCenter",
      "outputs": [],
      "stateMutability": "nonpayable",
      "type": "function"
    },
    {
      "inputs": [
        {
          "internalType": "uint256",
          "name": "_vetCenterId",
          "type": "uint256"
        },
        {
          "internalType": "uint256",
          "name": "_doctorId",
          "type": "uint256"
        },
        {
          "internalType": "address",
          "name": "_doctor",
          "type": "address"
        }
      ],
      "name": "regVetCenterOfficial",
      "outputs": [],
      "stateMutability": "nonpayable",
      "type": "function"
    },
    {
      "inputs": [],
      "name": "renounceOwnership",
      "outputs": [],
      "stateMutability": "nonpayable",
      "type": "function"
    },
    {
      "inputs": [
        {
          "internalType": "address",
          "name": "from",
          "type": "address"
        },
        {
          "internalType": "address",
          "name": "to",
          "type": "address"
        },
        {
          "internalType": "uint256",
          "name": "tokenId",
          "type": "uint256"
        }
      ],
      "name": "safeTransferFrom",
      "outputs": [],
      "stateMutability": "nonpayable",
      "type": "function"
    },
    {
      "inputs": [
        {
          "internalType": "address",
          "name": "from",
          "type": "address"
        },
        {
          "internalType": "address",
          "name": "to",
          "type": "address"
        },
        {
          "internalType": "uint256",
          "name": "tokenId",
          "type": "uint256"
        },
        {
          "internalType": "bytes",
          "name": "data",
          "type": "bytes"
        }
      ],
      "name": "safeTransferFrom",
      "outputs": [],
      "stateMutability": "nonpayable",
      "type": "function"
    },
    {
      "inputs": [
        {
          "internalType": "address",
          "name": "operator",
          "type": "address"
        },
        {
          "internalType": "bool",
          "name": "approved",
          "type": "bool"
        }
      ],
      "name": "setApprovalForAll",
      "outputs": [],
      "stateMutability": "nonpayable",
      "type": "function"
    },
    {
      "inputs": [
        {
          "internalType": "uint256",
          "name": "_fee",
          "type": "uint256"
        }
      ],
      "name": "setLostFoundFee",
      "outputs": [],
      "stateMutability": "nonpayable",
      "type": "function"
    },
    {
      "inputs": [
        {
          "internalType": "uint256",
          "name": "_fee",
          "type": "uint256"
        }
      ],
      "name": "setMarketFee",
      "outputs": [],
      "stateMutability": "nonpayable",
      "type": "function"
    },
    {
      "inputs": [
        {
          "internalType": "bytes4",
          "name": "interfaceId",
          "type": "bytes4"
        }
      ],
      "name": "supportsInterface",
      "outputs": [
        {
          "internalType": "bool",
          "name": "",
          "type": "bool"
        }
      ],
      "stateMutability": "view",
      "type": "function"
    },
    {
      "inputs": [],
      "name": "symbol",
      "outputs": [
        {
          "internalType": "string",
          "name": "",
          "type": "string"
        }
      ],
      "stateMutability": "view",
      "type": "function"
    },
    {
      "inputs": [
        {
          "internalType": "uint256",
          "name": "tokenId",
          "type": "uint256"
        }
      ],
      "name": "tokenURI",
      "outputs": [
        {
          "internalType": "string",
          "name": "",
          "type": "string"
        }
      ],
      "stateMutability": "view",
      "type": "function"
    },
    {
      "inputs": [
        {
          "internalType": "address",
          "name": "from",
          "type": "address"
        },
        {
          "internalType": "address",
          "name": "to",
          "type": "address"
        },
        {
          "internalType": "uint256",
          "name": "tokenId",
          "type": "uint256"
        }
      ],
      "name": "transferFrom",
      "outputs": [],
      "stateMutability": "nonpayable",
      "type": "function"
    },
    {
      "inputs": [
        {
          "internalType": "address",
          "name": "newOwner",
          "type": "address"
        }
      ],
      "name": "transferOwnership",
      "outputs": [],
      "stateMutability": "nonpayable",
      "type": "function"
    },
    {
      "inputs": [
        {
          "internalType": "uint256",
          "name": "",
          "type": "uint256"
        },
        {
          "internalType": "uint256",
          "name": "",
          "type": "uint256"
        }
      ],
      "name": "vaccines",
      "outputs": [
        {
          "internalType": "string",
          "name": "name",
          "type": "string"
        },
        {
          "internalType": "string",
          "name": "supplier",
          "type": "string"
        },
        {
          "internalType": "string",
          "name": "code",
          "type": "string"
        },
        {
          "internalType": "uint256",
          "name": "vetCenterId",
          "type": "uint256"
        },
        {
          "internalType": "uint256",
          "name": "date",
          "type": "uint256"
        },
        {
          "internalType": "uint256",
          "name": "dueDate",
          "type": "uint256"
        }
      ],
      "stateMutability": "view",
      "type": "function"
    },
    {
      "inputs": [
        {
          "internalType": "uint256",
          "name": "",
          "type": "uint256"
        },
        {
          "internalType": "uint256",
          "name": "",
          "type": "uint256"
        }
      ],
      "name": "vetCenterOfficials",
      "outputs": [
        {
          "internalType": "address",
          "name": "",
          "type": "address"
        }
      ],
      "stateMutability": "view",
      "type": "function"
    },
    {
      "inputs": [
        {
          "internalType": "uint256",
          "name": "",
          "type": "uint256"
        }
      ],
      "name": "vetCenters",
      "outputs": [
        {
          "internalType": "string",
          "name": "name",
          "type": "string"
        },
        {
          "internalType": "string",
          "name": "country",
          "type": "string"
        },
        {
          "internalType": "string",
          "name": "region",
          "type": "string"
        },
        {
          "internalType": "string",
          "name": "city",
          "type": "string"
        },
        {
          "internalType": "string",
          "name": "addr",
          "type": "string"
        },
        {
          "internalType": "string",
          "name": "email",
          "type": "string"
        },
        {
          "internalType": "string",
          "name": "phone",
          "type": "string"
        },
        {
          "internalType": "string",
          "name": "postalCode",
          "type": "string"
        }
      ],
      "stateMutability": "view",
      "type": "function"
    },
    {
      "inputs": [],
      "name": "withdraw",
      "outputs": [],
      "stateMutability": "nonpayable",
      "type": "function"
    }
  ],
  "bytecode": "0x6080604052346200002d576200001462000186565b6200001e62000033565b614f926200080c8239614f9290f35b62000039565b60405190565b600080fd5b601f801991011690565b634e487b7160e01b600052604160045260246000fd5b906200006a906200003e565b810190811060018060401b038211176200008357604052565b62000048565b90620000a06200009862000033565b92836200005e565b565b60018060401b038111620000c157620000bd6020916200003e565b0190565b62000048565b90620000dd620000d783620000a2565b62000089565b918252565b60007f446f6742617365546f6b656e0000000000000000000000000000000000000000910152565b62000116600c620000c7565b906200012560208301620000e2565b565b620001316200010a565b90565b60007f4442540000000000000000000000000000000000000000000000000000000000910152565b620001686003620000c7565b90620001776020830162000134565b565b620001836200015c565b90565b620001a66200019462000127565b6200019e62000179565b3391620003bf565b565b634e487b7160e01b600052602260045260246000fd5b9060016002830492168015620001e1575b6020831014620001db57565b620001a8565b91607f1691620001cf565b600052602060002090565b601f602091010490565b1b90565b91906008620002259102916200021e6000198462000201565b9262000201565b9181191691161790565b90565b90565b6200024e6200024862000254926200022f565b62000232565b6200022f565b90565b90565b9190620002756200026f6200027e9362000235565b62000257565b90835462000205565b9055565b600090565b6200029d916200029662000282565b916200025a565b565b5b818110620002ac575050565b80620002bc600060019362000287565b01620002a0565b9190601f8111620002d4575b505050565b620002e36200030e93620001ec565b906020620002f184620001f7565b8301931062000317575b6200030690620001f7565b01906200029f565b388080620002cf565b91506200030681929050620002fb565b620003406000620003398354620001be565b83620002c3565b600080019055565b620003539062000327565b565b60001b90565b906200036a6000199162000355565b9181191691161790565b90565b620003906200038a620003969262000374565b62000232565b6200022f565b90565b90620003b3620003ad620003bb9262000377565b62000257565b82546200035b565b9055565b90620003cc929162000598565b620003d8600762000348565b620003ec66038d7ea4c68000600862000399565b6200040066038d7ea4c68000600962000399565b565b5190565b600052602060002090565b9190601f811162000422575b505050565b620004316200045c9362000406565b9060206200043f84620001f7565b8301931062000465575b6200045490620001f7565b01906200029f565b3880806200041d565b9150620004548192905062000449565b1c90565b906200048c906000199060080262000475565b191690565b816200049d9162000479565b906002021790565b90620004b18162000402565b9060018060401b0382116200058457620004d882620004d18554620001be565b8562000411565b602090601f83116001146200051257918091620005009360009262000505575b505062000491565b90555b565b90915001513880620004f8565b601f19831691620005238562000406565b9260005b8181106200056b575091600293918560019694106200054e575b5050500201905562000503565b62000560910151601f84169062000479565b905538808062000541565b9193602060018192878701518155019501920162000527565b62000048565b906200059691620004a5565b565b620005b490620005ac620005bc94620005be565b60016200058a565b60026200058a565b565b620005c990620005cb565b565b620005d690620005d8565b565b620005e390620005e5565b565b620005f090620005f2565b565b620005fd9062000672565b565b90565b60018060a01b031690565b62000626620006206200062c92620005ff565b62000232565b62000602565b90565b6200063a906200060d565b90565b620006489062000602565b90565b62000656906200063d565b9052565b919062000670906000602085019401906200064b565b565b80620006946200068d6200068760006200062f565b6200063d565b916200063d565b14620006a757620006a5906200079e565b565b620006d8620006b760006200062f565b620006c162000033565b918291631e4fbdf760e01b8352600483016200065a565b0390fd5b60001c90565b60018060a01b031690565b620006fc6200070291620006dc565b620006e2565b90565b620007119054620006ed565b90565b906200072760018060a01b039162000355565b9181191691161790565b6200074a62000744620007509262000602565b62000232565b62000602565b90565b6200075e9062000731565b90565b6200076c9062000753565b90565b90565b906200078c62000786620007949262000761565b6200076f565b825462000714565b9055565b60000190565b620007aa600062000705565b620007b782600062000772565b90620007ef620007e87f8be0079c531659141344cd1fd0a4f28419497f9722a3daafe3b4186f6b6457e09362000761565b9162000761565b91620007fa62000033565b80620008068162000798565b0390a356fe60806040526004361015610013575b612143565b61001e60003561026d565b806301ffc9a71461026857806306fdde0314610263578063081812fc1461025e578063095ea7b3146102595780630ae8b0c2146102545780632208ee801461024f57806323b872dd1461024a57806326b825d21461024557806328861d221461024057806329a7b04b1461023b5780632c1352cf146102365780633596771614610231578063382723561461022c57806339a0c6f9146102275780633ccfd60b1461022257806342842e0e1461021d57806348324017146102185780635e123add146102135780636352211e1461020e5780636515d6c11461020957806370a0823114610204578063715018a6146101ff57806375dda0ec146101fa5780638da5cb5b146101f55780638e9e3cad146101f057806395d89b41146101eb5780639da3ad1a146101e6578063a22cb465146101e1578063a8f5ddd4146101dc578063aed20540146101d7578063b88d4fde146101d2578063c40e21c0146101cd578063c87b56dd146101c8578063e985e9c5146101c3578063f1214058146101be578063f28db6c4146101b95763f2fde38b0361000e57612110565b6120dc565b6120a8565b611dd4565b611d71565b611d34565b611bc9565b611ab9565b611945565b6118d6565b611848565b6116e3565b6116ad565b6115ce565b61159a565b611426565b6113f1565b6113c7565b611364565b61132f565b6112e6565b61110d565b6110da565b6110a7565b61102c565b610e12565b610c03565b610af1565b610ab9565b610a04565b6109d0565b61095d565b610806565b61050c565b61047f565b6103ca565b6102ff565b60e01c90565b60405190565b600080fd5b600080fd5b600080fd5b63ffffffff60e01b1690565b61029d81610288565b036102a457565b600080fd5b905035906102b682610294565b565b906020828203126102d2576102cf916000016102a9565b90565b61027e565b151590565b6102e5906102d7565b9052565b91906102fd906000602085019401906102dc565b565b3461032f5761032b61031a6103153660046102b8565b61214d565b610322610273565b918291826102e9565b0390f35b610279565b600091031261033f57565b61027e565b5190565b60209181520190565b60005b838110610365575050906000910152565b806020918301518185015201610354565b601f801991011690565b61039f6103a86020936103ad9361039681610344565b93848093610348565b95869101610351565b610376565b0190565b6103c79160208201916000818403910152610380565b90565b346103fa576103da366004610334565b6103f66103e56121c6565b6103ed610273565b918291826103b1565b0390f35b610279565b90565b61040b816103ff565b0361041257565b600080fd5b9050359061042482610402565b565b906020828203126104405761043d91600001610417565b90565b61027e565b60018060a01b031690565b61045990610445565b90565b61046590610450565b9052565b919061047d9060006020850194019061045c565b565b346104af576104ab61049a610495366004610426565b6121e1565b6104a2610273565b91829182610469565b0390f35b610279565b6104bd81610450565b036104c457565b600080fd5b905035906104d6826104b4565b565b919060408382031261050157806104f56104fe92600086016104c9565b93602001610417565b90565b61027e565b60000190565b3461053b5761052561051f3660046104d8565b90612200565b61052d610273565b8061053781610506565b0390f35b610279565b634e487b7160e01b600052603260045260246000fd5b5490565b600052602060002090565b61056e81610556565b8210156105895761058060089161055a565b91020190600090565b610540565b634e487b7160e01b600052602260045260246000fd5b90600160028304921680156105c4575b60208310146105bf57565b61058e565b91607f16916105b4565b60209181520190565b600052602060002090565b90600092918054906105fd6105f6836105a4565b80946105ce565b916001811690816000146106565750600114610619575b505050565b61062691929394506105d7565b916000925b81841061063e5750500190388080610614565b6001816020929593955484860152019101929061062b565b92949550505060ff1916825215156020020190388080610614565b9061067b916105e2565b90565b634e487b7160e01b600052604160045260246000fd5b9061069e90610376565b810190811067ffffffffffffffff8211176106b857604052565b61067e565b906106dd6106d6926106cd610273565b93848092610671565b0383610694565b565b600a906106eb82610556565b811015610766576106fb91610565565b5090610709600083016106bd565b91610716600182016106bd565b91610723600283016106bd565b91610730600382016106bd565b9161073d600483016106bd565b9161074a600582016106bd565b91610763600761075c600685016106bd565b93016106bd565b90565b600080fd5b9693946107cb6107f5966107bd6107e7966107ae8c6108039e9c986107a06107d9996101008401908482036000860152610380565b916020818403910152610380565b908c6040818403910152610380565b908a820360608c0152610380565b9088820360808a0152610380565b9086820360a0880152610380565b9084820360c0860152610380565b9160e0818403910152610380565b90565b346108405761083c61082161081c366004610426565b6106df565b94610833989698949194939293610273565b9889988961076b565b0390f35b610279565b5490565b600052602060002090565b61085d81610845565b8210156108785761086f600391610849565b91020190600090565b610540565b60001c90565b90565b6108926108979161087d565b610883565b90565b6108a49054610886565b90565b60018060a01b031690565b6108be6108c39161087d565b6108a7565b90565b6108d090546108b2565b90565b600d906108df82610845565b811015610918576108ef91610854565b506108fc6000820161089a565b91610915600261090e6001850161089a565b93016108c6565b90565b600080fd5b610926906103ff565b9052565b60409061095461095b949695939661094a6060840198600085019061091d565b602083019061091d565b019061045c565b565b346109905761098c610978610973366004610426565b6108d3565b610983939193610273565b9384938461092a565b0390f35b610279565b90916060828403126109cb576109c86109b184600085016104c9565b936109bf81602086016104c9565b93604001610417565b90565b61027e565b346109ff576109e96109e3366004610995565b91612274565b6109f1610273565b806109fb81610506565b0390f35b610279565b34610a3257610a1c610a17366004610426565b6123f3565b610a24610273565b80610a2e81610506565b0390f35b610279565b5490565b600052602060002090565b610a4f81610a37565b821015610a6a57610a61600391610a3b565b91020190600090565b610540565b600b90610a7b82610a37565b811015610ab457610a8b91610a46565b50610a986000820161089a565b91610ab16002610aaa6001850161089a565b93016108c6565b90565b600080fd5b34610aec57610ae8610ad4610acf366004610426565b610a6f565b610adf939193610273565b9384938461092a565b0390f35b610279565b34610b1f57610b09610b04366004610426565b61241e565b610b11610273565b80610b1b81610506565b0390f35b610279565b90602082820312610b3e57610b3b916000016104c9565b90565b61027e565b90565b610b5a610b55610b5f92610445565b610b43565b610445565b90565b610b6b90610b46565b90565b610b7790610b62565b90565b90610b8490610b6e565b600052602052604060002090565b610b9d906011610b7a565b610ba9600082016106bd565b91610bc26002610bbb600185016106bd565b93016106bd565b90565b91610bf290610be4610c00959360608601908682036000880152610380565b908482036020860152610380565b916040818403910152610380565b90565b34610c3657610c32610c1e610c19366004610b24565b610b92565b610c29939193610273565b93849384610bc5565b0390f35b610279565b600080fd5b90610c53610c4c610273565b9283610694565b565b600080fd5b600080fd5b600080fd5b67ffffffffffffffff8111610c8257610c7e602091610376565b0190565b61067e565b90826000939282370152565b90929192610ca8610ca382610c64565b610c40565b93818552602085019082840111610cc457610cc292610c87565b565b610c5f565b9080601f83011215610ce757816020610ce493359101610c93565b90565b610c5a565b91909160c081840312610db957610d0360c0610c40565b92600082013567ffffffffffffffff8111610db45781610d24918401610cc9565b6000850152602082013567ffffffffffffffff8111610daf5781610d49918401610cc9565b602085015260408201359167ffffffffffffffff8311610daa57610d7282610da3948301610cc9565b6040860152610d848260608301610417565b6060860152610d968260808301610417565b608086015260a001610417565b60a0830152565b610c55565b610c55565b610c55565b610c3b565b9091606082840312610e0d57610dd78360008401610417565b9260208301359067ffffffffffffffff8211610e0857610dfc81610e05938601610cec565b93604001610417565b90565b610283565b61027e565b34610e4157610e2b610e25366004610dbe565b91612a66565b610e33610273565b80610e3d81610506565b0390f35b610279565b610e5a610e55610e5f926103ff565b610b43565b6103ff565b90565b90610e6c90610e46565b600052602052604060002090565b610e8590600e610e62565b610e91600082016106bd565b91610e9e600183016106bd565b91610eab600282016106bd565b91610eb8600383016106bd565b91610ec5600482016106bd565b91610ed2600583016106bd565b91610edf600682016106bd565b91610eec600783016106bd565b91610ef9600882016106bd565b91610f06600983016106bd565b91610f13600a82016106bd565b91610f2c600c610f25600b85016106bd565b930161089a565b90565b61102a9c98819f9e9c9761101399610fc9610fd7926101809f996110229f989b610fad610fbb92610f9f6110049f9d610f90610ff59f8d90610fe59f610f82906101a08401908482036000860152610380565b916020818403910152610380565b908c6040818403910152610380565b908a820360608c0152610380565b9088820360808a0152610380565b9086820360a0880152610380565b9084820360c0860152610380565b9160e0818403910152610380565b908d610100818403910152610380565b908b82036101208d0152610380565b908982036101408b0152610380565b90878203610160890152610380565b94019061091d565b565b3461106c57611068611047611042366004610426565b610e7a565b9961105f9d9b9d999199989298979397969496610273565b9d8e9d8e610f2f565b0390f35b610279565b906020828203126110a257600082013567ffffffffffffffff811161109d5761109a9201610cc9565b90565b610283565b61027e565b346110d5576110bf6110ba366004611071565b612a93565b6110c7610273565b806110d181610506565b0390f35b610279565b34611108576110ea366004610334565b6110f2612b37565b6110fa610273565b8061110481610506565b0390f35b610279565b3461113c57611126611120366004610995565b91612b59565b61112e610273565b8061113881610506565b0390f35b610279565b919091610100818403126112ab5761115a610100610c40565b92600082013567ffffffffffffffff81116112a6578161117b918401610cc9565b6000850152602082013567ffffffffffffffff81116112a157816111a0918401610cc9565b6020850152604082013567ffffffffffffffff811161129c57816111c5918401610cc9565b6040850152606082013567ffffffffffffffff811161129757816111ea918401610cc9565b6060850152608082013567ffffffffffffffff8111611292578161120f918401610cc9565b608085015260a082013567ffffffffffffffff811161128d5781611234918401610cc9565b60a085015260c082013567ffffffffffffffff81116112885781611259918401610cc9565b60c085015260e082013567ffffffffffffffff81116112835761127c9201610cc9565b60e0830152565b610c55565b610c55565b610c55565b610c55565b610c55565b610c55565b610c55565b610c55565b610c3b565b906020828203126112e157600082013567ffffffffffffffff81116112dc576112d99201611141565b90565b610283565b61027e565b34611314576112fe6112f93660046112b0565b612de2565b611306610273565b8061131081610506565b0390f35b610279565b919061132d9060006020850194019061091d565b565b3461135f5761133f366004610334565b61135b61134a612e8c565b611352610273565b91829182611319565b0390f35b610279565b346113945761139061137f61137a366004610426565b612ea2565b611387610273565b91829182610469565b0390f35b610279565b91906040838203126113c257806113b66113bf9260008601610417565b936020016104c9565b90565b61027e565b6113db6113d5366004611399565b90612fc7565b6113e3610273565b806113ed81610506565b0390f35b346114215761141d61140c611407366004610b24565b612feb565b611414610273565b91829182611319565b0390f35b610279565b3461145457611436366004610334565b61143e613080565b611446610273565b8061145081610506565b0390f35b610279565b91909160e08184031261154f5761147060e0610c40565b9261147e8160008401610417565b60008501526114908160208401610417565b60208501526114a28160408401610417565b6040850152606082013567ffffffffffffffff811161154a57816114c7918401610cc9565b6060850152608082013567ffffffffffffffff811161154557816114ec918401610cc9565b608085015260a082013567ffffffffffffffff81116115405781611511918401610cc9565b60a085015260c082013567ffffffffffffffff811161153b576115349201610cc9565b60c0830152565b610c55565b610c55565b610c55565b610c55565b610c3b565b9190916040818403126115955761156e8360008301610417565b92602082013567ffffffffffffffff81116115905761158d9201611459565b90565b610283565b61027e565b346115c9576115b36115ad366004611554565b9061342a565b6115bb610273565b806115c581610506565b0390f35b610279565b346115fe576115de366004610334565b6115fa6115e9613436565b6115f1610273565b91829182610469565b0390f35b610279565b919060408382031261162c57806116206116299260008601610417565b93602001610417565b90565b61027e565b9061163b90610e46565b600052602052604060002090565b9061165390610e46565b600052602052604060002090565b1c90565b61167590600861167a9302611661565b6108a7565b90565b906116889154611665565b90565b6116a56116aa926116a0601093600094611631565b611649565b61167d565b90565b346116de576116da6116c96116c3366004611603565b9061168b565b6116d1610273565b91829182610469565b0390f35b610279565b34611713576116f3366004610334565b61170f6116fe61344c565b611706610273565b918291826103b1565b0390f35b610279565b5490565b600052602060002090565b61173081611718565b82101561174b5761174260079161171c565b91020190600090565b610540565b600c9061175c82611718565b8110156117c95761176c91611727565b506117796000820161089a565b916117866001830161089a565b916117936002820161089a565b916117a0600383016106bd565b916117ad600482016106bd565b916117c660066117bf600585016106bd565b93016106bd565b90565b600080fd5b9592866118379561180e61181b93611804611829976117fa6118459e9c98600060e0890198019061091d565b60208d019061091d565b60408b019061091d565b88820360608a0152610380565b908682036080880152610380565b9084820360a0860152610380565b9160c0818403910152610380565b90565b3461187f5761187b61186361185e366004610426565b611750565b93611872979597939193610273565b978897886117ce565b0390f35b610279565b61188d816102d7565b0361189457565b600080fd5b905035906118a682611884565b565b91906040838203126118d157806118c56118ce92600086016104c9565b93602001611899565b90565b61027e565b34611905576118ef6118e93660046118a8565b90613462565b6118f7610273565b8061190181610506565b0390f35b610279565b90916060828403126119405761193d6119268460008501610417565b936119348160208601610417565b936040016104c9565b90565b61027e565b346119745761195e61195836600461190a565b916134fc565b611966610273565b8061197081610506565b0390f35b610279565b91906060838203126119c7576119c0906119936060610c40565b936119a18260008301610417565b60008601526119b38260208301610417565b60208601526040016104c9565b6040830152565b610c3b565b919091606081840312611a62576119e36060610c40565b92600082013567ffffffffffffffff8111611a5d5781611a04918401610cc9565b6000850152602082013567ffffffffffffffff8111611a585781611a29918401610cc9565b6020850152604082013567ffffffffffffffff8111611a5357611a4c9201610cc9565b6040830152565b610c55565b610c55565b610c55565b610c3b565b9160a083830312611ab457611a7f8260008501610417565b92611a8d8360208301611979565b92608082013567ffffffffffffffff8111611aaf57611aac92016119cc565b90565b610283565b61027e565b34611ae857611ad2611acc366004611a67565b91613691565b611ada610273565b80611ae481610506565b0390f35b610279565b67ffffffffffffffff8111611b0b57611b07602091610376565b0190565b61067e565b90929192611b25611b2082611aed565b610c40565b93818552602085019082840111611b4157611b3f92610c87565b565b610c5f565b9080601f83011215611b6457816020611b6193359101611b10565b90565b610c5a565b90608082820312611bc457611b8181600084016104c9565b92611b8f82602085016104c9565b92611b9d8360408301610417565b92606082013567ffffffffffffffff8111611bbf57611bbc9201611b46565b90565b610283565b61027e565b34611bfb57611be5611bdc366004611b69565b9291909161376d565b611bed610273565b80611bf781610506565b0390f35b610279565b90611c0a90610e46565b600052602052604060002090565b5490565b600052602060002090565b611c3081611c18565b821015611c4b57611c42600691611c1c565b91020190600090565b610540565b611c5b90600f611c00565b90611c6582611c18565b811015611cc657611c7591611c27565b5090611c83600083016106bd565b91611c90600182016106bd565b91611c9d600283016106bd565b91611caa6003820161089a565b91611cc36005611cbc6004850161089a565b930161089a565b90565b600080fd5b9194611d21611d1660a095611d08611d3299611cfa611d2b979d9c9a9d60c08a01908a820360008c0152610380565b9088820360208a0152610380565b908682036040880152610380565b98606085019061091d565b608083019061091d565b019061091d565b565b34611d6c57611d68611d50611d4a366004611603565b90611c50565b92611d5f969496929192610273565b96879687611ccb565b0390f35b610279565b34611da157611d9d611d8c611d87366004610426565b6137e1565b611d94610273565b918291826103b1565b0390f35b610279565b9190604083820312611dcf5780611dc3611dcc92600086016104c9565b936020016104c9565b90565b61027e565b34611e0557611e01611df0611dea366004611da6565b906138a6565b611df8610273565b918291826102e9565b0390f35b610279565b9190916101a08184031261203957611e236101a0610c40565b92600082013567ffffffffffffffff81116120345781611e44918401610cc9565b6000850152602082013567ffffffffffffffff811161202f5781611e69918401610cc9565b6020850152604082013567ffffffffffffffff811161202a5781611e8e918401610cc9565b6040850152606082013567ffffffffffffffff81116120255781611eb3918401610cc9565b6060850152608082013567ffffffffffffffff81116120205781611ed8918401610cc9565b608085015260a082013567ffffffffffffffff811161201b5781611efd918401610cc9565b60a085015260c082013567ffffffffffffffff81116120165781611f22918401610cc9565b60c085015260e082013567ffffffffffffffff81116120115781611f47918401610cc9565b60e085015261010082013567ffffffffffffffff811161200c5781611f6d918401610cc9565b61010085015261012082013567ffffffffffffffff81116120075781611f94918401610cc9565b61012085015261014082013567ffffffffffffffff81116120025781611fbb918401610cc9565b6101408501526101608201359167ffffffffffffffff8311611ffd57611fe682611ff5948301610cc9565b61016086015261018001610417565b610180830152565b610c55565b610c55565b610c55565b610c55565b610c55565b610c55565b610c55565b610c55565b610c55565b610c55565b610c55565b610c55565b610c3b565b916060838303126120a3576120568260008501610417565b92602081013567ffffffffffffffff811161209e5783612077918301611e0a565b92604082013567ffffffffffffffff81116120995761209692016119cc565b90565b610283565b610283565b61027e565b346120d7576120c16120bb36600461203e565b916139fc565b6120c9610273565b806120d381610506565b0390f35b610279565b3461210b576120f56120ef366004611603565b90613c3b565b6120fd610273565b8061210781610506565b0390f35b610279565b3461213e57612128612123366004610b24565b613cb5565b612130610273565b8061213a81610506565b0390f35b610279565b600080fd5b600090565b612155612148565b508061217061216a6380ac58cd60e01b610288565b91610288565b148015612194575b908115612184575b5090565b61218e9150613cc0565b38612180565b50806121af6121a9635b5e139f60e01b610288565b91610288565b14612178565b606090565b6121c3906106bd565b90565b6121ce6121b5565b506121d960016121ba565b90565b600090565b6121fd906121ed6121dc565b506121f781613ce6565b50613d44565b90565b90612214919061220e613d63565b91613d70565b565b90565b61222d61222861223292612216565b610b43565b610445565b90565b61223e90612219565b90565b60409061226b61227294969593966122616060840198600085019061045c565b602083019061091d565b019061045c565b565b91908061229261228c6122876000612235565b610450565b91610450565b146122f0576122aa90826122a4613d63565b91613d9c565b91826122be6122b883610450565b91610450565b036122c857505050565b6122ec9091926122d6610273565b9384936364283d7b60e01b855260048501612241565b0390fd5b61231b6122fd6000612235565b612305610273565b918291633250574960e11b835260048301610469565b0390fd5b6123309061232b613f23565b6123d5565b565b9061234461233f83610c64565b610c40565b918252565b60007f7365744d61726b65744665653a20000000000000000000000000000000000000910152565b61237b600e612332565b9061238860208301612349565b565b612392612371565b90565b60001b90565b906123a860001991612395565b9181191691161790565b90565b906123ca6123c56123d192610e46565b6123b2565b825461239b565b9055565b6123f1906123ea816123e561238a565b613f9f565b60096123b5565b565b6123fc9061231f565b565b61240f9061240a613f23565b612411565b565b61241c9060086123b5565b565b612427906123fe565b565b60007f4e6f7420746865206f776e6572206f66207468697320746f6b656e0000000000910152565b61245e601b602092610348565b61246781612429565b0190565b6124819060208101906000818303910152612451565b90565b1561248b57565b612493610273565b62461bcd60e51b8152806124a96004820161246b565b0390fd5b906124dc92916124d76124bf82612ea2565b6124d16124cb33610450565b91610450565b14612484565b612966565b565b6124e890516103ff565b90565b60007f556e617574686f72697a65642076657400000000000000000000000000000000910152565b6125206010602092610348565b612529816124eb565b0190565b6125439060208101906000818303910152612513565b90565b1561254d57565b612555610273565b62461bcd60e51b81528061256b6004820161252d565b0390fd5b90565b600052602060002090565b5490565b61258a8161257d565b8210156125a55761259c600691612572565b91020190600090565b610540565b634e487b7160e01b600052600060045260246000fd5b5190565b601f602091010490565b1b90565b919060086125ee9102916125e8600019846125ce565b926125ce565b9181191691161790565b919061260e61260961261693610e46565b6123b2565b9083546125d2565b9055565b600090565b6126319161262b61261a565b916125f8565b565b5b81811061263f575050565b8061264d600060019361261f565b01612634565b9190601f8111612663575b505050565b61266f612694936105d7565b90602061267b846125c4565b8301931061269c575b61268d906125c4565b0190612633565b38808061265e565b915061268d81929050612684565b906126bb9060001990600802611661565b191690565b816126ca916126aa565b906002021790565b906126dc81610344565b9067ffffffffffffffff821161279e57612700826126fa85546105a4565b85612653565b602090601f83116001146127355791809161272493600092612729575b50506126c0565b90555b565b9091500151388061271d565b601f19831691612744856105d7565b9260005b8181106127865750916002939185600196941061276c575b50505002019055612727565b61277c910151601f8416906126aa565b9055388080612760565b91936020600181928787015181550195019201612748565b61067e565b906127ad916126d2565b565b9061284060a06005612846946127d4600082016127ce600088016125c0565b906127a3565b6127ed600182016127e7602088016125c0565b906127a3565b61280660028201612800604088016125c0565b906127a3565b61281f60038201612819606088016124de565b906123b5565b61283860048201612832608088016124de565b906123b5565b0192016124de565b906123b5565b565b919061285957612857916127af565b565b6125aa565b908154916801000000000000000083101561288e578261288691600161288c95018155612581565b90612848565b565b61067e565b90565b6128aa6128a56128af92612893565b610b43565b6103ff565b90565b634e487b7160e01b600052601160045260246000fd5b6128d76128dd919392936103ff565b926103ff565b82039182116128e857565b6128b2565b905090565b61291761290e9260209261290581610344565b948580936128ed565b93849101610351565b0190565b612924916128f2565b90565b61293c90612933610273565b9182918261291b565b03902090565b91602061296492949361295d6040820196600083019061091d565b019061091d565b565b909161299361298e6129ab926129896010612983606089016124de565b90611631565b611649565b6108c6565b6129a561299f33610450565b91610450565b14612546565b6129c96129c26129bd600f8490611c00565b61256f565b839061285e565b6129f06129e06129db600f8490611c00565b611c18565b6129ea6001612896565b906128c8565b9060008301519091612a106080612a09606087016124de565b95016124de565b612a4c612a46612a407fe4cea47a678377b49d581236eb00ac6bee6b4ff3c0ed2cd665aa3cb6cd2f31e194610e46565b94612927565b94610e46565b94612a61612a58610273565b92839283612942565b0390a4565b90612a7192916124ad565b565b612a8490612a7f613f23565b612a86565b565b612a919060076127a3565b565b612a9c90612a73565b565b612aa6613f23565b612aae612af1565b565b612ab990610b46565b90565b612ac590612ab0565b90565b612ad190610b62565b90565b612add90610b62565b90565b612ae8610273565b3d6000823e3d90fd5b6000808080612b0e612b09612b04613436565b612abc565b612ac8565b612b1730612ad4565b3190828215612b2e575bf115612b2957565b612ae0565b506108fc612b21565b612b3f612a9e565b565b612b4b6000612332565b90565b612b56612b41565b90565b91612b6d9291612b67612b4e565b9261376d565b565b90565b600052602060002090565b5490565b612b8a81612b7d565b821015612ba557612b9c600891612b72565b91020190600090565b610540565b90612c6d60e06007612c7394612bcf60008201612bc9600088016125c0565b906127a3565b612be860018201612be2602088016125c0565b906127a3565b612c0160028201612bfb604088016125c0565b906127a3565b612c1a60038201612c14606088016125c0565b906127a3565b612c3360048201612c2d608088016125c0565b906127a3565b612c4c60058201612c4660a088016125c0565b906127a3565b612c6560068201612c5f60c088016125c0565b906127a3565b0192016125c0565b906127a3565b565b9190612c8657612c8491612baa565b565b6125aa565b9081549168010000000000000000831015612cbb5782612cb3916001612cb995018155612b81565b90612c75565b565b61067e565b612cd4612ccf612cd992612216565b610b43565b6103ff565b90565b90612ce690612cc0565b600052602052604060002090565b90612d0560018060a01b0391612395565b9181191691161790565b90565b90612d27612d22612d2e92610b6e565b612d0f565b8254612cf4565b9055565b9060009291805490612d4d612d46836105a4565b80946128ed565b91600181169081600014612da15750600114612d69575b505050565b612d7691929394506105d7565b6000905b838210612d8d5750500190388080612d64565b600181602092548486015201910190612d7a565b92949550505060ff19168252801515020190388080612d64565b612dc491612d32565b90565b612ddc90612dd3610273565b91829182612dbb565b03902090565b612df590612df0600a612b6f565b612c8b565b612e12612e02600a610556565b612e0c6001612896565b906128c8565b612e3233612e2d612e2560108590611631565b600090612cdc565b612d12565b6000612e3f82600a610565565b5001612e74612e6e7f2a108dbe541c8a4a4194af13d4a0019ecaf28c7a5114dd9d41ef22f5a23d1c2e93610e46565b91612dc7565b91612e7d610273565b80612e8781610506565b0390a3565b612e9461261a565b50612e9f600961089a565b90565b612eb490612eae6121dc565b50613ce6565b90565b90612ee591612ee0612ec882612ea2565b612eda612ed433610450565b91610450565b14612484565b612f6b565b565b60007f496e636f72726563742072657761726420616d6f756e74000000000000000000910152565b612f1c6017602092610348565b612f2581612ee7565b0190565b612f3f9060208101906000818303910152612f0f565b90565b15612f4957565b612f51610273565b62461bcd60e51b815280612f6760048201612f29565b0390fd5b5060008080612fa7612fa28295612f9d34612f97612f91612f8c600861089a565b6103ff565b916103ff565b14612f42565b612abc565b612ac8565b3490828215612fbe575bf115612fb957565b612ae0565b506108fc612fb1565b90612fd191612eb7565b565b90612fdd90610b6e565b600052602052604060002090565b612ff361261a565b508061301061300a6130056000612235565b610450565b91610450565b1461302b57613023613028916004612fd3565b61089a565b90565b6130566130386000612235565b613040610273565b9182916322718ad960e21b835260048301610469565b0390fd5b613062613f23565b61306a61306c565b565b61307e6130796000612235565b613fe1565b565b61308861305a565b565b906130b8916130b361309b82612ea2565b6130ad6130a733610450565b91610450565b14612484565b613370565b565b90565b6130c790546105a4565b90565b60207f6572656400000000000000000000000000000000000000000000000000000000917f5468697320646f6720686173206e6f7420796574206265656e2072656769737460008201520152565b6131256024604092610348565b61312e816130ca565b0190565b6131489060208101906000818303910152613118565b90565b1561315257565b61315a610273565b62461bcd60e51b81528061317060048201613132565b0390fd5b9061317e906103ff565b9052565b90565b600052602060002090565b5490565b61319d81613190565b8210156131b8576131af600791613185565b91020190600090565b610540565b9061326760c0600661326d946131e2600082016131dc600088016124de565b906123b5565b6131fb600182016131f5602088016124de565b906123b5565b6132146002820161320e604088016124de565b906123b5565b61322d60038201613227606088016125c0565b906127a3565b61324660048201613240608088016125c0565b906127a3565b61325f6005820161325960a088016125c0565b906127a3565b0192016125c0565b906127a3565b565b91906132805761327e916131bd565b565b6125aa565b90815491680100000000000000008310156132b557826132ad9160016132b395018155613194565b9061326f565b565b61067e565b90600092918054906132d56132ce836105a4565b8094610348565b9160018116908160001461332e57506001146132f1575b505050565b6132fe91929394506105d7565b916000925b81841061331657505001903880806132ec565b60018160209295939554848601520191019290613303565b92949550505060ff19168252151560200201903880806132ec565b9291602061336661336e93604087019087820360008901526132ba565b94019061091d565b565b6133ab61339261338d6000613387600e8690610e62565b016130ba565b6130bd565b6133a561339f6000612cc0565b916103ff565b1161314b565b6133b84260208401613174565b6133cc6133c5600c613182565b8390613285565b6133e6602060076133de84600e610e62565b0193016124de565b6134107f3dca6ab7ec8e5fed14c169c64acc6776072631d2935019bbd0b00626bc5b8e0d92610e46565b9261342561341c610273565b92839283613349565b0390a2565b906134349161308a565b565b61343e6121dc565b5061344960006108c6565b90565b6134546121b5565b5061345f60026121ba565b90565b6134769161346e613d63565b919091614087565b565b60007f556e617574686f72697a65640000000000000000000000000000000000000000910152565b6134ad600c602092610348565b6134b681613478565b0190565b6134d090602081019060008183039101526134a0565b90565b156134da57565b6134e2610273565b62461bcd60e51b8152806134f8600482016134ba565b0390fd5b9061354f9061354a6135549461354261352a61352561351d60108990611631565b600090612cdc565b6108c6565b61353c61353633610450565b91610450565b146134d3565b936010611631565b611649565b612d12565b565b6135609051610450565b90565b906135a9604060026135af9461358860008201613582600088016125c0565b906127a3565b6135a16001820161359b602088016125c0565b906127a3565b0192016125c0565b906127a3565b565b906135bb91613563565b565b90565b600052602060002090565b5490565b6135d8816135cb565b8210156135f3576135ea6003916135c0565b91020190600090565b610540565b9061363e604060026136449461361d60008201613617600088016124de565b906123b5565b61363660018201613630602088016124de565b906123b5565b019201613556565b90612d12565b565b919061365757613655916135f8565b565b6125aa565b908154916801000000000000000083101561368c578261368491600161368a950181556135cf565b90613646565b565b61067e565b90916136fb906136d26136b96136b460006136ae600e8890610e62565b016130ba565b6130bd565b6136cc6136c66000612cc0565b916103ff565b1161314b565b6136df4260208601613174565b6136f660116136f060408701613556565b90610b7a565b6135b1565b61370f613708600d6135bd565b839061365c565b6137296020600761372184600e610e62565b0193016124de565b6137537f4303979ba80a1d68ca0f34324236214a8d0746aea2ce23843d006a6aee7affa192610e46565b9261376861375f610273565b92839283613349565b0390a2565b9161378993919261378081858491612274565b9290919261425d565b565b90565b5190565b61379a612b41565b90565b6137ab906137b193926128f2565b906128f2565b90565b6137d392916137df916137c5610273565b94859260208401928361379d565b90810382520383610694565b565b6137e96121b5565b506137f381613ce6565b506137fc6143cc565b9061380e6138098361378b565b61378e565b61382161381b6000612cc0565b916103ff565b116000146138405761383661383c9291614474565b906137b4565b5b90565b505061384a613792565b61383d565b9061385990610b6e565b600052602052604060002090565b9061387190610b6e565b600052602052604060002090565b60ff1690565b6138916138969161087d565b61387f565b90565b6138a39054613885565b90565b6138cb916138c16138c6926138b9612148565b50600661384f565b613867565b613899565b90565b60007f446f67206e616d65206973207265717569726564000000000000000000000000910152565b6139036014602092610348565b61390c816138ce565b0190565b61392690602081019060008183039101526138f6565b90565b1561393057565b613938610273565b62461bcd60e51b81528061394e60048201613910565b0390fd5b60207f7265676973746572656400000000000000000000000000000000000000000000917f54686973206d6963726f636869702068617320616c7265616479206265656e2060008201520152565b6139ad602a604092610348565b6139b681613952565b0190565b6139d090602081019060008183039101526139a0565b90565b156139da57565b6139e2610273565b62461bcd60e51b8152806139f8600482016139ba565b0390fd5b90613a9192613a7a613a8b92613a39613a20613a1b600084015161378b565b61378e565b613a33613a2d6000612cc0565b916103ff565b11613929565b613a74613a5b613a566000613a50600e8a90610e62565b016130ba565b6130bd565b613a6e613a686000612cc0565b916103ff565b146139d3565b846146b1565b613a8660113390610b7a565b6135b1565b3361475b565b565b90613ac191613abc613aa483612ea2565b613ab6613ab033610450565b91610450565b14612484565b613bb2565b565b90565b613ad06060610c40565b90565b90613add90610450565b9052565b600052602060002090565b5490565b613af981613aec565b821015613b1457613b0b600391613ae1565b91020190600090565b610540565b90613b5f60406002613b6594613b3e60008201613b38600088016124de565b906123b5565b613b5760018201613b51602088016124de565b906123b5565b019201613556565b90612d12565b565b9190613b7857613b7691613b19565b565b6125aa565b9081549168010000000000000000831015613bad5782613ba5916001613bab95018155613af0565b90613b67565b565b61067e565b90613bf7613bc0600b613ac3565b8390613bf284613be93391613be0613bd6613ac6565b9660008801613174565b60208601613174565b60408401613ad3565b613b7d565b613c36613c247fcfbecaeaf607e1d0c00c27beb84cccc934b01aa33a6e756ae9872087cc0c542a92610e46565b92613c2d610273565b91829182611319565b0390a2565b90613c4591613a93565b565b613c5890613c53613f23565b613c5a565b565b80613c76613c70613c6b6000612235565b610450565b91610450565b14613c8657613c8490613fe1565b565b613cb1613c936000612235565b613c9b610273565b918291631e4fbdf760e01b835260048301610469565b0390fd5b613cbe90613c47565b565b613cc8612148565b50613ce2613cdc6301ffc9a760e01b610288565b91610288565b1490565b613cee6121dc565b50613cf881614771565b9081613d15613d0f613d0a6000612235565b610450565b91610450565b14613d1e575090565b613d4090613d2a610273565b918291637e27328960e01b835260048301611319565b0390fd5b613d5b613d6091613d536121dc565b506005611649565b6108c6565b90565b613d6b6121dc565b503390565b91613d7e9291600192614790565b565b90613d8b91036103ff565b90565b90613d9991016103ff565b90565b90613da56121dc565b50613daf81614771565b9280613dcc613dc6613dc16000612235565b610450565b91610450565b03613f10575b5082613def613de9613de46000612235565b610450565b91610450565b03613eb9575b81613e11613e0b613e066000612235565b610450565b91610450565b03613e83575b613e2c82613e2760038490611649565b612d12565b8291613e6a613e64613e5e7fddf252ad1be2c89b69c2b068fc378daa952ba7f163c4a11628f55a4df523b3ef95610b6e565b92610b6e565b92610e46565b92613e73610273565b80613e7d81610506565b0390a490565b613eb4613e906001612896565b613eae613e9f60048690612fd3565b91613ea98361089a565b613d8e565b906123b5565b613e17565b613eda613ec66000612235565b82613ed16000612235565b90600092614790565b613f0b613ee76001612896565b613f05613ef660048790612fd3565b91613f008361089a565b613d80565b906123b5565b613df5565b613f1d9084908391614907565b38613dd2565b613f2b613436565b613f44613f3e613f39613d63565b610450565b91610450565b03613f4b57565b613f74613f56613d63565b613f5e610273565b91829163118cdaa760e01b835260048301610469565b0390fd5b92916020613f95613f9d9360408701908782036000890152610380565b94019061091d565b565b90613fda613fdf92613fcb613fb2610273565b938492600460208501632d839cb360e21b815201613f78565b60208201810382520382610694565b614993565b565b613feb60006108c6565b613ff6826000612d12565b9061402a6140247f8be0079c531659141344cd1fd0a4f28419497f9722a3daafe3b4186f6b6457e093610b6e565b91610b6e565b91614033610273565b8061403d81610506565b0390a3565b9061404e60ff91612395565b9181191691161790565b614061906102d7565b90565b90565b9061407c61407761408392614058565b614064565b8254614042565b9055565b919091826140a66140a061409b6000612235565b610450565b91610450565b1461411a576140ca826140c56140be6006859061384f565b8690613867565b614067565b9190916141156141036140fd7f17307eab39ab6107e8899845ad3d59bd9653f200f220920489ca2b5937696c3193610b6e565b93610b6e565b9361410c610273565b918291826102e9565b0390a3565b61413c83614126610273565b918291630b61174360e31b835260048301610469565b0390fd5b61414990610b46565b90565b61415590614140565b90565b61416190610b62565b90565b60e01b90565b9050519061417782610294565b565b90602082820312614193576141909160000161416a565b90565b61027e565b60209181520190565b6141c06141c96020936141ce936141b78161378e565b93848093614198565b95869101610351565b610376565b0190565b9092614206906141fc61421396946141f26080860197600087019061045c565b602085019061045c565b604083019061091d565b60608184039101526141a1565b90565b9061422861422383611aed565b610c40565b918252565b606090565b3d60001461424f576142433d614216565b903d6000602084013e5b565b61425761422d565b9061424d565b929092833b61427561426f6000612cc0565b916103ff565b11614281575b50505050565b6020916142c2600061429a6142958861414c565b614158565b926142cd63150b7a02916142ac613d63565b96986142b6610273565b998a9889978896614164565b8652600486016141d2565b03925af1809160009261439c575b5015600014614352575060016142f657505b3880808061427b565b6142fe614232565b906143088261378e565b61431b6143156000612cc0565b916103ff565b14600014614349576143459061432f610273565b918291633250574960e11b835260048301610469565b0390fd5b50805190602001fd5b61436b614365630a85bd0160e11b610288565b91610288565b0361437657506142ed565b61439890614382610273565b918291633250574960e11b835260048301610469565b0390fd5b6143be91925060203d81116143c5575b6143b68183610694565b810190614179565b90386142db565b503d6143ac565b6143d46121b5565b506143df60076121ba565b90565b369037565b9061440c6143f483612332565b926020806144028693610c64565b92019103906143e2565b565b600161441a91036103ff565b90565b90565b61443461442f6144399261441d565b610b43565b6103ff565b90565b634e487b7160e01b600052601260045260246000fd5b61445e614464916103ff565b916103ff565b90811561446f570490565b61443c565b61447c6121b5565b5061449961448982614b1c565b6144936001612896565b90613d8e565b906144a3826143e7565b916144ac61261a565b5060200182015b600115614517576144c66144f29161440e565b916f181899199a1a9b1b9c1cb0b131b232b360811b600a82061a83536144ec600a614420565b90614452565b806145066145006000612cc0565b916103ff565b1461451157906144b3565b50505b90565b5050614514565b90614663610180600c614669946145446000820161453e600088016125c0565b906127a3565b61455d60018201614557602088016125c0565b906127a3565b61457660028201614570604088016125c0565b906127a3565b61458f60038201614589606088016125c0565b906127a3565b6145a8600482016145a2608088016125c0565b906127a3565b6145c1600582016145bb60a088016125c0565b906127a3565b6145da600682016145d460c088016125c0565b906127a3565b6145f3600782016145ed60e088016125c0565b906127a3565b61460d6008820161460761010088016125c0565b906127a3565b6146276009820161462161012088016125c0565b906127a3565b614641600a820161463b61014088016125c0565b906127a3565b61465b600b820161465561016088016125c0565b906127a3565b0192016124de565b906123b5565b565b906146759161451e565b565b916146ae93916146a0916146936060860192600087019061091d565b84820360208601526132ba565b9160408184039101526132ba565b90565b906146c7906146c2600e8490610e62565b61466b565b8060006146d6600e8490610e62565b01906146ef600c6146e9600e8690610e62565b0161089a565b92600361470c6002614703600e8590610e62565b0192600e610e62565b019361475661474461473e7fa6e0b5b9f3c6a8a660d7faed56a981e16d717a73b8946f35ece8eb8072f55e6395610e46565b95612dc7565b9561474d610273565b93849384614677565b0390a3565b9061476f9190614769612b4e565b91614d7e565b565b61478861478d916147806121dc565b506003611649565b6108c6565b90565b9190928080156148bf575b6147b9575b5050906147b26147b792916005611649565b612d12565b565b6147c284613ce6565b91806147df6147d96147d46000612235565b610450565b91610450565b1415806148a4575b8061488a575b6148645750916147b2916147b79493614809575b5091926147a0565b81849061484861484261483c7f8c5be1e5ebec7d5bd14f71427d1e84f3dd0314c0f7b2291e5b200ac8c7c3b92595610b6e565b92610b6e565b92610e46565b92614851610273565b8061485b81610506565b0390a438614801565b61488690614870610273565b91829163a9fbf51f60e01b835260048301610469565b0390fd5b5061489f6148998483906138a6565b156102d7565b6147ed565b50826148b86148b283610450565b91610450565b14156147e7565b50816148dc6148d66148d16000612235565b610450565b91610450565b141561479b565b9160206149059294936148fe6040820196600083019061045c565b019061091d565b565b61491c61491682848691614da4565b156102d7565b61492557505050565b61494061493a6149356000612235565b610450565b91610450565b1460001461496e5761496a82614954610273565b918291637e27328960e01b835260048301611319565b0390fd5b61498f614979610273565b92839263177e802f60e01b8452600484016148e3565b0390fd5b6149a6906149a16001614e71565b614f4a565b565b90565b6149bf6149ba6149c4926149a8565b610b43565b6103ff565b90565b90565b6149de6149d96149e3926149c7565b610b43565b6103ff565b90565b90565b6149fd6149f8614a02926149e6565b610b43565b6103ff565b90565b90565b614a1c614a17614a2192614a05565b610b43565b6103ff565b90565b90565b614a3b614a36614a4092614a24565b610b43565b6103ff565b90565b90565b614a5a614a55614a5f92614a43565b610b43565b6103ff565b90565b90565b614a79614a74614a7e92614a62565b610b43565b6103ff565b90565b90565b614a98614a93614a9d92614a81565b610b43565b6103ff565b90565b90565b614ab7614ab2614abc92614aa0565b610b43565b6103ff565b90565b90565b614ad6614ad1614adb92614abf565b610b43565b6103ff565b90565b90565b614af5614af0614afa92614ade565b610b43565b6103ff565b90565b90565b614b14614b0f614b1992614afd565b610b43565b6103ff565b90565b614b2461261a565b50614b2f6000612cc0565b9080614b5e614b587a184f03e93ff9f4daa797ed6e38ed64bf6a1f0100000000000000006149ab565b916103ff565b1015614d36575b80614b86614b806d04ee2d6d415b85acef81000000006149e9565b916103ff565b1015614cfb575b80614ba7614ba1662386f26fc10000614a27565b916103ff565b1015614cc7575b80614bc5614bbf6305f5e100614a65565b916103ff565b1015614c96575b80614be1614bdb612710614aa3565b916103ff565b1015614c67575b80614bfc614bf66064614ae1565b916103ff565b1015614c39575b614c16614c10600a614420565b916103ff565b1015614c20575b90565b614c3490614c2e6001612896565b90613d8e565b614c1d565b614c50614c6191614c4a6064614ae1565b90614452565b91614c5b6002614b00565b90613d8e565b90614c03565b614c7f614c9091614c79612710614aa3565b90614452565b91614c8a6004614ac2565b90613d8e565b90614be8565b614cb0614cc191614caa6305f5e100614a65565b90614452565b91614cbb6008614a84565b90613d8e565b90614bcc565b614ce4614cf591614cde662386f26fc10000614a27565b90614452565b91614cef6010614a46565b90613d8e565b90614bae565b614d1f614d3091614d196d04ee2d6d415b85acef81000000006149e9565b90614452565b91614d2a6020614a08565b90613d8e565b90614b8d565b614d67614d7891614d617a184f03e93ff9f4daa797ed6e38ed64bf6a1f0100000000000000006149ab565b90614452565b91614d7260406149ca565b90613d8e565b90614b65565b9091614da292614d8f838290614e7d565b614d996000612235565b9290919261425d565b565b9190614dae612148565b5080614dcb614dc5614dc06000612235565b610450565b91610450565b14159283614dda575b50505090565b8091929350614df1614deb84610450565b91610450565b14908115614e33575b50918215614e0d575b5050388080614dd4565b614e2b919250614e1f614e2591613d44565b92610450565b91610450565b143880614e03565b614e3f915082906138a6565b38614dfa565b6a636f6e736f6c652e6c6f6790565b60008091614e60614e45565b602082519201905afa50565b600090565b614e79614e6c565b5090565b9081614e9a614e94614e8f6000612235565b610450565b91610450565b14614f0557614eb49190614eae6000612235565b91613d9c565b614ecf614ec9614ec46000612235565b610450565b91610450565b03614ed657565b614f01614ee36000612235565b614eeb610273565b9182916339e3563760e11b835260048301610469565b0390fd5b614f30614f126000612235565b614f1a610273565b918291633250574960e11b835260048301610469565b0390fd5b634e487b7160e01b600052605160045260246000fd5b600103614f3457614f5a90614e54565b56fea26469706673582212203f4586a3ab84bcd2a4c9582aa63229bb492b27580c7d9d18bea643d2554bd32c64736f6c63430008180033",
  "linkReferences": {},
  "deployedLinkReferences": {}
}