{
  "_format": "hh-sol-artifact-1",
  "contractName": "DogBase",
  "sourceName": "contracts/DogBase.sol",
  "abi": [
    {
      "inputs": [],
      "stateMutability": "nonpayable",
      "type": "constructor"
    },
    {
      "inputs": [
        {
          "internalType": "address",
          "name": "sender",
          "type": "address"
        },
        {
          "internalType": "uint256",
          "name": "tokenId",
          "type": "uint256"
        },
        {
          "internalType": "address",
          "name": "owner",
          "type": "address"
        }
      ],
      "name": "ERC721IncorrectOwner",
      "type": "error"
    },
    {
      "inputs": [
        {
          "internalType": "address",
          "name": "operator",
          "type": "address"
        },
        {
          "internalType": "uint256",
          "name": "tokenId",
          "type": "uint256"
        }
      ],
      "name": "ERC721InsufficientApproval",
      "type": "error"
    },
    {
      "inputs": [
        {
          "internalType": "address",
          "name": "approver",
          "type": "address"
        }
      ],
      "name": "ERC721InvalidApprover",
      "type": "error"
    },
    {
      "inputs": [
        {
          "internalType": "address",
          "name": "operator",
          "type": "address"
        }
      ],
      "name": "ERC721InvalidOperator",
      "type": "error"
    },
    {
      "inputs": [
        {
          "internalType": "address",
          "name": "owner",
          "type": "address"
        }
      ],
      "name": "ERC721InvalidOwner",
      "type": "error"
    },
    {
      "inputs": [
        {
          "internalType": "address",
          "name": "receiver",
          "type": "address"
        }
      ],
      "name": "ERC721InvalidReceiver",
      "type": "error"
    },
    {
      "inputs": [
        {
          "internalType": "address",
          "name": "sender",
          "type": "address"
        }
      ],
      "name": "ERC721InvalidSender",
      "type": "error"
    },
    {
      "inputs": [
        {
          "internalType": "uint256",
          "name": "tokenId",
          "type": "uint256"
        }
      ],
      "name": "ERC721NonexistentToken",
      "type": "error"
    },
    {
      "inputs": [
        {
          "internalType": "address",
          "name": "owner",
          "type": "address"
        }
      ],
      "name": "OwnableInvalidOwner",
      "type": "error"
    },
    {
      "inputs": [
        {
          "internalType": "address",
          "name": "account",
          "type": "address"
        }
      ],
      "name": "OwnableUnauthorizedAccount",
      "type": "error"
    },
    {
      "anonymous": false,
      "inputs": [
        {
          "indexed": true,
          "internalType": "uint256",
          "name": "vacId",
          "type": "uint256"
        },
        {
          "indexed": true,
          "internalType": "string",
          "name": "name",
          "type": "string"
        },
        {
          "indexed": true,
          "internalType": "uint256",
          "name": "tokenId",
          "type": "uint256"
        }
      ],
      "name": "AddVaccine",
      "type": "event"
    },
    {
      "anonymous": false,
      "inputs": [
        {
          "indexed": true,
          "internalType": "address",
          "name": "owner",
          "type": "address"
        },
        {
          "indexed": true,
          "internalType": "address",
          "name": "approved",
          "type": "address"
        },
        {
          "indexed": true,
          "internalType": "uint256",
          "name": "tokenId",
          "type": "uint256"
        }
      ],
      "name": "Approval",
      "type": "event"
    },
    {
      "anonymous": false,
      "inputs": [
        {
          "indexed": true,
          "internalType": "address",
          "name": "owner",
          "type": "address"
        },
        {
          "indexed": true,
          "internalType": "address",
          "name": "operator",
          "type": "address"
        },
        {
          "indexed": false,
          "internalType": "bool",
          "name": "approved",
          "type": "bool"
        }
      ],
      "name": "ApprovalForAll",
      "type": "event"
    },
    {
      "anonymous": false,
      "inputs": [
        {
          "indexed": true,
          "internalType": "uint256",
          "name": "tokenId",
          "type": "uint256"
        },
        {
          "indexed": true,
          "internalType": "string",
          "name": "name",
          "type": "string"
        }
      ],
      "name": "DogIsFound",
      "type": "event"
    },
    {
      "anonymous": false,
      "inputs": [
        {
          "indexed": true,
          "internalType": "uint256",
          "name": "tokenId",
          "type": "uint256"
        },
        {
          "indexed": true,
          "internalType": "string",
          "name": "name",
          "type": "string"
        }
      ],
      "name": "DogIsLost",
      "type": "event"
    },
    {
      "anonymous": false,
      "inputs": [
        {
          "indexed": true,
          "internalType": "uint256",
          "name": "tokenId",
          "type": "uint256"
        },
        {
          "indexed": true,
          "internalType": "string",
          "name": "name",
          "type": "string"
        }
      ],
      "name": "NewDoge",
      "type": "event"
    },
    {
      "anonymous": false,
      "inputs": [
        {
          "indexed": true,
          "internalType": "address",
          "name": "previousOwner",
          "type": "address"
        },
        {
          "indexed": true,
          "internalType": "address",
          "name": "newOwner",
          "type": "address"
        }
      ],
      "name": "OwnershipTransferred",
      "type": "event"
    },
    {
      "anonymous": false,
      "inputs": [
        {
          "indexed": true,
          "internalType": "address",
          "name": "from",
          "type": "address"
        },
        {
          "indexed": true,
          "internalType": "address",
          "name": "to",
          "type": "address"
        },
        {
          "indexed": true,
          "internalType": "uint256",
          "name": "tokenId",
          "type": "uint256"
        }
      ],
      "name": "Transfer",
      "type": "event"
    },
    {
      "inputs": [
        {
          "internalType": "uint256",
          "name": "_price",
          "type": "uint256"
        },
        {
          "internalType": "uint256",
          "name": "_tokenId",
          "type": "uint256"
        }
      ],
      "name": "addOrder",
      "outputs": [],
      "stateMutability": "nonpayable",
      "type": "function"
    },
    {
      "inputs": [
        {
          "internalType": "uint256",
          "name": "_tokenId",
          "type": "uint256"
        },
        {
          "components": [
            {
              "internalType": "string",
              "name": "name",
              "type": "string"
            },
            {
              "internalType": "string",
              "name": "supplier",
              "type": "string"
            },
            {
              "internalType": "string",
              "name": "code",
              "type": "string"
            },
            {
              "internalType": "uint256",
              "name": "vetCenterId",
              "type": "uint256"
            },
            {
              "internalType": "uint256",
              "name": "date",
              "type": "uint256"
            },
            {
              "internalType": "uint256",
              "name": "dueDate",
              "type": "uint256"
            }
          ],
          "internalType": "struct DogBase.Vaccine",
          "name": "_vaccine",
          "type": "tuple"
        },
        {
          "internalType": "uint256",
          "name": "_doctorId",
          "type": "uint256"
        }
      ],
      "name": "addVaccine",
      "outputs": [],
      "stateMutability": "nonpayable",
      "type": "function"
    },
    {
      "inputs": [
        {
          "internalType": "address",
          "name": "to",
          "type": "address"
        },
        {
          "internalType": "uint256",
          "name": "tokenId",
          "type": "uint256"
        }
      ],
      "name": "approve",
      "outputs": [],
      "stateMutability": "nonpayable",
      "type": "function"
    },
    {
      "inputs": [
        {
          "internalType": "address",
          "name": "owner",
          "type": "address"
        }
      ],
      "name": "balanceOf",
      "outputs": [
        {
          "internalType": "uint256",
          "name": "",
          "type": "uint256"
        }
      ],
      "stateMutability": "view",
      "type": "function"
    },
    {
      "inputs": [
        {
          "internalType": "string",
          "name": "_uri",
          "type": "string"
        }
      ],
      "name": "changeBaseURI",
      "outputs": [],
      "stateMutability": "nonpayable",
      "type": "function"
    },
    {
      "inputs": [
        {
          "internalType": "uint256",
          "name": "_tokenId",
          "type": "uint256"
        },
        {
          "components": [
            {
              "internalType": "uint256",
              "name": "foundDate",
              "type": "uint256"
            },
            {
              "internalType": "address",
              "name": "foundBy",
              "type": "address"
            }
          ],
          "internalType": "struct DogBase.FoundDog",
          "name": "_foundDog",
          "type": "tuple"
        },
        {
          "components": [
            {
              "internalType": "string",
              "name": "email",
              "type": "string"
            },
            {
              "internalType": "string",
              "name": "cellPhone",
              "type": "string"
            },
            {
              "internalType": "string",
              "name": "otherPhone",
              "type": "string"
            }
          ],
          "internalType": "struct DogBase.Contact",
          "name": "_contact",
          "type": "tuple"
        }
      ],
      "name": "claimDogIsFound",
      "outputs": [],
      "stateMutability": "nonpayable",
      "type": "function"
    },
    {
      "inputs": [
        {
          "internalType": "uint256",
          "name": "_tokenId",
          "type": "uint256"
        },
        {
          "components": [
            {
              "internalType": "uint256",
              "name": "missingDate",
              "type": "uint256"
            },
            {
              "internalType": "uint256",
              "name": "postalCode",
              "type": "uint256"
            },
            {
              "internalType": "string",
              "name": "country",
              "type": "string"
            },
            {
              "internalType": "string",
              "name": "region",
              "type": "string"
            },
            {
              "internalType": "string",
              "name": "city",
              "type": "string"
            },
            {
              "internalType": "string",
              "name": "addr",
              "type": "string"
            }
          ],
          "internalType": "struct DogBase.LostDog",
          "name": "_lostDog",
          "type": "tuple"
        }
      ],
      "name": "claimDogIsLost",
      "outputs": [],
      "stateMutability": "nonpayable",
      "type": "function"
    },
    {
      "inputs": [
        {
          "internalType": "address",
          "name": "",
          "type": "address"
        }
      ],
      "name": "contacts",
      "outputs": [
        {
          "internalType": "string",
          "name": "email",
          "type": "string"
        },
        {
          "internalType": "string",
          "name": "cellPhone",
          "type": "string"
        },
        {
          "internalType": "string",
          "name": "otherPhone",
          "type": "string"
        }
      ],
      "stateMutability": "view",
      "type": "function"
    },
    {
      "inputs": [
        {
          "internalType": "uint256",
          "name": "",
          "type": "uint256"
        }
      ],
      "name": "dogs",
      "outputs": [
        {
          "internalType": "string",
          "name": "name",
          "type": "string"
        },
        {
          "internalType": "string",
          "name": "species",
          "type": "string"
        },
        {
          "internalType": "string",
          "name": "breed",
          "type": "string"
        },
        {
          "internalType": "string",
          "name": "sex",
          "type": "string"
        },
        {
          "internalType": "string",
          "name": "country",
          "type": "string"
        },
        {
          "internalType": "string",
          "name": "region",
          "type": "string"
        },
        {
          "internalType": "string",
          "name": "city",
          "type": "string"
        },
        {
          "internalType": "string",
          "name": "addr",
          "type": "string"
        },
        {
          "internalType": "string",
          "name": "tatoo",
          "type": "string"
        },
        {
          "internalType": "string",
          "name": "color",
          "type": "string"
        },
        {
          "internalType": "string",
          "name": "photo",
          "type": "string"
        },
        {
          "internalType": "string",
          "name": "postalCode",
          "type": "string"
        },
        {
          "internalType": "uint256",
          "name": "birthday",
          "type": "uint256"
        }
      ],
      "stateMutability": "view",
      "type": "function"
    },
    {
      "inputs": [
        {
          "internalType": "uint256",
          "name": "",
          "type": "uint256"
        },
        {
          "internalType": "uint256",
          "name": "",
          "type": "uint256"
        }
      ],
      "name": "foundDogs",
      "outputs": [
        {
          "internalType": "uint256",
          "name": "foundDate",
          "type": "uint256"
        },
        {
          "internalType": "address",
          "name": "foundBy",
          "type": "address"
        }
      ],
      "stateMutability": "view",
      "type": "function"
    },
    {
      "inputs": [
        {
          "internalType": "uint256",
          "name": "tokenId",
          "type": "uint256"
        }
      ],
      "name": "getApproved",
      "outputs": [
        {
          "internalType": "address",
          "name": "",
          "type": "address"
        }
      ],
      "stateMutability": "view",
      "type": "function"
    },
    {
      "inputs": [],
      "name": "getMarketFee",
      "outputs": [
        {
          "internalType": "uint256",
          "name": "",
          "type": "uint256"
        }
      ],
      "stateMutability": "view",
      "type": "function"
    },
    {
      "inputs": [
        {
          "internalType": "address",
          "name": "owner",
          "type": "address"
        },
        {
          "internalType": "address",
          "name": "operator",
          "type": "address"
        }
      ],
      "name": "isApprovedForAll",
      "outputs": [
        {
          "internalType": "bool",
          "name": "",
          "type": "bool"
        }
      ],
      "stateMutability": "view",
      "type": "function"
    },
    {
      "inputs": [
        {
          "internalType": "uint256",
          "name": "",
          "type": "uint256"
        },
        {
          "internalType": "uint256",
          "name": "",
          "type": "uint256"
        }
      ],
      "name": "lostDogs",
      "outputs": [
        {
          "internalType": "uint256",
          "name": "missingDate",
          "type": "uint256"
        },
        {
          "internalType": "uint256",
          "name": "postalCode",
          "type": "uint256"
        },
        {
          "internalType": "string",
          "name": "country",
          "type": "string"
        },
        {
          "internalType": "string",
          "name": "region",
          "type": "string"
        },
        {
          "internalType": "string",
          "name": "city",
          "type": "string"
        },
        {
          "internalType": "string",
          "name": "addr",
          "type": "string"
        }
      ],
      "stateMutability": "view",
      "type": "function"
    },
    {
      "inputs": [
        {
          "internalType": "uint256",
          "name": "",
          "type": "uint256"
        }
      ],
      "name": "market",
      "outputs": [
        {
          "internalType": "uint256",
          "name": "price",
          "type": "uint256"
        },
        {
          "internalType": "uint256",
          "name": "tokenId",
          "type": "uint256"
        },
        {
          "internalType": "address",
          "name": "dogOwner",
          "type": "address"
        }
      ],
      "stateMutability": "view",
      "type": "function"
    },
    {
      "inputs": [],
      "name": "name",
      "outputs": [
        {
          "internalType": "string",
          "name": "",
          "type": "string"
        }
      ],
      "stateMutability": "view",
      "type": "function"
    },
    {
      "inputs": [],
      "name": "owner",
      "outputs": [
        {
          "internalType": "address",
          "name": "",
          "type": "address"
        }
      ],
      "stateMutability": "view",
      "type": "function"
    },
    {
      "inputs": [
        {
          "internalType": "uint256",
          "name": "tokenId",
          "type": "uint256"
        }
      ],
      "name": "ownerOf",
      "outputs": [
        {
          "internalType": "address",
          "name": "",
          "type": "address"
        }
      ],
      "stateMutability": "view",
      "type": "function"
    },
    {
      "inputs": [
        {
          "internalType": "uint256",
          "name": "_tokenId",
          "type": "uint256"
        },
        {
          "internalType": "address",
          "name": "_foundBy",
          "type": "address"
        }
      ],
      "name": "payReward",
      "outputs": [],
      "stateMutability": "payable",
      "type": "function"
    },
    {
      "inputs": [
        {
          "internalType": "uint256",
          "name": "_chip",
          "type": "uint256"
        },
        {
          "components": [
            {
              "internalType": "string",
              "name": "name",
              "type": "string"
            },
            {
              "internalType": "string",
              "name": "species",
              "type": "string"
            },
            {
              "internalType": "string",
              "name": "breed",
              "type": "string"
            },
            {
              "internalType": "string",
              "name": "sex",
              "type": "string"
            },
            {
              "internalType": "string",
              "name": "country",
              "type": "string"
            },
            {
              "internalType": "string",
              "name": "region",
              "type": "string"
            },
            {
              "internalType": "string",
              "name": "city",
              "type": "string"
            },
            {
              "internalType": "string",
              "name": "addr",
              "type": "string"
            },
            {
              "internalType": "string",
              "name": "tatoo",
              "type": "string"
            },
            {
              "internalType": "string",
              "name": "color",
              "type": "string"
            },
            {
              "internalType": "string",
              "name": "photo",
              "type": "string"
            },
            {
              "internalType": "string",
              "name": "postalCode",
              "type": "string"
            },
            {
              "internalType": "uint256",
              "name": "birthday",
              "type": "uint256"
            }
          ],
          "internalType": "struct DogBase.Dog",
          "name": "_dog",
          "type": "tuple"
        },
        {
          "components": [
            {
              "internalType": "string",
              "name": "email",
              "type": "string"
            },
            {
              "internalType": "string",
              "name": "cellPhone",
              "type": "string"
            },
            {
              "internalType": "string",
              "name": "otherPhone",
              "type": "string"
            }
          ],
          "internalType": "struct DogBase.Contact",
          "name": "_contact",
          "type": "tuple"
        }
      ],
      "name": "regDoge",
      "outputs": [],
      "stateMutability": "nonpayable",
      "type": "function"
    },
    {
      "inputs": [
        {
          "components": [
            {
              "internalType": "string",
              "name": "name",
              "type": "string"
            },
            {
              "internalType": "string",
              "name": "country",
              "type": "string"
            },
            {
              "internalType": "string",
              "name": "region",
              "type": "string"
            },
            {
              "internalType": "string",
              "name": "city",
              "type": "string"
            },
            {
              "internalType": "string",
              "name": "addr",
              "type": "string"
            },
            {
              "internalType": "string",
              "name": "email",
              "type": "string"
            },
            {
              "internalType": "string",
              "name": "phone",
              "type": "string"
            },
            {
              "internalType": "string",
              "name": "postalCode",
              "type": "string"
            }
          ],
          "internalType": "struct DogBase.VetCenter",
          "name": "_vetCenter",
          "type": "tuple"
        }
      ],
      "name": "regVetCenter",
      "outputs": [],
      "stateMutability": "nonpayable",
      "type": "function"
    },
    {
      "inputs": [
        {
          "internalType": "uint256",
          "name": "_vetCenterId",
          "type": "uint256"
        },
        {
          "internalType": "uint256",
          "name": "_doctorId",
          "type": "uint256"
        },
        {
          "internalType": "address",
          "name": "_doctor",
          "type": "address"
        }
      ],
      "name": "regVetCenterOfficial",
      "outputs": [],
      "stateMutability": "nonpayable",
      "type": "function"
    },
    {
      "inputs": [],
      "name": "renounceOwnership",
      "outputs": [],
      "stateMutability": "nonpayable",
      "type": "function"
    },
    {
      "inputs": [
        {
          "internalType": "address",
          "name": "from",
          "type": "address"
        },
        {
          "internalType": "address",
          "name": "to",
          "type": "address"
        },
        {
          "internalType": "uint256",
          "name": "tokenId",
          "type": "uint256"
        }
      ],
      "name": "safeTransferFrom",
      "outputs": [],
      "stateMutability": "nonpayable",
      "type": "function"
    },
    {
      "inputs": [
        {
          "internalType": "address",
          "name": "from",
          "type": "address"
        },
        {
          "internalType": "address",
          "name": "to",
          "type": "address"
        },
        {
          "internalType": "uint256",
          "name": "tokenId",
          "type": "uint256"
        },
        {
          "internalType": "bytes",
          "name": "data",
          "type": "bytes"
        }
      ],
      "name": "safeTransferFrom",
      "outputs": [],
      "stateMutability": "nonpayable",
      "type": "function"
    },
    {
      "inputs": [
        {
          "internalType": "address",
          "name": "operator",
          "type": "address"
        },
        {
          "internalType": "bool",
          "name": "approved",
          "type": "bool"
        }
      ],
      "name": "setApprovalForAll",
      "outputs": [],
      "stateMutability": "nonpayable",
      "type": "function"
    },
    {
      "inputs": [
        {
          "internalType": "uint256",
          "name": "_fee",
          "type": "uint256"
        }
      ],
      "name": "setLostFoundFee",
      "outputs": [],
      "stateMutability": "nonpayable",
      "type": "function"
    },
    {
      "inputs": [
        {
          "internalType": "uint256",
          "name": "_fee",
          "type": "uint256"
        }
      ],
      "name": "setMarketFee",
      "outputs": [],
      "stateMutability": "nonpayable",
      "type": "function"
    },
    {
      "inputs": [
        {
          "internalType": "bytes4",
          "name": "interfaceId",
          "type": "bytes4"
        }
      ],
      "name": "supportsInterface",
      "outputs": [
        {
          "internalType": "bool",
          "name": "",
          "type": "bool"
        }
      ],
      "stateMutability": "view",
      "type": "function"
    },
    {
      "inputs": [],
      "name": "symbol",
      "outputs": [
        {
          "internalType": "string",
          "name": "",
          "type": "string"
        }
      ],
      "stateMutability": "view",
      "type": "function"
    },
    {
      "inputs": [
        {
          "internalType": "uint256",
          "name": "tokenId",
          "type": "uint256"
        }
      ],
      "name": "tokenURI",
      "outputs": [
        {
          "internalType": "string",
          "name": "",
          "type": "string"
        }
      ],
      "stateMutability": "view",
      "type": "function"
    },
    {
      "inputs": [
        {
          "internalType": "address",
          "name": "from",
          "type": "address"
        },
        {
          "internalType": "address",
          "name": "to",
          "type": "address"
        },
        {
          "internalType": "uint256",
          "name": "tokenId",
          "type": "uint256"
        }
      ],
      "name": "transferFrom",
      "outputs": [],
      "stateMutability": "nonpayable",
      "type": "function"
    },
    {
      "inputs": [
        {
          "internalType": "address",
          "name": "newOwner",
          "type": "address"
        }
      ],
      "name": "transferOwnership",
      "outputs": [],
      "stateMutability": "nonpayable",
      "type": "function"
    },
    {
      "inputs": [
        {
          "internalType": "uint256",
          "name": "",
          "type": "uint256"
        },
        {
          "internalType": "uint256",
          "name": "",
          "type": "uint256"
        }
      ],
      "name": "vaccines",
      "outputs": [
        {
          "internalType": "string",
          "name": "name",
          "type": "string"
        },
        {
          "internalType": "string",
          "name": "supplier",
          "type": "string"
        },
        {
          "internalType": "string",
          "name": "code",
          "type": "string"
        },
        {
          "internalType": "uint256",
          "name": "vetCenterId",
          "type": "uint256"
        },
        {
          "internalType": "uint256",
          "name": "date",
          "type": "uint256"
        },
        {
          "internalType": "uint256",
          "name": "dueDate",
          "type": "uint256"
        }
      ],
      "stateMutability": "view",
      "type": "function"
    },
    {
      "inputs": [
        {
          "internalType": "uint256",
          "name": "",
          "type": "uint256"
        },
        {
          "internalType": "uint256",
          "name": "",
          "type": "uint256"
        }
      ],
      "name": "vetCenterOfficials",
      "outputs": [
        {
          "internalType": "address",
          "name": "",
          "type": "address"
        }
      ],
      "stateMutability": "view",
      "type": "function"
    },
    {
      "inputs": [
        {
          "internalType": "uint256",
          "name": "",
          "type": "uint256"
        }
      ],
      "name": "vetCenters",
      "outputs": [
        {
          "internalType": "string",
          "name": "name",
          "type": "string"
        },
        {
          "internalType": "string",
          "name": "country",
          "type": "string"
        },
        {
          "internalType": "string",
          "name": "region",
          "type": "string"
        },
        {
          "internalType": "string",
          "name": "city",
          "type": "string"
        },
        {
          "internalType": "string",
          "name": "addr",
          "type": "string"
        },
        {
          "internalType": "string",
          "name": "email",
          "type": "string"
        },
        {
          "internalType": "string",
          "name": "phone",
          "type": "string"
        },
        {
          "internalType": "string",
          "name": "postalCode",
          "type": "string"
        }
      ],
      "stateMutability": "view",
      "type": "function"
    },
    {
      "inputs": [],
      "name": "withdraw",
      "outputs": [],
      "stateMutability": "nonpayable",
      "type": "function"
    }
  ],
  "bytecode": "0x6080604052346200002d576200001462000186565b6200001e62000033565b614d746200080c8239614d7490f35b62000039565b60405190565b600080fd5b601f801991011690565b634e487b7160e01b600052604160045260246000fd5b906200006a906200003e565b810190811060018060401b038211176200008357604052565b62000048565b90620000a06200009862000033565b92836200005e565b565b60018060401b038111620000c157620000bd6020916200003e565b0190565b62000048565b90620000dd620000d783620000a2565b62000089565b918252565b60007f446f6742617365546f6b656e0000000000000000000000000000000000000000910152565b62000116600c620000c7565b906200012560208301620000e2565b565b620001316200010a565b90565b60007f4442540000000000000000000000000000000000000000000000000000000000910152565b620001686003620000c7565b90620001776020830162000134565b565b620001836200015c565b90565b620001a66200019462000127565b6200019e62000179565b3391620003bf565b565b634e487b7160e01b600052602260045260246000fd5b9060016002830492168015620001e1575b6020831014620001db57565b620001a8565b91607f1691620001cf565b600052602060002090565b601f602091010490565b1b90565b91906008620002259102916200021e6000198462000201565b9262000201565b9181191691161790565b90565b90565b6200024e6200024862000254926200022f565b62000232565b6200022f565b90565b90565b9190620002756200026f6200027e9362000235565b62000257565b90835462000205565b9055565b600090565b6200029d916200029662000282565b916200025a565b565b5b818110620002ac575050565b80620002bc600060019362000287565b01620002a0565b9190601f8111620002d4575b505050565b620002e36200030e93620001ec565b906020620002f184620001f7565b8301931062000317575b6200030690620001f7565b01906200029f565b388080620002cf565b91506200030681929050620002fb565b620003406000620003398354620001be565b83620002c3565b600080019055565b620003539062000327565b565b60001b90565b906200036a6000199162000355565b9181191691161790565b90565b620003906200038a620003969262000374565b62000232565b6200022f565b90565b90620003b3620003ad620003bb9262000377565b62000257565b82546200035b565b9055565b90620003cc929162000598565b620003d8600762000348565b620003ec66038d7ea4c68000600862000399565b6200040066038d7ea4c68000600962000399565b565b5190565b600052602060002090565b9190601f811162000422575b505050565b620004316200045c9362000406565b9060206200043f84620001f7565b8301931062000465575b6200045490620001f7565b01906200029f565b3880806200041d565b9150620004548192905062000449565b1c90565b906200048c906000199060080262000475565b191690565b816200049d9162000479565b906002021790565b90620004b18162000402565b9060018060401b0382116200058457620004d882620004d18554620001be565b8562000411565b602090601f83116001146200051257918091620005009360009262000505575b505062000491565b90555b565b90915001513880620004f8565b601f19831691620005238562000406565b9260005b8181106200056b575091600293918560019694106200054e575b5050500201905562000503565b62000560910151601f84169062000479565b905538808062000541565b9193602060018192878701518155019501920162000527565b62000048565b906200059691620004a5565b565b620005b490620005ac620005bc94620005be565b60016200058a565b60026200058a565b565b620005c990620005cb565b565b620005d690620005d8565b565b620005e390620005e5565b565b620005f090620005f2565b565b620005fd9062000672565b565b90565b60018060a01b031690565b62000626620006206200062c92620005ff565b62000232565b62000602565b90565b6200063a906200060d565b90565b620006489062000602565b90565b62000656906200063d565b9052565b919062000670906000602085019401906200064b565b565b80620006946200068d6200068760006200062f565b6200063d565b916200063d565b14620006a757620006a5906200079e565b565b620006d8620006b760006200062f565b620006c162000033565b918291631e4fbdf760e01b8352600483016200065a565b0390fd5b60001c90565b60018060a01b031690565b620006fc6200070291620006dc565b620006e2565b90565b620007119054620006ed565b90565b906200072760018060a01b039162000355565b9181191691161790565b6200074a62000744620007509262000602565b62000232565b62000602565b90565b6200075e9062000731565b90565b6200076c9062000753565b90565b90565b906200078c62000786620007949262000761565b6200076f565b825462000714565b9055565b60000190565b620007aa600062000705565b620007b782600062000772565b90620007ef620007e87f8be0079c531659141344cd1fd0a4f28419497f9722a3daafe3b4186f6b6457e09362000761565b9162000761565b91620007fa62000033565b80620008068162000798565b0390a356fe60806040526004361015610013575b61215f565b61001e60003561026d565b806301ffc9a71461026857806306fdde0314610263578063081812fc1461025e578063095ea7b3146102595780630ae8b0c2146102545780631e17d17f1461024f57806323b872dd1461024a57806326b825d21461024557806328861d221461024057806329a7b04b1461023b5780632c1352cf146102365780633596771614610231578063382723561461022c57806339a0c6f9146102275780633ccfd60b1461022257806342842e0e1461021d57806348324017146102185780635e123add146102135780636352211e1461020e5780636515d6c11461020957806370a0823114610204578063715018a6146101ff5780637557ef44146101fa5780638da5cb5b146101f55780638e9e3cad146101f057806395d89b41146101eb578063a076310c146101e6578063a22cb465146101e1578063a8f5ddd4146101dc578063b88d4fde146101d7578063bb9b506e146101d2578063c40e21c0146101cd578063c87b56dd146101c8578063e985e9c5146101c3578063f1214058146101be578063f28db6c4146101b95763f2fde38b0361000e5761212c565b6120f8565b6120c4565b611df0565b611d8d565b611d50565b611be8565b611a82565b611972565b611903565b611874565b611708565b6116d2565b611621565b6115ed565b61148c565b611457565b61142d565b6113ca565b611395565b61134c565b611173565b611140565b61110d565b611092565b610e94565b610c85565b610b76565b610b3e565b610a56565b610a22565b6109b0565b610806565b61050c565b61047f565b6103ca565b6102ff565b60e01c90565b60405190565b600080fd5b600080fd5b600080fd5b63ffffffff60e01b1690565b61029d81610288565b036102a457565b600080fd5b905035906102b682610294565b565b906020828203126102d2576102cf916000016102a9565b90565b61027e565b151590565b6102e5906102d7565b9052565b91906102fd906000602085019401906102dc565b565b3461032f5761032b61031a6103153660046102b8565b612169565b610322610273565b918291826102e9565b0390f35b610279565b600091031261033f57565b61027e565b5190565b60209181520190565b60005b838110610365575050906000910152565b806020918301518185015201610354565b601f801991011690565b61039f6103a86020936103ad9361039681610344565b93848093610348565b95869101610351565b610376565b0190565b6103c79160208201916000818403910152610380565b90565b346103fa576103da366004610334565b6103f66103e56121e2565b6103ed610273565b918291826103b1565b0390f35b610279565b90565b61040b816103ff565b0361041257565b600080fd5b9050359061042482610402565b565b906020828203126104405761043d91600001610417565b90565b61027e565b60018060a01b031690565b61045990610445565b90565b61046590610450565b9052565b919061047d9060006020850194019061045c565b565b346104af576104ab61049a610495366004610426565b6121fd565b6104a2610273565b91829182610469565b0390f35b610279565b6104bd81610450565b036104c457565b600080fd5b905035906104d6826104b4565b565b919060408382031261050157806104f56104fe92600086016104c9565b93602001610417565b90565b61027e565b60000190565b3461053b5761052561051f3660046104d8565b9061221c565b61052d610273565b8061053781610506565b0390f35b610279565b634e487b7160e01b600052603260045260246000fd5b5490565b600052602060002090565b61056e81610556565b8210156105895761058060089161055a565b91020190600090565b610540565b634e487b7160e01b600052602260045260246000fd5b90600160028304921680156105c4575b60208310146105bf57565b61058e565b91607f16916105b4565b60209181520190565b600052602060002090565b90600092918054906105fd6105f6836105a4565b80946105ce565b916001811690816000146106565750600114610619575b505050565b61062691929394506105d7565b916000925b81841061063e5750500190388080610614565b6001816020929593955484860152019101929061062b565b92949550505060ff1916825215156020020190388080610614565b9061067b916105e2565b90565b634e487b7160e01b600052604160045260246000fd5b9061069e90610376565b810190811067ffffffffffffffff8211176106b857604052565b61067e565b906106dd6106d6926106cd610273565b93848092610671565b0383610694565b565b600a906106eb82610556565b811015610766576106fb91610565565b5090610709600083016106bd565b91610716600182016106bd565b91610723600283016106bd565b91610730600382016106bd565b9161073d600483016106bd565b9161074a600582016106bd565b91610763600761075c600685016106bd565b93016106bd565b90565b600080fd5b9693946107cb6107f5966107bd6107e7966107ae8c6108039e9c986107a06107d9996101008401908482036000860152610380565b916020818403910152610380565b908c6040818403910152610380565b908a820360608c0152610380565b9088820360808a0152610380565b9086820360a0880152610380565b9084820360c0860152610380565b9160e0818403910152610380565b90565b346108405761083c61082161081c366004610426565b6106df565b94610833989698949194939293610273565b9889988961076b565b0390f35b610279565b919060408382031261086e578061086261086b9260008601610417565b93602001610417565b90565b61027e565b90565b61088a61088561088f926103ff565b610873565b6103ff565b90565b9061089c90610876565b600052602052604060002090565b5490565b600052602060002090565b6108c2816108aa565b8210156108dd576108d46002916108ae565b91020190600090565b610540565b60001c90565b90565b6108f76108fc916108e2565b6108e8565b90565b61090990546108eb565b90565b60018060a01b031690565b610923610928916108e2565b61090c565b90565b6109359054610917565b90565b61094390600e610892565b9061094d826108aa565b81101561097a5761095d916108b9565b50906109776001610970600085016108ff565b930161092b565b90565b600080fd5b610988906103ff565b9052565b9160206109ae9294936109a76040820196600083019061097f565b019061045c565b565b346109e2576109c96109c3366004610845565b90610938565b906109de6109d5610273565b9283928361098c565b0390f35b610279565b9091606082840312610a1d57610a1a610a0384600085016104c9565b93610a1181602086016104c9565b93604001610417565b90565b61027e565b34610a5157610a3b610a353660046109e7565b91612290565b610a43610273565b80610a4d81610506565b0390f35b610279565b34610a8457610a6e610a69366004610426565b61240f565b610a76610273565b80610a8081610506565b0390f35b610279565b5490565b600052602060002090565b610aa181610a89565b821015610abc57610ab3600391610a8d565b91020190600090565b610540565b600b90610acd82610a89565b811015610b0657610add91610a98565b50610aea600082016108ff565b91610b036002610afc600185016108ff565b930161092b565b90565b600080fd5b604090610b35610b3c9496959396610b2b6060840198600085019061097f565b602083019061097f565b019061045c565b565b34610b7157610b6d610b59610b54366004610426565b610ac1565b610b64939193610273565b93849384610b0b565b0390f35b610279565b34610ba457610b8e610b89366004610426565b61243a565b610b96610273565b80610ba081610506565b0390f35b610279565b90602082820312610bc357610bc0916000016104c9565b90565b61027e565b610bdc610bd7610be192610445565b610873565b610445565b90565b610bed90610bc8565b90565b610bf990610be4565b90565b90610c0690610bf0565b600052602052604060002090565b610c1f906011610bfc565b610c2b600082016106bd565b91610c446002610c3d600185016106bd565b93016106bd565b90565b91610c7490610c66610c82959360608601908682036000880152610380565b908482036020860152610380565b916040818403910152610380565b90565b34610cb857610cb4610ca0610c9b366004610ba9565b610c14565b610cab939193610273565b93849384610c47565b0390f35b610279565b600080fd5b90610cd5610cce610273565b9283610694565b565b600080fd5b600080fd5b600080fd5b67ffffffffffffffff8111610d0457610d00602091610376565b0190565b61067e565b90826000939282370152565b90929192610d2a610d2582610ce6565b610cc2565b93818552602085019082840111610d4657610d4492610d09565b565b610ce1565b9080601f83011215610d6957816020610d6693359101610d15565b90565b610cdc565b91909160c081840312610e3b57610d8560c0610cc2565b92600082013567ffffffffffffffff8111610e365781610da6918401610d4b565b6000850152602082013567ffffffffffffffff8111610e315781610dcb918401610d4b565b602085015260408201359167ffffffffffffffff8311610e2c57610df482610e25948301610d4b565b6040860152610e068260608301610417565b6060860152610e188260808301610417565b608086015260a001610417565b60a0830152565b610cd7565b610cd7565b610cd7565b610cbd565b9091606082840312610e8f57610e598360008401610417565b9260208301359067ffffffffffffffff8211610e8a57610e7e81610e87938601610d6e565b93604001610417565b90565b610283565b61027e565b34610ec357610ead610ea7366004610e40565b91612a41565b610eb5610273565b80610ebf81610506565b0390f35b610279565b90610ed290610876565b600052602052604060002090565b610eeb90600c610ec8565b610ef7600082016106bd565b91610f04600183016106bd565b91610f11600282016106bd565b91610f1e600383016106bd565b91610f2b600482016106bd565b91610f38600583016106bd565b91610f45600682016106bd565b91610f52600783016106bd565b91610f5f600882016106bd565b91610f6c600983016106bd565b91610f79600a82016106bd565b91610f92600c610f8b600b85016106bd565b93016108ff565b90565b6110909c98819f9e9c976110799961102f61103d926101809f996110889f989b6110136110219261100561106a9f9d610ff661105b9f8d9061104b9f610fe8906101a08401908482036000860152610380565b916020818403910152610380565b908c6040818403910152610380565b908a820360608c0152610380565b9088820360808a0152610380565b9086820360a0880152610380565b9084820360c0860152610380565b9160e0818403910152610380565b908d610100818403910152610380565b908b82036101208d0152610380565b908982036101408b0152610380565b90878203610160890152610380565b94019061097f565b565b346110d2576110ce6110ad6110a8366004610426565b610ee0565b996110c59d9b9d999199989298979397969496610273565b9d8e9d8e610f95565b0390f35b610279565b9060208282031261110857600082013567ffffffffffffffff8111611103576111009201610d4b565b90565b610283565b61027e565b3461113b576111256111203660046110d7565b612a6e565b61112d610273565b8061113781610506565b0390f35b610279565b3461116e57611150366004610334565b611158612b12565b611160610273565b8061116a81610506565b0390f35b610279565b346111a25761118c6111863660046109e7565b91612b34565b611194610273565b8061119e81610506565b0390f35b610279565b91909161010081840312611311576111c0610100610cc2565b92600082013567ffffffffffffffff811161130c57816111e1918401610d4b565b6000850152602082013567ffffffffffffffff81116113075781611206918401610d4b565b6020850152604082013567ffffffffffffffff8111611302578161122b918401610d4b565b6040850152606082013567ffffffffffffffff81116112fd5781611250918401610d4b565b6060850152608082013567ffffffffffffffff81116112f85781611275918401610d4b565b608085015260a082013567ffffffffffffffff81116112f3578161129a918401610d4b565b60a085015260c082013567ffffffffffffffff81116112ee57816112bf918401610d4b565b60c085015260e082013567ffffffffffffffff81116112e9576112e29201610d4b565b60e0830152565b610cd7565b610cd7565b610cd7565b610cd7565b610cd7565b610cd7565b610cd7565b610cd7565b610cbd565b9060208282031261134757600082013567ffffffffffffffff81116113425761133f92016111a7565b90565b610283565b61027e565b3461137a5761136461135f366004611316565b612d0d565b61136c610273565b8061137681610506565b0390f35b610279565b91906113939060006020850194019061097f565b565b346113c5576113a5366004610334565b6113c16113b0612d5e565b6113b8610273565b9182918261137f565b0390f35b610279565b346113fa576113f66113e56113e0366004610426565b612d74565b6113ed610273565b91829182610469565b0390f35b610279565b9190604083820312611428578061141c6114259260008601610417565b936020016104c9565b90565b61027e565b61144161143b3660046113ff565b90612e99565b611449610273565b8061145381610506565b0390f35b346114875761148361147261146d366004610ba9565b612ebd565b61147a610273565b9182918261137f565b0390f35b610279565b346114ba5761149c366004610334565b6114a4612f52565b6114ac610273565b806114b681610506565b0390f35b610279565b91906040838203126114fb576114f4906114d96040610cc2565b936114e78260008301610417565b60008601526020016104c9565b6020830152565b610cbd565b919091606081840312611596576115176060610cc2565b92600082013567ffffffffffffffff81116115915781611538918401610d4b565b6000850152602082013567ffffffffffffffff811161158c578161155d918401610d4b565b6020850152604082013567ffffffffffffffff8111611587576115809201610d4b565b6040830152565b610cd7565b610cd7565b610cd7565b610cbd565b916080838303126115e8576115b38260008501610417565b926115c183602083016114bf565b92606082013567ffffffffffffffff81116115e3576115e09201611500565b90565b610283565b61027e565b3461161c5761160661160036600461159b565b916131f6565b61160e610273565b8061161881610506565b0390f35b610279565b3461165157611631366004610334565b61164d61163c6132d5565b611644610273565b91829182610469565b0390f35b610279565b9061166090610876565b600052602052604060002090565b9061167890610876565b600052602052604060002090565b1c90565b61169a90600861169f9302611686565b61090c565b90565b906116ad915461168a565b90565b6116ca6116cf926116c5601093600094611656565b61166e565b6116a2565b90565b34611703576116ff6116ee6116e8366004610845565b906116b0565b6116f6610273565b91829182610469565b0390f35b610279565b3461173857611718366004610334565b6117346117236132eb565b61172b610273565b918291826103b1565b0390f35b610279565b9061174790610876565b600052602052604060002090565b5490565b600052602060002090565b61176d81611755565b8210156117885761177f600691611759565b91020190600090565b610540565b61179890600d61173d565b906117a282611755565b811015611803576117b291611764565b50906117c0600083016108ff565b916117cd600182016108ff565b916117da600283016106bd565b916117e7600382016106bd565b9161180060056117f9600485016106bd565b93016106bd565b90565b600080fd5b949193611847611855926118639561183a6118719a9861183060c08c019460008d019061097f565b60208b019061097f565b88820360408a0152610380565b908682036060880152610380565b908482036080860152610380565b9160a0818403910152610380565b90565b346118ac576118a861189061188a366004610845565b9061178d565b9261189f969496929192610273565b96879687611808565b0390f35b610279565b6118ba816102d7565b036118c157565b600080fd5b905035906118d3826118b1565b565b91906040838203126118fe57806118f26118fb92600086016104c9565b936020016118c6565b90565b61027e565b346119325761191c6119163660046118d5565b90613301565b611924610273565b8061192e81610506565b0390f35b610279565b909160608284031261196d5761196a6119538460008501610417565b936119618160208601610417565b936040016104c9565b90565b61027e565b346119a15761198b611985366004611937565b9161339b565b611993610273565b8061199d81610506565b0390f35b610279565b67ffffffffffffffff81116119c4576119c0602091610376565b0190565b61067e565b909291926119de6119d9826119a6565b610cc2565b938185526020850190828401116119fa576119f892610d09565b565b610ce1565b9080601f83011215611a1d57816020611a1a933591016119c9565b90565b610cdc565b90608082820312611a7d57611a3a81600084016104c9565b92611a4882602085016104c9565b92611a568360408301610417565b92606082013567ffffffffffffffff8111611a7857611a7592016119ff565b90565b610283565b61027e565b34611ab457611a9e611a95366004611a22565b929190916133f5565b611aa6610273565b80611ab081610506565b0390f35b610279565b91909160c081840312611b9d57611ad060c0610cc2565b92611ade8160008401610417565b6000850152611af08160208401610417565b6020850152604082013567ffffffffffffffff8111611b985781611b15918401610d4b565b6040850152606082013567ffffffffffffffff8111611b935781611b3a918401610d4b565b6060850152608082013567ffffffffffffffff8111611b8e5781611b5f918401610d4b565b608085015260a082013567ffffffffffffffff8111611b8957611b829201610d4b565b60a0830152565b610cd7565b610cd7565b610cd7565b610cd7565b610cbd565b919091604081840312611be357611bbc8360008301610417565b92602082013567ffffffffffffffff8111611bde57611bdb9201611ab9565b90565b610283565b61027e565b34611c1757611c01611bfb366004611ba2565b90613621565b611c09610273565b80611c1381610506565b0390f35b610279565b90611c2690610876565b600052602052604060002090565b5490565b600052602060002090565b611c4c81611c34565b821015611c6757611c5e600691611c38565b91020190600090565b610540565b611c7790600f611c1c565b90611c8182611c34565b811015611ce257611c9191611c43565b5090611c9f600083016106bd565b91611cac600182016106bd565b91611cb9600283016106bd565b91611cc6600382016108ff565b91611cdf6005611cd8600485016108ff565b93016108ff565b90565b600080fd5b9194611d3d611d3260a095611d24611d4e99611d16611d47979d9c9a9d60c08a01908a820360008c0152610380565b9088820360208a0152610380565b908682036040880152610380565b98606085019061097f565b608083019061097f565b019061097f565b565b34611d8857611d84611d6c611d66366004610845565b90611c6c565b92611d7b969496929192610273565b96879687611ce7565b0390f35b610279565b34611dbd57611db9611da8611da3366004610426565b613683565b611db0610273565b918291826103b1565b0390f35b610279565b9190604083820312611deb5780611ddf611de892600086016104c9565b936020016104c9565b90565b61027e565b34611e2157611e1d611e0c611e06366004611dc2565b90613748565b611e14610273565b918291826102e9565b0390f35b610279565b9190916101a08184031261205557611e3f6101a0610cc2565b92600082013567ffffffffffffffff81116120505781611e60918401610d4b565b6000850152602082013567ffffffffffffffff811161204b5781611e85918401610d4b565b6020850152604082013567ffffffffffffffff81116120465781611eaa918401610d4b565b6040850152606082013567ffffffffffffffff81116120415781611ecf918401610d4b565b6060850152608082013567ffffffffffffffff811161203c5781611ef4918401610d4b565b608085015260a082013567ffffffffffffffff81116120375781611f19918401610d4b565b60a085015260c082013567ffffffffffffffff81116120325781611f3e918401610d4b565b60c085015260e082013567ffffffffffffffff811161202d5781611f63918401610d4b565b60e085015261010082013567ffffffffffffffff81116120285781611f89918401610d4b565b61010085015261012082013567ffffffffffffffff81116120235781611fb0918401610d4b565b61012085015261014082013567ffffffffffffffff811161201e5781611fd7918401610d4b565b6101408501526101608201359167ffffffffffffffff83116120195761200282612011948301610d4b565b61016086015261018001610417565b610180830152565b610cd7565b610cd7565b610cd7565b610cd7565b610cd7565b610cd7565b610cd7565b610cd7565b610cd7565b610cd7565b610cd7565b610cd7565b610cbd565b916060838303126120bf576120728260008501610417565b92602081013567ffffffffffffffff81116120ba5783612093918301611e26565b92604082013567ffffffffffffffff81116120b5576120b29201611500565b90565b610283565b610283565b61027e565b346120f3576120dd6120d736600461205a565b9161389e565b6120e5610273565b806120ef81610506565b0390f35b610279565b346121275761211161210b366004610845565b90613a9b565b612119610273565b8061212381610506565b0390f35b610279565b3461215a5761214461213f366004610ba9565b613b15565b61214c610273565b8061215681610506565b0390f35b610279565b600080fd5b600090565b612171612164565b508061218c6121866380ac58cd60e01b610288565b91610288565b1480156121b0575b9081156121a0575b5090565b6121aa9150613b20565b3861219c565b50806121cb6121c5635b5e139f60e01b610288565b91610288565b14612194565b606090565b6121df906106bd565b90565b6121ea6121d1565b506121f560016121d6565b90565b600090565b612219906122096121f8565b5061221381613b46565b50613ba4565b90565b90612230919061222a613bc3565b91613bd0565b565b90565b61224961224461224e92612232565b610873565b610445565b90565b61225a90612235565b90565b60409061228761228e949695939661227d6060840198600085019061045c565b602083019061097f565b019061045c565b565b9190806122ae6122a86122a36000612251565b610450565b91610450565b1461230c576122c690826122c0613bc3565b91613bfc565b91826122da6122d483610450565b91610450565b036122e457505050565b6123089091926122f2610273565b9384936364283d7b60e01b85526004850161225d565b0390fd5b6123376123196000612251565b612321610273565b918291633250574960e11b835260048301610469565b0390fd5b61234c90612347613d83565b6123f1565b565b9061236061235b83610ce6565b610cc2565b918252565b60007f7365744d61726b65744665653a20000000000000000000000000000000000000910152565b612397600e61234e565b906123a460208301612365565b565b6123ae61238d565b90565b60001b90565b906123c4600019916123b1565b9181191691161790565b90565b906123e66123e16123ed92610876565b6123ce565b82546123b7565b9055565b61240d90612406816124016123a6565b613dff565b60096123d1565b565b6124189061233b565b565b61242b90612426613d83565b61242d565b565b6124389060086123d1565b565b6124439061241a565b565b60007f4e6f7420746865206f776e6572206f66207468697320746f6b656e0000000000910152565b61247a601b602092610348565b61248381612445565b0190565b61249d906020810190600081830391015261246d565b90565b156124a757565b6124af610273565b62461bcd60e51b8152806124c560048201612487565b0390fd5b906124f892916124f36124db82612d74565b6124ed6124e733610450565b91610450565b146124a0565b61295e565b565b61250490516103ff565b90565b60007f556e617574686f72697a65642076657400000000000000000000000000000000910152565b61253c6010602092610348565b61254581612507565b0190565b61255f906020810190600081830391015261252f565b90565b1561256957565b612571610273565b62461bcd60e51b81528061258760048201612549565b0390fd5b90565b600052602060002090565b5490565b6125a681612599565b8210156125c1576125b860069161258e565b91020190600090565b610540565b634e487b7160e01b600052600060045260246000fd5b5190565b601f602091010490565b1b90565b9190600861260a910291612604600019846125ea565b926125ea565b9181191691161790565b919061262a61262561263293610876565b6123ce565b9083546125ee565b9055565b600090565b61264d91612647612636565b91612614565b565b5b81811061265b575050565b80612669600060019361263b565b01612650565b9190601f811161267f575b505050565b61268b6126b0936105d7565b906020612697846125e0565b830193106126b8575b6126a9906125e0565b019061264f565b38808061267a565b91506126a9819290506126a0565b906126d79060001990600802611686565b191690565b816126e6916126c6565b906002021790565b906126f881610344565b9067ffffffffffffffff82116127ba5761271c8261271685546105a4565b8561266f565b602090601f83116001146127515791809161274093600092612745575b50506126dc565b90555b565b90915001513880612739565b601f19831691612760856105d7565b9260005b8181106127a257509160029391856001969410612788575b50505002019055612743565b612798910151601f8416906126c6565b905538808061277c565b91936020600181928787015181550195019201612764565b61067e565b906127c9916126ee565b565b9061285c60a06005612862946127f0600082016127ea600088016125dc565b906127bf565b61280960018201612803602088016125dc565b906127bf565b6128226002820161281c604088016125dc565b906127bf565b61283b60038201612835606088016124fa565b906123d1565b6128546004820161284e608088016124fa565b906123d1565b0192016124fa565b906123d1565b565b919061287557612873916127cb565b565b6125c6565b90815491680100000000000000008310156128aa57826128a29160016128a89501815561259d565b90612864565b565b61067e565b90565b6128c66128c16128cb926128af565b610873565b6103ff565b90565b634e487b7160e01b600052601160045260246000fd5b6128f36128f9919392936103ff565b926103ff565b820391821161290457565b6128ce565b905090565b61293361292a9260209261292181610344565b94858093612909565b93849101610351565b0190565b6129409161290e565b90565b6129589061294f610273565b91829182612937565b03902090565b909161298b6129866129a392612981601061297b606089016124fa565b90611656565b61166e565b61092b565b61299d61299733610450565b91610450565b14612562565b6129c16129ba6129b5600f8490611c1c565b61258b565b839061287a565b60006129ea6129da6129d5600f8590611c1c565b611c34565b6129e460016128b2565b906128e4565b920151612a29612a23612a1d7fef2666bf5355fe8727fd186d56fccc6011a9b0d8ffd81522a0498c4f5aa487f095610876565b92612943565b92610876565b92612a32610273565b80612a3c81610506565b0390a4565b90612a4c92916124c9565b565b612a5f90612a5a613d83565b612a61565b565b612a6c9060076127bf565b565b612a7790612a4e565b565b612a81613d83565b612a89612acc565b565b612a9490610bc8565b90565b612aa090612a8b565b90565b612aac90610be4565b90565b612ab890610be4565b90565b612ac3610273565b3d6000823e3d90fd5b6000808080612ae9612ae4612adf6132d5565b612a97565b612aa3565b612af230612aaf565b3190828215612b09575bf115612b0457565b612abb565b506108fc612afc565b612b1a612a79565b565b612b26600061234e565b90565b612b31612b1c565b90565b91612b489291612b42612b29565b926133f5565b565b90565b600052602060002090565b5490565b612b6581612b58565b821015612b8057612b77600891612b4d565b91020190600090565b610540565b90612c4860e06007612c4e94612baa60008201612ba4600088016125dc565b906127bf565b612bc360018201612bbd602088016125dc565b906127bf565b612bdc60028201612bd6604088016125dc565b906127bf565b612bf560038201612bef606088016125dc565b906127bf565b612c0e60048201612c08608088016125dc565b906127bf565b612c2760058201612c2160a088016125dc565b906127bf565b612c4060068201612c3a60c088016125dc565b906127bf565b0192016125dc565b906127bf565b565b9190612c6157612c5f91612b85565b565b6125c6565b9081549168010000000000000000831015612c965782612c8e916001612c9495018155612b5c565b90612c50565b565b61067e565b612caf612caa612cb492612232565b610873565b6103ff565b90565b90612cc190612c9b565b600052602052604060002090565b90612ce060018060a01b03916123b1565b9181191691161790565b90565b90612d02612cfd612d0992610bf0565b612cea565b8254612ccf565b9055565b612d2090612d1b600a612b4a565b612c66565b612d5c33612d57612d4f6010612d49612d39600a610556565b612d4360016128b2565b906128e4565b90611656565b600090612cb7565b612ced565b565b612d66612636565b50612d7160096108ff565b90565b612d8690612d806121f8565b50613b46565b90565b90612db791612db2612d9a82612d74565b612dac612da633610450565b91610450565b146124a0565b612e3d565b565b60007f496e636f72726563742072657761726420616d6f756e74000000000000000000910152565b612dee6017602092610348565b612df781612db9565b0190565b612e119060208101906000818303910152612de1565b90565b15612e1b57565b612e23610273565b62461bcd60e51b815280612e3960048201612dfb565b0390fd5b5060008080612e79612e748295612e6f34612e69612e63612e5e60086108ff565b6103ff565b916103ff565b14612e14565b612a97565b612aa3565b3490828215612e90575bf115612e8b57565b612abb565b506108fc612e83565b90612ea391612d89565b565b90612eaf90610bf0565b600052602052604060002090565b612ec5612636565b5080612ee2612edc612ed76000612251565b610450565b91610450565b14612efd57612ef5612efa916004612ea5565b6108ff565b90565b612f28612f0a6000612251565b612f12610273565b9182916322718ad960e21b835260048301610469565b0390fd5b612f34613d83565b612f3c612f3e565b565b612f50612f4b6000612251565b613e41565b565b612f5a612f2c565b565b90565b612f6990546105a4565b90565b60207f6572656400000000000000000000000000000000000000000000000000000000917f5468697320646f6720686173206e6f7420796574206265656e2072656769737460008201520152565b612fc76024604092610348565b612fd081612f6c565b0190565b612fea9060208101906000818303910152612fba565b90565b15612ff457565b612ffc610273565b62461bcd60e51b81528061301260048201612fd4565b0390fd5b90613020906103ff565b9052565b61302e9051610450565b90565b906130776040600261307d9461305660008201613050600088016125dc565b906127bf565b61306f60018201613069602088016125dc565b906127bf565b0192016125dc565b906127bf565b565b9061308991613031565b565b90565b600052602060002090565b5490565b6130a681613099565b8210156130c1576130b860029161308e565b91020190600090565b610540565b906130f3602060016130f9946130eb600082016130e5600088016124fa565b906123d1565b019201613024565b90612ced565b565b919061310c5761310a916130c6565b565b6125c6565b9081549168010000000000000000831015613141578261313991600161313f9501815561309d565b906130fb565b565b61067e565b906000929180549061316161315a836105a4565b8094612909565b916001811690816000146131b5575060011461317d575b505050565b61318a91929394506105d7565b6000905b8382106131a15750500190388080613178565b60018160209254848601520191019061318e565b92949550505060ff19168252801515020190388080613178565b6131d891613146565b90565b6131f0906131e7610273565b918291826131cf565b03902090565b919061326361327c9261323a61322161321c6000613216600c8a90610ec8565b01612f5c565b612f5f565b61323461322e6000612c9b565b916103ff565b11612fed565b6132474260008501613016565b61325e601161325860208601613024565b90610bfc565b61307f565b613277613272600e8590610892565b61308b565b613111565b600061328982600c610ec8565b016132bd6132b77fddc9c814a9c27060d5fee9927b458884b37685b496bd955c02e8e988fabfa30993610876565b916131db565b916132c6610273565b806132d081610506565b0390a3565b6132dd6121f8565b506132e8600061092b565b90565b6132f36121d1565b506132fe60026121d6565b90565b6133159161330d613bc3565b919091613ee7565b565b60007f556e617574686f72697a65640000000000000000000000000000000000000000910152565b61334c600c602092610348565b61335581613317565b0190565b61336f906020810190600081830391015261333f565b90565b1561337957565b613381610273565b62461bcd60e51b81528061339760048201613359565b0390fd5b906133ee906133e96133f3946133e16133c96133c46133bc60108990611656565b600090612cb7565b61092b565b6133db6133d533610450565b91610450565b14613372565b936010611656565b61166e565b612ced565b565b9161341193919261340881858491612290565b929091926140bd565b565b906134419161343c61342482612d74565b61343661343033610450565b91610450565b146124a0565b613562565b565b90565b600052602060002090565b5490565b61345e81613451565b82101561347957613470600691613446565b91020190600090565b610540565b9061350f60a06005613515946134a36000820161349d600088016124fa565b906123d1565b6134bc600182016134b6602088016124fa565b906123d1565b6134d5600282016134cf604088016125dc565b906127bf565b6134ee600382016134e8606088016125dc565b906127bf565b61350760048201613501608088016125dc565b906127bf565b0192016125dc565b906127bf565b565b9190613528576135269161347e565b565b6125c6565b908154916801000000000000000083101561355d578261355591600161355b95018155613455565b90613517565b565b61067e565b906135c8906135a2613589613584600061357e600c8890610ec8565b01612f5c565b612f5f565b61359c6135966000612c9b565b916103ff565b11612fed565b6135af4260008301613016565b6135c36135be600d859061173d565b613443565b61352d565b60006135d582600c610ec8565b016136096136037fb18e88590e353f374a800b514e566675288dfc966063b4f48d0e201a7269cc5093610876565b916131db565b91613612610273565b8061361c81610506565b0390a3565b9061362b91613413565b565b90565b5190565b61363c612b1c565b90565b61364d90613653939261290e565b9061290e565b90565b613675929161368191613667610273565b94859260208401928361363f565b90810382520383610694565b565b61368b6121d1565b5061369581613b46565b5061369e61422c565b906136b06136ab8361362d565b613630565b6136c36136bd6000612c9b565b916103ff565b116000146136e2576136d86136de92916142d4565b90613656565b5b90565b50506136ec613634565b6136df565b906136fb90610bf0565b600052602052604060002090565b9061371390610bf0565b600052602052604060002090565b60ff1690565b613733613738916108e2565b613721565b90565b6137459054613727565b90565b61376d916137636137689261375b612164565b5060066136f1565b613709565b61373b565b90565b60007f446f67206e616d65206973207265717569726564000000000000000000000000910152565b6137a56014602092610348565b6137ae81613770565b0190565b6137c89060208101906000818303910152613798565b90565b156137d257565b6137da610273565b62461bcd60e51b8152806137f0600482016137b2565b0390fd5b60207f7265676973746572656400000000000000000000000000000000000000000000917f54686973206d6963726f636869702068617320616c7265616479206265656e2060008201520152565b61384f602a604092610348565b613858816137f4565b0190565b6138729060208101906000818303910152613842565b90565b1561387c57565b613884610273565b62461bcd60e51b81528061389a6004820161385c565b0390fd5b906139339261391c61392d926138db6138c26138bd600084015161362d565b613630565b6138d56138cf6000612c9b565b916103ff565b116137cb565b6139166138fd6138f860006138f2600c8a90610ec8565b01612f5c565b612f5f565b61391061390a6000612c9b565b916103ff565b14613875565b846144d7565b61392860113390610bfc565b61307f565b3361453d565b565b906139639161395e61394683612d74565b61395861395233610450565b91610450565b146124a0565b613a54565b565b90565b6139726060610cc2565b90565b9061397f90610450565b9052565b600052602060002090565b5490565b61399b8161398e565b8210156139b6576139ad600391613983565b91020190600090565b610540565b90613a0160406002613a07946139e0600082016139da600088016124fa565b906123d1565b6139f9600182016139f3602088016124fa565b906123d1565b019201613024565b90612ced565b565b9190613a1a57613a18916139bb565b565b6125c6565b9081549168010000000000000000831015613a4f5782613a47916001613a4d95018155613992565b90613a09565b565b61067e565b90613a9991613a94613a66600b613965565b9192613a8b3391613a82613a78613968565b9660008801613016565b60208601613016565b60408401613975565b613a1f565b565b90613aa591613935565b565b613ab890613ab3613d83565b613aba565b565b80613ad6613ad0613acb6000612251565b610450565b91610450565b14613ae657613ae490613e41565b565b613b11613af36000612251565b613afb610273565b918291631e4fbdf760e01b835260048301610469565b0390fd5b613b1e90613aa7565b565b613b28612164565b50613b42613b3c6301ffc9a760e01b610288565b91610288565b1490565b613b4e6121f8565b50613b5881614553565b9081613b75613b6f613b6a6000612251565b610450565b91610450565b14613b7e575090565b613ba090613b8a610273565b918291637e27328960e01b83526004830161137f565b0390fd5b613bbb613bc091613bb36121f8565b50600561166e565b61092b565b90565b613bcb6121f8565b503390565b91613bde9291600192614572565b565b90613beb91036103ff565b90565b90613bf991016103ff565b90565b90613c056121f8565b50613c0f81614553565b9280613c2c613c26613c216000612251565b610450565b91610450565b03613d70575b5082613c4f613c49613c446000612251565b610450565b91610450565b03613d19575b81613c71613c6b613c666000612251565b610450565b91610450565b03613ce3575b613c8c82613c876003849061166e565b612ced565b8291613cca613cc4613cbe7fddf252ad1be2c89b69c2b068fc378daa952ba7f163c4a11628f55a4df523b3ef95610bf0565b92610bf0565b92610876565b92613cd3610273565b80613cdd81610506565b0390a490565b613d14613cf060016128b2565b613d0e613cff60048690612ea5565b91613d09836108ff565b613bee565b906123d1565b613c77565b613d3a613d266000612251565b82613d316000612251565b90600092614572565b613d6b613d4760016128b2565b613d65613d5660048790612ea5565b91613d60836108ff565b613be0565b906123d1565b613c55565b613d7d90849083916146e9565b38613c32565b613d8b6132d5565b613da4613d9e613d99613bc3565b610450565b91610450565b03613dab57565b613dd4613db6613bc3565b613dbe610273565b91829163118cdaa760e01b835260048301610469565b0390fd5b92916020613df5613dfd9360408701908782036000890152610380565b94019061097f565b565b90613e3a613e3f92613e2b613e12610273565b938492600460208501632d839cb360e21b815201613dd8565b60208201810382520382610694565b614775565b565b613e4b600061092b565b613e56826000612ced565b90613e8a613e847f8be0079c531659141344cd1fd0a4f28419497f9722a3daafe3b4186f6b6457e093610bf0565b91610bf0565b91613e93610273565b80613e9d81610506565b0390a3565b90613eae60ff916123b1565b9181191691161790565b613ec1906102d7565b90565b90565b90613edc613ed7613ee392613eb8565b613ec4565b8254613ea2565b9055565b91909182613f06613f00613efb6000612251565b610450565b91610450565b14613f7a57613f2a82613f25613f1e600685906136f1565b8690613709565b613ec7565b919091613f75613f63613f5d7f17307eab39ab6107e8899845ad3d59bd9653f200f220920489ca2b5937696c3193610bf0565b93610bf0565b93613f6c610273565b918291826102e9565b0390a3565b613f9c83613f86610273565b918291630b61174360e31b835260048301610469565b0390fd5b613fa990610bc8565b90565b613fb590613fa0565b90565b613fc190610be4565b90565b60e01b90565b90505190613fd782610294565b565b90602082820312613ff357613ff091600001613fca565b90565b61027e565b60209181520190565b61402061402960209361402e9361401781613630565b93848093613ff8565b95869101610351565b610376565b0190565b90926140669061405c61407396946140526080860197600087019061045c565b602085019061045c565b604083019061097f565b6060818403910152614001565b90565b90614088614083836119a6565b610cc2565b918252565b606090565b3d6000146140af576140a33d614076565b903d6000602084013e5b565b6140b761408d565b906140ad565b929092833b6140d56140cf6000612c9b565b916103ff565b116140e1575b50505050565b60209161412260006140fa6140f588613fac565b613fb8565b9261412d63150b7a029161410c613bc3565b9698614116610273565b998a9889978896613fc4565b865260048601614032565b03925af180916000926141fc575b50156000146141b25750600161415657505b388080806140db565b61415e614092565b9061416882613630565b61417b6141756000612c9b565b916103ff565b146000146141a9576141a59061418f610273565b918291633250574960e11b835260048301610469565b0390fd5b50805190602001fd5b6141cb6141c5630a85bd0160e11b610288565b91610288565b036141d6575061414d565b6141f8906141e2610273565b918291633250574960e11b835260048301610469565b0390fd5b61421e91925060203d8111614225575b6142168183610694565b810190613fd9565b903861413b565b503d61420c565b6142346121d1565b5061423f60076121d6565b90565b369037565b9061426c6142548361234e565b926020806142628693610ce6565b9201910390614242565b565b600161427a91036103ff565b90565b90565b61429461428f6142999261427d565b610873565b6103ff565b90565b634e487b7160e01b600052601260045260246000fd5b6142be6142c4916103ff565b916103ff565b9081156142cf570490565b61429c565b6142dc6121d1565b506142f96142e9826148fe565b6142f360016128b2565b90613bee565b9061430382614247565b9161430c612636565b5060200182015b600115614377576143266143529161426e565b916f181899199a1a9b1b9c1cb0b131b232b360811b600a82061a835361434c600a614280565b906142b2565b806143666143606000612c9b565b916103ff565b146143715790614313565b50505b90565b5050614374565b906144c3610180600c6144c9946143a46000820161439e600088016125dc565b906127bf565b6143bd600182016143b7602088016125dc565b906127bf565b6143d6600282016143d0604088016125dc565b906127bf565b6143ef600382016143e9606088016125dc565b906127bf565b61440860048201614402608088016125dc565b906127bf565b6144216005820161441b60a088016125dc565b906127bf565b61443a6006820161443460c088016125dc565b906127bf565b6144536007820161444d60e088016125dc565b906127bf565b61446d6008820161446761010088016125dc565b906127bf565b6144876009820161448161012088016125dc565b906127bf565b6144a1600a820161449b61014088016125dc565b906127bf565b6144bb600b82016144b561016088016125dc565b906127bf565b0192016124fa565b906123d1565b565b906144d59161437e565b565b6000906144ef836144ea600c8490610ec8565b6144cb565b91015161452561451f7fc14a20e8513e6c95e34c051ec0a5bb2d8301e642dec0c99e5de51088789c1ede93610876565b91612943565b9161452e610273565b8061453881610506565b0390a3565b90614551919061454b612b29565b91614b60565b565b61456a61456f916145626121f8565b50600361166e565b61092b565b90565b9190928080156146a1575b61459b575b5050906145946145999291600561166e565b612ced565b565b6145a484613b46565b91806145c16145bb6145b66000612251565b610450565b91610450565b141580614686575b8061466c575b6146465750916145949161459994936145eb575b509192614582565b81849061462a61462461461e7f8c5be1e5ebec7d5bd14f71427d1e84f3dd0314c0f7b2291e5b200ac8c7c3b92595610bf0565b92610bf0565b92610876565b92614633610273565b8061463d81610506565b0390a4386145e3565b61466890614652610273565b91829163a9fbf51f60e01b835260048301610469565b0390fd5b5061468161467b848390613748565b156102d7565b6145cf565b508261469a61469483610450565b91610450565b14156145c9565b50816146be6146b86146b36000612251565b610450565b91610450565b141561457d565b9160206146e79294936146e06040820196600083019061045c565b019061097f565b565b6146fe6146f882848691614b86565b156102d7565b61470757505050565b61472261471c6147176000612251565b610450565b91610450565b146000146147505761474c82614736610273565b918291637e27328960e01b83526004830161137f565b0390fd5b61477161475b610273565b92839263177e802f60e01b8452600484016146c5565b0390fd5b614788906147836001614c53565b614d2c565b565b90565b6147a161479c6147a69261478a565b610873565b6103ff565b90565b90565b6147c06147bb6147c5926147a9565b610873565b6103ff565b90565b90565b6147df6147da6147e4926147c8565b610873565b6103ff565b90565b90565b6147fe6147f9614803926147e7565b610873565b6103ff565b90565b90565b61481d61481861482292614806565b610873565b6103ff565b90565b90565b61483c61483761484192614825565b610873565b6103ff565b90565b90565b61485b61485661486092614844565b610873565b6103ff565b90565b90565b61487a61487561487f92614863565b610873565b6103ff565b90565b90565b61489961489461489e92614882565b610873565b6103ff565b90565b90565b6148b86148b36148bd926148a1565b610873565b6103ff565b90565b90565b6148d76148d26148dc926148c0565b610873565b6103ff565b90565b90565b6148f66148f16148fb926148df565b610873565b6103ff565b90565b614906612636565b506149116000612c9b565b908061494061493a7a184f03e93ff9f4daa797ed6e38ed64bf6a1f01000000000000000061478d565b916103ff565b1015614b18575b806149686149626d04ee2d6d415b85acef81000000006147cb565b916103ff565b1015614add575b80614989614983662386f26fc10000614809565b916103ff565b1015614aa9575b806149a76149a16305f5e100614847565b916103ff565b1015614a78575b806149c36149bd612710614885565b916103ff565b1015614a49575b806149de6149d860646148c3565b916103ff565b1015614a1b575b6149f86149f2600a614280565b916103ff565b1015614a02575b90565b614a1690614a1060016128b2565b90613bee565b6149ff565b614a32614a4391614a2c60646148c3565b906142b2565b91614a3d60026148e2565b90613bee565b906149e5565b614a61614a7291614a5b612710614885565b906142b2565b91614a6c60046148a4565b90613bee565b906149ca565b614a92614aa391614a8c6305f5e100614847565b906142b2565b91614a9d6008614866565b90613bee565b906149ae565b614ac6614ad791614ac0662386f26fc10000614809565b906142b2565b91614ad16010614828565b90613bee565b90614990565b614b01614b1291614afb6d04ee2d6d415b85acef81000000006147cb565b906142b2565b91614b0c60206147ea565b90613bee565b9061496f565b614b49614b5a91614b437a184f03e93ff9f4daa797ed6e38ed64bf6a1f01000000000000000061478d565b906142b2565b91614b5460406147ac565b90613bee565b90614947565b9091614b8492614b71838290614c5f565b614b7b6000612251565b929091926140bd565b565b9190614b90612164565b5080614bad614ba7614ba26000612251565b610450565b91610450565b14159283614bbc575b50505090565b8091929350614bd3614bcd84610450565b91610450565b14908115614c15575b50918215614bef575b5050388080614bb6565b614c0d919250614c01614c0791613ba4565b92610450565b91610450565b143880614be5565b614c2191508290613748565b38614bdc565b6a636f6e736f6c652e6c6f6790565b60008091614c42614c27565b602082519201905afa50565b600090565b614c5b614c4e565b5090565b9081614c7c614c76614c716000612251565b610450565b91610450565b14614ce757614c969190614c906000612251565b91613bfc565b614cb1614cab614ca66000612251565b610450565b91610450565b03614cb857565b614ce3614cc56000612251565b614ccd610273565b9182916339e3563760e11b835260048301610469565b0390fd5b614d12614cf46000612251565b614cfc610273565b918291633250574960e11b835260048301610469565b0390fd5b634e487b7160e01b600052605160045260246000fd5b600103614d1657614d3c90614c36565b56fea264697066735822122095a85b71a0eae06896b66e496a54b1f11d9d115224cd81c10f43f4270f8ec36364736f6c63430008180033",
  "linkReferences": {},
  "deployedLinkReferences": {}
}